{
  "contractName": "CollectibleMetaTxRelayer",
  "abi": [
    {
      "constant": true,
      "inputs": [
        {
          "name": "",
          "type": "address"
        }
      ],
      "name": "replayNonce",
      "outputs": [
        {
          "name": "",
          "type": "uint256"
        }
      ],
      "payable": false,
      "stateMutability": "view",
      "type": "function"
    },
    {
      "constant": true,
      "inputs": [],
      "name": "owner",
      "outputs": [
        {
          "name": "",
          "type": "address"
        }
      ],
      "payable": false,
      "stateMutability": "view",
      "type": "function"
    },
    {
      "constant": true,
      "inputs": [],
      "name": "stampCollectibleContract",
      "outputs": [
        {
          "name": "",
          "type": "address"
        }
      ],
      "payable": false,
      "stateMutability": "view",
      "type": "function"
    },
    {
      "payable": true,
      "stateMutability": "payable",
      "type": "fallback"
    },
    {
      "constant": false,
      "inputs": [
        {
          "name": "_address",
          "type": "address"
        }
      ],
      "name": "initialize",
      "outputs": [],
      "payable": false,
      "stateMutability": "nonpayable",
      "type": "function"
    },
    {
      "constant": false,
      "inputs": [
        {
          "name": "_signature",
          "type": "bytes"
        },
        {
          "name": "_tokenId",
          "type": "uint256"
        },
        {
          "name": "_nonce",
          "type": "uint256"
        }
      ],
      "name": "metaClaimStamp",
      "outputs": [
        {
          "name": "",
          "type": "bool"
        }
      ],
      "payable": false,
      "stateMutability": "nonpayable",
      "type": "function"
    },
    {
      "constant": true,
      "inputs": [
        {
          "name": "_sender",
          "type": "address"
        },
        {
          "name": "_tokenId",
          "type": "uint256"
        },
        {
          "name": "_nonce",
          "type": "uint256"
        }
      ],
      "name": "getClaimStampHash",
      "outputs": [
        {
          "name": "",
          "type": "bytes32"
        }
      ],
      "payable": false,
      "stateMutability": "pure",
      "type": "function"
    },
    {
      "constant": true,
      "inputs": [
        {
          "name": "_data",
          "type": "bytes32"
        },
        {
          "name": "_signature",
          "type": "bytes"
        }
      ],
      "name": "getSubscriptionSigner",
      "outputs": [
        {
          "name": "",
          "type": "address"
        }
      ],
      "payable": false,
      "stateMutability": "pure",
      "type": "function"
    },
    {
      "constant": true,
      "inputs": [
        {
          "name": "_data",
          "type": "bytes32"
        },
        {
          "name": "_signature",
          "type": "bytes"
        }
      ],
      "name": "_getSigner",
      "outputs": [
        {
          "name": "",
          "type": "address"
        }
      ],
      "payable": false,
      "stateMutability": "pure",
      "type": "function"
    }
  ],
  "bytecode": "0x608060405234801561001057600080fd5b50610fec806100206000396000f3fe60806040526004361061007b5760003560e01c80638da5cb5b1161004e5780638da5cb5b14610454578063b0d3b0b8146104ab578063c4d66de814610502578063dcac3080146105535761007b565b806318f321a3146100d75780632d84c3e8146101e957806347b48b7a146102fb57806367d407df146103ef575b603360009054906101000a900473ffffffffffffffffffffffffffffffffffffffff1673ffffffffffffffffffffffffffffffffffffffff163373ffffffffffffffffffffffffffffffffffffffff16146100d557600080fd5b005b3480156100e357600080fd5b506101a7600480360360408110156100fa57600080fd5b81019080803590602001909291908035906020019064010000000081111561012157600080fd5b82018360208201111561013357600080fd5b8035906020019184600183028401116401000000008311171561015557600080fd5b91908080601f016020809104026020016040519081016040528093929190818152602001838380828437600081840152601f19601f8201169050808301925050505050505091929192905050506105cc565b604051808273ffffffffffffffffffffffffffffffffffffffff1673ffffffffffffffffffffffffffffffffffffffff16815260200191505060405180910390f35b3480156101f557600080fd5b506102b96004803603604081101561020c57600080fd5b81019080803590602001909291908035906020019064010000000081111561023357600080fd5b82018360208201111561024557600080fd5b8035906020019184600183028401116401000000008311171561026757600080fd5b91908080601f016020809104026020016040519081016040528093929190818152602001838380828437600081840152601f19601f8201169050808301925050505050505091929192905050506105f1565b604051808273ffffffffffffffffffffffffffffffffffffffff1673ffffffffffffffffffffffffffffffffffffffff16815260200191505060405180910390f35b34801561030757600080fd5b506103d56004803603606081101561031e57600080fd5b810190808035906020019064010000000081111561033b57600080fd5b82018360208201111561034d57600080fd5b8035906020019184600183028401116401000000008311171561036f57600080fd5b91908080601f016020809104026020016040519081016040528093929190818152602001838380828437600081840152601f19601f8201169050808301925050505050505091929192908035906020019092919080359060200190929190505050610721565b604051808215151515815260200191505060405180910390f35b3480156103fb57600080fd5b5061043e6004803603602081101561041257600080fd5b81019080803573ffffffffffffffffffffffffffffffffffffffff169060200190929190505050610baa565b6040518082815260200191505060405180910390f35b34801561046057600080fd5b50610469610bc2565b604051808273ffffffffffffffffffffffffffffffffffffffff1673ffffffffffffffffffffffffffffffffffffffff16815260200191505060405180910390f35b3480156104b757600080fd5b506104c0610be8565b604051808273ffffffffffffffffffffffffffffffffffffffff1673ffffffffffffffffffffffffffffffffffffffff16815260200191505060405180910390f35b34801561050e57600080fd5b506105516004803603602081101561052557600080fd5b81019080803573ffffffffffffffffffffffffffffffffffffffff169060200190929190505050610c0e565b005b34801561055f57600080fd5b506105b66004803603606081101561057657600080fd5b81019080803573ffffffffffffffffffffffffffffffffffffffff1690602001909291908035906020019092919080359060200190929190505050610d90565b6040518082815260200191505060405180910390f35b60006105e9826105db85610e01565b610e5990919063ffffffff16565b905092915050565b600080600080604185511461060c576000935050505061071b565b6020850151925060408501519150606085015160001a9050601b8160ff16101561063757601b810190505b601b8160ff161415801561064f5750601c8160ff1614155b15610660576000935050505061071b565b60018660405160200180807f19457468657265756d205369676e6564204d6573736167653a0a333200000000815250601c018281526020019150506040516020818303038152906040528051906020012082858560405160008152602001604052604051808581526020018460ff1660ff1681526020018381526020018281526020019450505050506020604051602081039080840390855afa15801561070b573d6000803e3d6000fd5b5050506020604051035193505050505b92915050565b6000603360009054906101000a900473ffffffffffffffffffffffffffffffffffffffff1673ffffffffffffffffffffffffffffffffffffffff163373ffffffffffffffffffffffffffffffffffffffff161461077d57600080fd5b600061078a308585610d90565b9050600061079882876105cc565b9050600073ffffffffffffffffffffffffffffffffffffffff168173ffffffffffffffffffffffffffffffffffffffff161415610820576040517f08c379a0000000000000000000000000000000000000000000000000000000008152600401808060200182810382526024815260200180610f9d6024913960400191505060405180910390fd5b603560008273ffffffffffffffffffffffffffffffffffffffff1673ffffffffffffffffffffffffffffffffffffffff1681526020019081526020016000205484146108d4576040517f08c379a00000000000000000000000000000000000000000000000000000000081526004018080602001828103825260128152602001807f4572726f7220696e20746865206e6f6e6365000000000000000000000000000081525060200191505060405180910390fd5b603560008273ffffffffffffffffffffffffffffffffffffffff1673ffffffffffffffffffffffffffffffffffffffff168152602001908152602001600020600081548092919060010191905055506000603460009054906101000a900473ffffffffffffffffffffffffffffffffffffffff1673ffffffffffffffffffffffffffffffffffffffff1663ccd68f3b876040518263ffffffff1660e01b81526004018082815260200191505060806040518083038186803b15801561099857600080fd5b505afa1580156109ac573d6000803e3d6000fd5b505050506040513d60808110156109c257600080fd5b810190808051906020019092919080519060200190929190805190602001909291908051906020019092919050505050505090506000603460009054906101000a900473ffffffffffffffffffffffffffffffffffffffff1673ffffffffffffffffffffffffffffffffffffffff16828489604051602401808373ffffffffffffffffffffffffffffffffffffffff1673ffffffffffffffffffffffffffffffffffffffff168152602001828152602001925050506040516020818303038152906040527f9925856e000000000000000000000000000000000000000000000000000000007bffffffffffffffffffffffffffffffffffffffffffffffffffffffff19166020820180517bffffffffffffffffffffffffffffffffffffffffffffffffffffffff83818316178352505050506040518082805190602001908083835b60208310610b275780518252602082019150602081019050602083039250610b04565b6001836020036101000a03801982511681845116808217855250505050505090500191505060006040518083038185875af1925050503d8060008114610b89576040519150601f19603f3d011682016040523d82523d6000602084013e610b8e565b606091505b5050905080610b9c57600080fd5b809450505050509392505050565b60356020528060005260406000206000915090505481565b603360009054906101000a900473ffffffffffffffffffffffffffffffffffffffff1681565b603460009054906101000a900473ffffffffffffffffffffffffffffffffffffffff1681565b600060019054906101000a900460ff1680610c2d5750610c2c610f5d565b5b80610c4457506000809054906101000a900460ff16155b610c99576040517f08c379a000000000000000000000000000000000000000000000000000000000815260040180806020018281038252602e815260200180610f6f602e913960400191505060405180910390fd5b60008060019054906101000a900460ff161590508015610ce9576001600060016101000a81548160ff02191690831515021790555060016000806101000a81548160ff0219169083151502179055505b33603360006101000a81548173ffffffffffffffffffffffffffffffffffffffff021916908373ffffffffffffffffffffffffffffffffffffffff16021790555081603460006101000a81548173ffffffffffffffffffffffffffffffffffffffff021916908373ffffffffffffffffffffffffffffffffffffffff1602179055508015610d8c5760008060016101000a81548160ff0219169083151502179055505b5050565b6000838383604051602001808473ffffffffffffffffffffffffffffffffffffffff1673ffffffffffffffffffffffffffffffffffffffff1660601b815260140183815260200182815260200193505050506040516020818303038152906040528051906020012090509392505050565b60008160405160200180807f19457468657265756d205369676e6564204d6573736167653a0a333200000000815250601c01828152602001915050604051602081830303815290604052805190602001209050919050565b60006041825114610e6d5760009050610f57565b60008060006020850151925060408501519150606085015160001a90507f7fffffffffffffffffffffffffffffff5d576e7357a4501ddfe92f46681b20a08260001c1115610ec15760009350505050610f57565b601b8160ff1614158015610ed95750601c8160ff1614155b15610eea5760009350505050610f57565b60018682858560405160008152602001604052604051808581526020018460ff1660ff1681526020018381526020018281526020019450505050506020604051602081039080840390855afa158015610f47573d6000803e3d6000fd5b5050506020604051035193505050505b92915050565b600080303b9050600081149150509056fe436f6e747261637420696e7374616e63652068617320616c7265616479206265656e20696e697469616c697a65644d65737361676520776173206e6f74207369676e656420627920616e206163636f756e74a165627a7a72305820a83cb32ae70782ac3b99471d999e63c60ec24808f38151db64a4250e4e149b980029",
  "source": "pragma solidity ^0.5.0;\n\nimport \"@openzeppelin/upgrades/contracts/Initializable.sol\";\nimport \"@openzeppelin/contracts-ethereum-package/contracts/cryptography/ECDSA.sol\";\n\nimport \"./StampCollectible.sol\";\n\n/// @title A meta transaction relayer contract to improve user onboarding and claim stamps for free\n/// @author santteegt\n/// @notice MetaTx relayer can only be used to claim stamps via the buyStamp\n/// @dev Contract can be upgraded through a proxy contract supplied by OpenZeppelin SDK\ncontract CollectibleMetaTxRelayer is Initializable {\n    /// Library to obtain msg signer and sign messages\n    using ECDSA for bytes32;\n\n    address public owner;\n\n    /// Data structure that represents a NFT Tourist stamp\n    struct Stamp {\n        uint256 price;\n        uint256 maxClones;\n        uint256 inWild;\n        uint256 clonedFrom;\n    }\n\n    /// StampCollectible contract\n    StampCollectible public stampCollectibleContract;\n\n    /// Next valid nonce to process the metaTx\n    /// Nonce to avoids replay attack\n    mapping(address => uint) public replayNonce;\n\n    modifier onlyOwner() {\n        require(msg.sender == owner);\n        _;\n    }\n\n    /** @dev Initialize contract\n      * @param _address StampCollectible contract address\n      */\n    function initialize(StampCollectible _address)\n        public\n        initializer {// ensures that the contract only initilizes once\n            owner = msg.sender;\n            stampCollectibleContract = StampCollectible(_address);\n    }\n\n    /** @dev MetaTx function that allows a signer to claim a stamp for free\n      * @param _signature Signed message sent through the relayer\n      * @param _tokenId Gen0 stamp to be cloned and claimed\n      * @param _nonce Transaction nonce\n      * @return uint tokenId corresponding to the claimed NFT\n      */\n    function metaClaimStamp(bytes memory _signature, uint256 _tokenId, uint _nonce)\n        public\n        onlyOwner\n        returns (bool) {\n        // bytes32 metaHash = keccak256(abi.encodePacked(address(this), _tokenId, _nonce));\n        bytes32 metaHash = getClaimStampHash(address(this), _tokenId, _nonce);\n        address signer = getSubscriptionSigner(metaHash, _signature);\n\n        //make sure signer doesn't come back as 0x0\n        require(signer != address(0), \"Message was not signed by an account\");\n        require(_nonce == replayNonce[signer], \"Error in the nonce\");\n\n        //increase the nonce to prevent replay attacks\n        replayNonce[signer]++;\n\n        (uint256 price, , ,) = stampCollectibleContract.stamps(_tokenId);\n\n        (bool success, ) = address(stampCollectibleContract).call.value(price)(abi.encodeWithSignature(\"buyStamp(address,uint256)\", address(uint160(signer)), _tokenId));\n        if(!success) revert();\n        return success;\n        // return stampCollectibleContract.buyStamp(address(uint160(signer)), _tokenId);\n    }\n\n    function getClaimStampHash(address _sender, uint256 _tokenId, uint _nonce)\n        public\n        pure returns (bytes32) {\n            return keccak256( abi.encodePacked( _sender, _tokenId, _nonce ) );\n    }\n\n    /** @dev Executes the ecrecover to get the signer from hash and signature\n      * @param _data Hash data sent\n      * @param _signature Proof the sender signed the meta trasaction\n      * @return address signer address\n      */\n    function getSubscriptionSigner(bytes32 _data, bytes memory _signature)\n        public pure returns (address) {\n        return _data.toEthSignedMessageHash().recover(_signature);\n    }\n\n    /**\n     * @dev Low lever version of getSubscriptionSigner method\n     * @notice This function is only intended to show some knowledge on LLL code\n     * @param _data Hash of subscription\n     * @param _signature Proof the subscriber signed the meta trasaction\n     * @return address signer address\n     */\n    function _getSigner(bytes32 _data, bytes memory _signature)\n        public pure returns (address) {\n\n        bytes32 r;\n        bytes32 s;\n        uint8 v;\n        if (_signature.length != 65) {\n            return address(0x0);\n        }\n        assembly {\n            r := mload(add(_signature, 32))\n            s := mload(add(_signature, 64))\n            v := byte(0, mload(add(_signature, 96)))\n        }\n        if (v < 27) {\n            v += 27;\n        }\n        if (v != 27 && v != 28) {\n            return address(0x0);\n        } else {\n            return ecrecover(\n                keccak256(\n                    abi.encodePacked(\"\\x19Ethereum Signed Message:\\n32\",\n                    _data)\n                ),\n            v, r, s);\n        }\n    }\n\n    /// @dev Fallback function to allow the contract accept deposits in ETH\n    function () external payable onlyOwner {\n\n    }\n}\n",
  "sourcePath": "/Users/santteegt/Consensys-Academy/Spring-2019/final-project/final-project-spring19/contracts/CollectibleMetaTxRelayer.sol",
  "compiler": {
    "name": "solc",
    "version": "0.5.8+commit.23d335f2.Emscripten.clang"
  },
  "schemaVersion": "3.0.11",
  "updatedAt": "2019-08-01T08:46:47.195Z",
  "devdoc": {
    "author": "santteegt",
    "details": "Contract can be upgraded through a proxy contract supplied by OpenZeppelin SDK",
    "methods": {
      "_getSigner(bytes32,bytes)": {
        "details": "Low lever version of getSubscriptionSigner method",
        "params": {
          "_data": "Hash of subscription",
          "_signature": "Proof the subscriber signed the meta trasaction"
        },
        "return": "address signer address"
      },
      "getSubscriptionSigner(bytes32,bytes)": {
        "details": "Executes the ecrecover to get the signer from hash and signature",
        "params": {
          "_data": "Hash data sent",
          "_signature": "Proof the sender signed the meta trasaction"
        },
        "return": "address signer address"
      },
      "initialize(address)": {
        "details": "Initialize contract",
        "params": {
          "_address": "StampCollectible contract address"
        }
      },
      "metaClaimStamp(bytes,uint256,uint256)": {
        "details": "MetaTx function that allows a signer to claim a stamp for free",
        "params": {
          "_nonce": "Transaction nonce",
          "_signature": "Signed message sent through the relayer",
          "_tokenId": "Gen0 stamp to be cloned and claimed"
        },
        "return": "uint tokenId corresponding to the claimed NFT"
      }
    },
    "title": "A meta transaction relayer contract to improve user onboarding and claim stamps for free"
  },
  "userdoc": {
    "methods": {
      "_getSigner(bytes32,bytes)": {
        "notice": "This function is only intended to show some knowledge on LLL code"
      }
    },
    "notice": "MetaTx relayer can only be used to claim stamps via the buyStamp"
  }
}