{
  "fileName": "CollectibleMetaTxRelayer.sol",
  "contractName": "CollectibleMetaTxRelayer",
  "source": "pragma solidity ^0.5.0;\n\nimport \"@openzeppelin/upgrades/contracts/Initializable.sol\";\nimport \"@openzeppelin/contracts-ethereum-package/contracts/cryptography/ECDSA.sol\";\n\nimport \"./StampCollectible.sol\";\n\n/// @title A meta transaction relayer contract to improve user onboarding and claim stamps for free\n/// @author santteegt\n/// @notice MetaTx relayer can only be used to claim stamps via the buyStamp\n/// @dev Contract can be upgraded through a proxy contract supplied by OpenZeppelin SDK\ncontract CollectibleMetaTxRelayer is Initializable {\n    /// Library to obtain msg signer and sign messages\n    using ECDSA for bytes32;\n\n    address public owner;\n\n    /// Data structure that represents a NFT Tourist stamp\n    struct Stamp {\n        uint256 price;\n        uint256 maxClones;\n        uint256 inWild;\n        uint256 clonedFrom;\n    }\n\n    /// StampCollectible contract\n    StampCollectible public stampCollectibleContract;\n\n    /// Next valid nonce to process the metaTx\n    /// Nonce to avoids replay attack\n    mapping(address => uint) public replayNonce;\n\n    modifier onlyOwner() {\n        require(msg.sender == owner);\n        _;\n    }\n\n    /** @dev Initialize contract\n      * @param _address StampCollectible contract address\n      */\n    function initialize(StampCollectible _address)\n        public\n        initializer {// ensures that the contract only initilizes once\n            owner = msg.sender;\n            stampCollectibleContract = StampCollectible(_address);\n    }\n\n    /** @dev MetaTx function that allows a signer to claim a stamp for free\n      * @param _signature Signed message sent through the relayer\n      * @param _tokenId Gen0 stamp to be cloned and claimed\n      * @param _nonce Transaction nonce\n      * @return uint tokenId corresponding to the claimed NFT\n      */\n    function metaClaimStamp(bytes memory _signature, uint256 _tokenId, uint _nonce)\n        public\n        onlyOwner\n        returns (bool) {\n        // bytes32 metaHash = keccak256(abi.encodePacked(address(this), _tokenId, _nonce));\n        bytes32 metaHash = getClaimStampHash(address(this), _tokenId, _nonce);\n        address signer = getSubscriptionSigner(metaHash, _signature);\n\n        //make sure signer doesn't come back as 0x0\n        require(signer != address(0), \"Message was not signed by an account\");\n        require(_nonce == replayNonce[signer], \"Error in the nonce\");\n\n        //increase the nonce to prevent replay attacks\n        replayNonce[signer]++;\n\n        (uint256 price, , ,) = stampCollectibleContract.stamps(_tokenId);\n\n        (bool success, ) = address(stampCollectibleContract).call.value(price)(abi.encodeWithSignature(\"buyStamp(address,uint256)\", address(uint160(signer)), _tokenId));\n        if(!success) revert();\n        return success;\n        // return stampCollectibleContract.buyStamp(address(uint160(signer)), _tokenId);\n    }\n\n    function getClaimStampHash(address _sender, uint256 _tokenId, uint _nonce)\n        public\n        pure returns (bytes32) {\n            return keccak256( abi.encodePacked( _sender, _tokenId, _nonce ) );\n    }\n\n    /** @dev Executes the ecrecover to get the signer from hash and signature\n      * @param _data Hash data sent\n      * @param _signature Proof the sender signed the meta trasaction\n      * @return address signer address\n      */\n    function getSubscriptionSigner(bytes32 _data, bytes memory _signature)\n        public pure returns (address) {\n        return _data.toEthSignedMessageHash().recover(_signature);\n    }\n\n    /**\n     * @dev Low lever version of getSubscriptionSigner method\n     * @notice This function is only intended to show some knowledge on LLL code\n     * @param _data Hash of subscription\n     * @param _signature Proof the subscriber signed the meta trasaction\n     * @return address signer address\n     */\n    function _getSigner(bytes32 _data, bytes memory _signature)\n        public pure returns (address) {\n\n        bytes32 r;\n        bytes32 s;\n        uint8 v;\n        if (_signature.length != 65) {\n            return address(0x0);\n        }\n        assembly {\n            r := mload(add(_signature, 32))\n            s := mload(add(_signature, 64))\n            v := byte(0, mload(add(_signature, 96)))\n        }\n        if (v < 27) {\n            v += 27;\n        }\n        if (v != 27 && v != 28) {\n            return address(0x0);\n        } else {\n            return ecrecover(\n                keccak256(\n                    abi.encodePacked(\"\\x19Ethereum Signed Message:\\n32\",\n                    _data)\n                ),\n            v, r, s);\n        }\n    }\n\n    /// @dev Fallback function to allow the contract accept deposits in ETH\n    function () external payable onlyOwner {\n\n    }\n}\n",
  "sourcePath": "contracts/CollectibleMetaTxRelayer.sol",
  "abi": [
    {
      "constant": true,
      "inputs": [
        {
          "internalType": "bytes32",
          "name": "_data",
          "type": "bytes32"
        },
        {
          "internalType": "bytes",
          "name": "_signature",
          "type": "bytes"
        }
      ],
      "name": "getSubscriptionSigner",
      "outputs": [
        {
          "internalType": "address",
          "name": "",
          "type": "address"
        }
      ],
      "payable": false,
      "stateMutability": "pure",
      "type": "function"
    },
    {
      "constant": true,
      "inputs": [
        {
          "internalType": "bytes32",
          "name": "_data",
          "type": "bytes32"
        },
        {
          "internalType": "bytes",
          "name": "_signature",
          "type": "bytes"
        }
      ],
      "name": "_getSigner",
      "outputs": [
        {
          "internalType": "address",
          "name": "",
          "type": "address"
        }
      ],
      "payable": false,
      "stateMutability": "pure",
      "type": "function"
    },
    {
      "constant": false,
      "inputs": [
        {
          "internalType": "bytes",
          "name": "_signature",
          "type": "bytes"
        },
        {
          "internalType": "uint256",
          "name": "_tokenId",
          "type": "uint256"
        },
        {
          "internalType": "uint256",
          "name": "_nonce",
          "type": "uint256"
        }
      ],
      "name": "metaClaimStamp",
      "outputs": [
        {
          "internalType": "bool",
          "name": "",
          "type": "bool"
        }
      ],
      "payable": false,
      "stateMutability": "nonpayable",
      "type": "function"
    },
    {
      "constant": true,
      "inputs": [
        {
          "internalType": "address",
          "name": "",
          "type": "address"
        }
      ],
      "name": "replayNonce",
      "outputs": [
        {
          "internalType": "uint256",
          "name": "",
          "type": "uint256"
        }
      ],
      "payable": false,
      "stateMutability": "view",
      "type": "function"
    },
    {
      "constant": true,
      "inputs": [],
      "name": "owner",
      "outputs": [
        {
          "internalType": "address",
          "name": "",
          "type": "address"
        }
      ],
      "payable": false,
      "stateMutability": "view",
      "type": "function"
    },
    {
      "constant": true,
      "inputs": [],
      "name": "stampCollectibleContract",
      "outputs": [
        {
          "internalType": "contract StampCollectible",
          "name": "",
          "type": "address"
        }
      ],
      "payable": false,
      "stateMutability": "view",
      "type": "function"
    },
    {
      "constant": false,
      "inputs": [
        {
          "internalType": "contract StampCollectible",
          "name": "_address",
          "type": "address"
        }
      ],
      "name": "initialize",
      "outputs": [],
      "payable": false,
      "stateMutability": "nonpayable",
      "type": "function"
    },
    {
      "constant": true,
      "inputs": [
        {
          "internalType": "address",
          "name": "_sender",
          "type": "address"
        },
        {
          "internalType": "uint256",
          "name": "_tokenId",
          "type": "uint256"
        },
        {
          "internalType": "uint256",
          "name": "_nonce",
          "type": "uint256"
        }
      ],
      "name": "getClaimStampHash",
      "outputs": [
        {
          "internalType": "bytes32",
          "name": "",
          "type": "bytes32"
        }
      ],
      "payable": false,
      "stateMutability": "pure",
      "type": "function"
    },
    {
      "payable": true,
      "stateMutability": "payable",
      "type": "fallback"
    }
  ],
  "bytecode": "0x60806040523480156100115760006000fd5b50610017565b611103806100266000396000f3fe60806040526004361061007f5760003560e01c80638da5cb5b1161004e5780638da5cb5b14610483578063b0d3b0b8146104db578063c4d66de814610533578063dcac3080146105865761007f565b806318f321a3146100e15780632d84c3e81461020057806347b48b7a1461031f57806367d407df1461041c5761007f565b5b603360009054906101000a900473ffffffffffffffffffffffffffffffffffffffff1673ffffffffffffffffffffffffffffffffffffffff163373ffffffffffffffffffffffffffffffffffffffff161415156100dd5760006000fd5b5b5b005b3480156100ee5760006000fd5b506101be600480360360408110156101065760006000fd5b810190808035600019169060200190929190803590602001906401000000008111156101325760006000fd5b8201836020820111156101455760006000fd5b803590602001918460018302840111640100000000831117156101685760006000fd5b91908080601f016020809104026020016040519081016040528093929190818152602001838380828437600081840152601f19601f82011690508083019250505050505050909091929090919290505050610609565b604051808273ffffffffffffffffffffffffffffffffffffffff1673ffffffffffffffffffffffffffffffffffffffff16815260200191505060405180910390f35b34801561020d5760006000fd5b506102dd600480360360408110156102255760006000fd5b810190808035600019169060200190929190803590602001906401000000008111156102515760006000fd5b8201836020820111156102645760006000fd5b803590602001918460018302840111640100000000831117156102875760006000fd5b91908080601f016020809104026020016040519081016040528093929190818152602001838380828437600081840152601f19601f82011690508083019250505050505050909091929090919290505050610643565b604051808273ffffffffffffffffffffffffffffffffffffffff1673ffffffffffffffffffffffffffffffffffffffff16815260200191505060405180910390f35b34801561032c5760006000fd5b50610402600480360360608110156103445760006000fd5b81019080803590602001906401000000008111156103625760006000fd5b8201836020820111156103755760006000fd5b803590602001918460018302840111640100000000831117156103985760006000fd5b91908080601f016020809104026020016040519081016040528093929190818152602001838380828437600081840152601f19601f8201169050808301925050505050505090909192909091929080359060200190929190803590602001909291905050506107a9565b604051808215151515815260200191505060405180910390f35b3480156104295760006000fd5b5061046d600480360360208110156104415760006000fd5b81019080803573ffffffffffffffffffffffffffffffffffffffff169060200190929190505050610c68565b6040518082815260200191505060405180910390f35b3480156104905760006000fd5b50610499610c83565b604051808273ffffffffffffffffffffffffffffffffffffffff1673ffffffffffffffffffffffffffffffffffffffff16815260200191505060405180910390f35b3480156104e85760006000fd5b506104f1610ca9565b604051808273ffffffffffffffffffffffffffffffffffffffff1673ffffffffffffffffffffffffffffffffffffffff16815260200191505060405180910390f35b3480156105405760006000fd5b50610584600480360360208110156105585760006000fd5b81019080803573ffffffffffffffffffffffffffffffffffffffff169060200190929190505050610ccf565b005b3480156105935760006000fd5b506105eb600480360360608110156105ab5760006000fd5b81019080803573ffffffffffffffffffffffffffffffffffffffff1690602001909291908035906020019092919080359060200190929190505050610e5f565b60405180826000191660001916815260200191505060405180910390f35b6000610636826106248560001916610ed5909063ffffffff16565b60001916610f3d90919063ffffffff16565b905061063d565b92915050565b60006000600060006041855114151561066257600093505050506107a3565b6020850151925060408501519150606085015160001a9050601b8160ff16101561068f57601b8101905080505b601b8160ff16141580156106a75750601c8160ff1614155b156106bc57600093505050506107a35661079f565b60018660405160200180807f19457468657265756d205369676e6564204d6573736167653a0a333200000000815260200150601c01826000191660001916815260200191505060405160208183030381529060405280519060200120828585604051600081526020016040526040518085600019166000191681526020018460ff1660ff168152602001836000191660001916815260200182600019166000191681526020019450505050506020604051602081039080840390855afa15801561078b573d600060003e3d6000fd5b5050506020604051035193505050506107a3565b5050505b92915050565b6000603360009054906101000a900473ffffffffffffffffffffffffffffffffffffffff1673ffffffffffffffffffffffffffffffffffffffff163373ffffffffffffffffffffffffffffffffffffffff161415156108085760006000fd5b600061081b308585610e5f63ffffffff16565b9050600061082f828761060963ffffffff16565b9050600073ffffffffffffffffffffffffffffffffffffffff168173ffffffffffffffffffffffffffffffffffffffff16141515156108b9576040517f08c379a00000000000000000000000000000000000000000000000000000000081526004018080602001828103825260248152602001806110ab6024913960400191505060405180910390fd5b603560005060008273ffffffffffffffffffffffffffffffffffffffff1673ffffffffffffffffffffffffffffffffffffffff1681526020019081526020016000206000505484141515610978576040517f08c379a00000000000000000000000000000000000000000000000000000000081526004018080602001828103825260128152602001807f4572726f7220696e20746865206e6f6e6365000000000000000000000000000081526020015060200191505060405180910390fd5b603560005060008273ffffffffffffffffffffffffffffffffffffffff1673ffffffffffffffffffffffffffffffffffffffff16815260200190815260200160002060008181505480929190600101919050909055506000603460009054906101000a900473ffffffffffffffffffffffffffffffffffffffff1673ffffffffffffffffffffffffffffffffffffffff1663ccd68f3b876040518263ffffffff1660e01b81526004018082815260200191505060806040518083038186803b158015610a445760006000fd5b505afa158015610a59573d600060003e3d6000fd5b505050506040513d6080811015610a705760006000fd5b810190808051906020019092919080519060200190929190805190602001909291908051906020019092919050505050505090506000603460009054906101000a900473ffffffffffffffffffffffffffffffffffffffff1673ffffffffffffffffffffffffffffffffffffffff16828489604051602401808373ffffffffffffffffffffffffffffffffffffffff1673ffffffffffffffffffffffffffffffffffffffff168152602001828152602001925050506040516020818303038152906040527f9925856e000000000000000000000000000000000000000000000000000000007bffffffffffffffffffffffffffffffffffffffffffffffffffffffff19166020820180517bffffffffffffffffffffffffffffffffffffffffffffffffffffffff83818316178352505050506040518082805190602001908083835b602083101515610bd857805182525b602082019150602081019050602083039250610bb2565b6001836020036101000a03801982511681845116808217855250505050505090500191505060006040518083038185875af1925050503d8060008114610c3a576040519150601f19603f3d011682016040523d82523d6000602084013e610c3f565b606091505b50509050801515610c505760006000fd5b80945050505050610c6056505050505b5b9392505050565b60356000506020528060005260406000206000915090505481565b603360009054906101000a900473ffffffffffffffffffffffffffffffffffffffff1681565b603460009054906101000a900473ffffffffffffffffffffffffffffffffffffffff1681565b600060019054906101000a900460ff1680610cf45750610cf361106463ffffffff16565b5b80610d0c5750600060009054906101000a900460ff16155b1515610d63576040517f08c379a000000000000000000000000000000000000000000000000000000000815260040180806020018281038252602e81526020018061107d602e913960400191505060405180910390fd5b6000600060019054906101000a900460ff161590508015610db5576001600060016101000a81548160ff0219169083151502179055506001600060006101000a81548160ff0219169083151502179055505b33603360006101000a81548173ffffffffffffffffffffffffffffffffffffffff021916908373ffffffffffffffffffffffffffffffffffffffff16021790555081603460006101000a81548173ffffffffffffffffffffffffffffffffffffffff021916908373ffffffffffffffffffffffffffffffffffffffff1602179055505b8015610e5a576000600060016101000a81548160ff0219169083151502179055505b505b50565b6000838383604051602001808473ffffffffffffffffffffffffffffffffffffffff1673ffffffffffffffffffffffffffffffffffffffff1660601b81526014018381526020018281526020019350505050604051602081830303815290604052805190602001209050610ece565b9392505050565b60008160405160200180807f19457468657265756d205369676e6564204d6573736167653a0a333200000000815260200150601c018260001916600019168152602001915050604051602081830303815290604052805190602001209050610f38565b919050565b600060418251141515610f53576000905061105e565b6000600060006020850151925060408501519150606085015160001a90507f7fffffffffffffffffffffffffffffff5d576e7357a4501ddfe92f46681b20a08260001c1115610fa8576000935050505061105e565b601b8160ff1614158015610fc05750601c8160ff1614155b15610fd1576000935050505061105e565b600186828585604051600081526020016040526040518085600019166000191681526020018460ff1660ff168152602001836000191660001916815260200182600019166000191681526020019450505050506020604051602081039080840390855afa158015611047573d600060003e3d6000fd5b50505060206040510351935050505061105e565050505b92915050565b60006000303b90506000811491505061107956505b9056fe436f6e747261637420696e7374616e63652068617320616c7265616479206265656e20696e697469616c697a65644d65737361676520776173206e6f74207369676e656420627920616e206163636f756e74a265627a7a72315820c3dcb8ba3361f11b645dea47467d0d4a6000370dec9f1e4ce2b9eba222c189dd64736f6c634300050b0032",
  "compiler": {
    "name": "solc",
    "version": "0.5.11+commit.c082d0b4.Emscripten.clang",
    "optimizer": {},
    "evmVersion": "constantinople"
  }
}