{
  "contractName": "ERC721MetadataMintable",
  "abi": [
    {
      "constant": true,
      "inputs": [
        {
          "name": "interfaceId",
          "type": "bytes4"
        }
      ],
      "name": "supportsInterface",
      "outputs": [
        {
          "name": "",
          "type": "bool"
        }
      ],
      "payable": false,
      "stateMutability": "view",
      "type": "function"
    },
    {
      "constant": true,
      "inputs": [],
      "name": "name",
      "outputs": [
        {
          "name": "",
          "type": "string"
        }
      ],
      "payable": false,
      "stateMutability": "view",
      "type": "function"
    },
    {
      "constant": true,
      "inputs": [
        {
          "name": "tokenId",
          "type": "uint256"
        }
      ],
      "name": "getApproved",
      "outputs": [
        {
          "name": "",
          "type": "address"
        }
      ],
      "payable": false,
      "stateMutability": "view",
      "type": "function"
    },
    {
      "constant": false,
      "inputs": [
        {
          "name": "to",
          "type": "address"
        },
        {
          "name": "tokenId",
          "type": "uint256"
        }
      ],
      "name": "approve",
      "outputs": [],
      "payable": false,
      "stateMutability": "nonpayable",
      "type": "function"
    },
    {
      "constant": false,
      "inputs": [
        {
          "name": "from",
          "type": "address"
        },
        {
          "name": "to",
          "type": "address"
        },
        {
          "name": "tokenId",
          "type": "uint256"
        }
      ],
      "name": "transferFrom",
      "outputs": [],
      "payable": false,
      "stateMutability": "nonpayable",
      "type": "function"
    },
    {
      "constant": false,
      "inputs": [
        {
          "name": "from",
          "type": "address"
        },
        {
          "name": "to",
          "type": "address"
        },
        {
          "name": "tokenId",
          "type": "uint256"
        }
      ],
      "name": "safeTransferFrom",
      "outputs": [],
      "payable": false,
      "stateMutability": "nonpayable",
      "type": "function"
    },
    {
      "constant": true,
      "inputs": [
        {
          "name": "tokenId",
          "type": "uint256"
        }
      ],
      "name": "ownerOf",
      "outputs": [
        {
          "name": "",
          "type": "address"
        }
      ],
      "payable": false,
      "stateMutability": "view",
      "type": "function"
    },
    {
      "constant": true,
      "inputs": [
        {
          "name": "owner",
          "type": "address"
        }
      ],
      "name": "balanceOf",
      "outputs": [
        {
          "name": "",
          "type": "uint256"
        }
      ],
      "payable": false,
      "stateMutability": "view",
      "type": "function"
    },
    {
      "constant": true,
      "inputs": [],
      "name": "symbol",
      "outputs": [
        {
          "name": "",
          "type": "string"
        }
      ],
      "payable": false,
      "stateMutability": "view",
      "type": "function"
    },
    {
      "constant": false,
      "inputs": [
        {
          "name": "account",
          "type": "address"
        }
      ],
      "name": "addMinter",
      "outputs": [],
      "payable": false,
      "stateMutability": "nonpayable",
      "type": "function"
    },
    {
      "constant": false,
      "inputs": [],
      "name": "renounceMinter",
      "outputs": [],
      "payable": false,
      "stateMutability": "nonpayable",
      "type": "function"
    },
    {
      "constant": false,
      "inputs": [
        {
          "name": "to",
          "type": "address"
        },
        {
          "name": "approved",
          "type": "bool"
        }
      ],
      "name": "setApprovalForAll",
      "outputs": [],
      "payable": false,
      "stateMutability": "nonpayable",
      "type": "function"
    },
    {
      "constant": true,
      "inputs": [
        {
          "name": "account",
          "type": "address"
        }
      ],
      "name": "isMinter",
      "outputs": [
        {
          "name": "",
          "type": "bool"
        }
      ],
      "payable": false,
      "stateMutability": "view",
      "type": "function"
    },
    {
      "constant": false,
      "inputs": [
        {
          "name": "from",
          "type": "address"
        },
        {
          "name": "to",
          "type": "address"
        },
        {
          "name": "tokenId",
          "type": "uint256"
        },
        {
          "name": "_data",
          "type": "bytes"
        }
      ],
      "name": "safeTransferFrom",
      "outputs": [],
      "payable": false,
      "stateMutability": "nonpayable",
      "type": "function"
    },
    {
      "constant": true,
      "inputs": [
        {
          "name": "tokenId",
          "type": "uint256"
        }
      ],
      "name": "tokenURI",
      "outputs": [
        {
          "name": "",
          "type": "string"
        }
      ],
      "payable": false,
      "stateMutability": "view",
      "type": "function"
    },
    {
      "constant": true,
      "inputs": [
        {
          "name": "owner",
          "type": "address"
        },
        {
          "name": "operator",
          "type": "address"
        }
      ],
      "name": "isApprovedForAll",
      "outputs": [
        {
          "name": "",
          "type": "bool"
        }
      ],
      "payable": false,
      "stateMutability": "view",
      "type": "function"
    },
    {
      "anonymous": false,
      "inputs": [
        {
          "indexed": true,
          "name": "account",
          "type": "address"
        }
      ],
      "name": "MinterAdded",
      "type": "event"
    },
    {
      "anonymous": false,
      "inputs": [
        {
          "indexed": true,
          "name": "account",
          "type": "address"
        }
      ],
      "name": "MinterRemoved",
      "type": "event"
    },
    {
      "anonymous": false,
      "inputs": [
        {
          "indexed": true,
          "name": "from",
          "type": "address"
        },
        {
          "indexed": true,
          "name": "to",
          "type": "address"
        },
        {
          "indexed": true,
          "name": "tokenId",
          "type": "uint256"
        }
      ],
      "name": "Transfer",
      "type": "event"
    },
    {
      "anonymous": false,
      "inputs": [
        {
          "indexed": true,
          "name": "owner",
          "type": "address"
        },
        {
          "indexed": true,
          "name": "approved",
          "type": "address"
        },
        {
          "indexed": true,
          "name": "tokenId",
          "type": "uint256"
        }
      ],
      "name": "Approval",
      "type": "event"
    },
    {
      "anonymous": false,
      "inputs": [
        {
          "indexed": true,
          "name": "owner",
          "type": "address"
        },
        {
          "indexed": true,
          "name": "operator",
          "type": "address"
        },
        {
          "indexed": false,
          "name": "approved",
          "type": "bool"
        }
      ],
      "name": "ApprovalForAll",
      "type": "event"
    },
    {
      "constant": false,
      "inputs": [
        {
          "name": "name",
          "type": "string"
        },
        {
          "name": "symbol",
          "type": "string"
        }
      ],
      "name": "initialize",
      "outputs": [],
      "payable": false,
      "stateMutability": "nonpayable",
      "type": "function"
    },
    {
      "constant": false,
      "inputs": [],
      "name": "initialize",
      "outputs": [],
      "payable": false,
      "stateMutability": "nonpayable",
      "type": "function"
    },
    {
      "constant": false,
      "inputs": [
        {
          "name": "sender",
          "type": "address"
        }
      ],
      "name": "initialize",
      "outputs": [],
      "payable": false,
      "stateMutability": "nonpayable",
      "type": "function"
    },
    {
      "constant": false,
      "inputs": [
        {
          "name": "to",
          "type": "address"
        },
        {
          "name": "tokenId",
          "type": "uint256"
        },
        {
          "name": "tokenURI",
          "type": "string"
        }
      ],
      "name": "mintWithTokenURI",
      "outputs": [
        {
          "name": "",
          "type": "bool"
        }
      ],
      "payable": false,
      "stateMutability": "nonpayable",
      "type": "function"
    }
  ],
  "bytecode": "0x608060405234801561001057600080fd5b506115d7806100206000396000f3fe608060405234801561001057600080fd5b506004361061012c5760003560e01c80638129fc1c116100ad578063aa271e1a11610071578063aa271e1a1461055f578063b88d4fde14610585578063c4d66de814610649578063c87b56dd1461066f578063e985e9c51461068c5761012c565b80638129fc1c146104f357806395d89b41146104fb578063983b2d56146105035780639865027514610529578063a22cb465146105315761012c565b806342842e0e116100f457806342842e0e146102865780634cd88b76146102bc57806350bb4e7f146103e55780636352211e1461049e57806370a08231146104bb5761012c565b806301ffc9a71461013157806306fdde031461016c578063081812fc146101e9578063095ea7b31461022257806323b872dd14610250575b600080fd5b6101586004803603602081101561014757600080fd5b50356001600160e01b0319166106ba565b604080519115158252519081900360200190f35b6101746106d9565b6040805160208082528351818301528351919283929083019185019080838360005b838110156101ae578181015183820152602001610196565b50505050905090810190601f1680156101db5780820380516001836020036101000a031916815260200191505b509250505060405180910390f35b610206600480360360208110156101ff57600080fd5b5035610770565b604080516001600160a01b039092168252519081900360200190f35b61024e6004803603604081101561023857600080fd5b506001600160a01b0381351690602001356107a2565b005b61024e6004803603606081101561026657600080fd5b506001600160a01b0381358116916020810135909116906040013561084b565b61024e6004803603606081101561029c57600080fd5b506001600160a01b03813581169160208101359091169060400135610870565b61024e600480360360408110156102d257600080fd5b810190602081018135600160201b8111156102ec57600080fd5b8201836020820111156102fe57600080fd5b803590602001918460018302840111600160201b8311171561031f57600080fd5b91908080601f0160208091040260200160405190810160405280939291908181526020018383808284376000920191909152509295949360208101935035915050600160201b81111561037157600080fd5b82018360208201111561038357600080fd5b803590602001918460018302840111600160201b831117156103a457600080fd5b91908080601f01602080910402602001604051908101604052809392919081815260200183838082843760009201919091525092955061088b945050505050565b610158600480360360608110156103fb57600080fd5b6001600160a01b0382351691602081013591810190606081016040820135600160201b81111561042a57600080fd5b82018360208201111561043c57600080fd5b803590602001918460018302840111600160201b8311171561045d57600080fd5b91908080601f016020809104026020016040519081016040528093929190818152602001838380828437600092019190915250929550610981945050505050565b610206600480360360208110156104b457600080fd5b50356109b5565b6104e1600480360360208110156104d157600080fd5b50356001600160a01b03166109df565b60408051918252519081900360200190f35b61024e610a17565b610174610ad9565b61024e6004803603602081101561051957600080fd5b50356001600160a01b0316610b3a565b61024e610b57565b61024e6004803603604081101561054757600080fd5b506001600160a01b0381351690602001351515610b62565b6101586004803603602081101561057557600080fd5b50356001600160a01b0316610be6565b61024e6004803603608081101561059b57600080fd5b6001600160a01b03823581169260208101359091169160408201359190810190608081016060820135600160201b8111156105d557600080fd5b8201836020820111156105e757600080fd5b803590602001918460018302840111600160201b8311171561060857600080fd5b91908080601f016020809104026020016040519081016040528093929190818152602001838380828437600092019190915250929550610bf9945050505050565b61024e6004803603602081101561065f57600080fd5b50356001600160a01b0316610c21565b6101746004803603602081101561068557600080fd5b5035610cf8565b610158600480360360408110156106a257600080fd5b506001600160a01b0381358116916020013516610dad565b6001600160e01b03191660009081526033602052604090205460ff1690565b609c8054604080516020601f60026000196101006001881615020190951694909404938401819004810282018101909252828152606093909290918301828280156107655780601f1061073a57610100808354040283529160200191610765565b820191906000526020600020905b81548152906001019060200180831161074857829003601f168201915b505050505090505b90565b600061077b82610ddb565b151561078657600080fd5b506000908152606760205260409020546001600160a01b031690565b60006107ad826109b5565b90506001600160a01b0383811690821614156107c857600080fd5b336001600160a01b03821614806107e457506107e48133610dad565b15156107ef57600080fd5b60008281526067602052604080822080546001600160a01b0319166001600160a01b0387811691821790925591518593918516917f8c5be1e5ebec7d5bd14f71427d1e84f3dd0314c0f7b2291e5b200ac8c7c3b92591a4505050565b6108553382610df8565b151561086057600080fd5b61086b838383610e57565b505050565b61086b83838360405180602001604052806000815250610bf9565b600054610100900460ff16806108a457506108a4610f39565b806108b2575060005460ff16155b15156108f257604051600160e51b62461bcd02815260040180806020018281038252602e81526020018061157e602e913960400191505060405180910390fd5b600054610100900460ff1615801561091d576000805460ff1961ff0019909116610100171660011790555b610925610f3f565b151561093057600080fd5b825161094390609c9060208601906114e5565b50815161095790609d9060208501906114e5565b5061096b600160e01b635b5e139f02610f59565b801561086b576000805461ff0019169055505050565b600061098c33610be6565b151561099757600080fd5b6109a18484610f95565b6109ab8383611038565b5060019392505050565b6000818152606660205260408120546001600160a01b03168015156109d957600080fd5b92915050565b60006001600160a01b03821615156109f657600080fd5b6001600160a01b03821660009081526068602052604090206109d99061106b565b600054610100900460ff1680610a305750610a30610f39565b80610a3e575060005460ff16155b1515610a7e57604051600160e51b62461bcd02815260040180806020018281038252602e81526020018061157e602e913960400191505060405180910390fd5b600054610100900460ff16158015610aa9576000805460ff1961ff0019909116610100171660011790555b610ab161106f565b610ac4600160e01b6380ac58cd02610f59565b8015610ad6576000805461ff00191690555b50565b609d8054604080516020601f60026000196101006001881615020190951694909404938401819004810282018101909252828152606093909290918301828280156107655780601f1061073a57610100808354040283529160200191610765565b610b4333610be6565b1515610b4e57600080fd5b610ad681611114565b610b603361115c565b565b6001600160a01b038216331415610b7857600080fd5b3360008181526069602090815260408083206001600160a01b03871680855290835292819020805460ff1916861515908117909155815190815290519293927f17307eab39ab6107e8899845ad3d59bd9653f200f220920489ca2b5937696c31929181900390910190a35050565b60006109d960d18363ffffffff6111a416565b610c0484848461084b565b610c10848484846111db565b1515610c1b57600080fd5b50505050565b600054610100900460ff1680610c3a5750610c3a610f39565b80610c48575060005460ff16155b1515610c8857604051600160e51b62461bcd02815260040180806020018281038252602e81526020018061157e602e913960400191505060405180910390fd5b600054610100900460ff16158015610cb3576000805460ff1961ff0019909116610100171660011790555b610cbb610f3f565b1515610cc657600080fd5b610cce611316565b1515610cd957600080fd5b610ce28261132b565b8015610cf4576000805461ff00191690555b5050565b6060610d0382610ddb565b1515610d0e57600080fd5b6000828152609e602090815260409182902080548351601f600260001961010060018616150201909316929092049182018490048402810184019094528084529091830182828015610da15780601f10610d7657610100808354040283529160200191610da1565b820191906000526020600020905b815481529060010190602001808311610d8457829003601f168201915b50505050509050919050565b6001600160a01b03918216600090815260696020908152604080832093909416825291909152205460ff1690565b6000908152606660205260409020546001600160a01b0316151590565b600080610e04836109b5565b9050806001600160a01b0316846001600160a01b03161480610e3f5750836001600160a01b0316610e3484610770565b6001600160a01b0316145b80610e4f5750610e4f8185610dad565b949350505050565b826001600160a01b0316610e6a826109b5565b6001600160a01b031614610e7d57600080fd5b6001600160a01b0382161515610e9257600080fd5b610e9b816113d5565b6001600160a01b0383166000908152606860205260409020610ebc90611410565b6001600160a01b0382166000908152606860205260409020610edd90611427565b60008181526066602052604080822080546001600160a01b0319166001600160a01b0386811691821790925591518493918716917fddf252ad1be2c89b69c2b068fc378daa952ba7f163c4a11628f55a4df523b3ef91a4505050565b303b1590565b6000610f54600160e01b6380ac58cd026106ba565b905090565b6001600160e01b03198082161415610f7057600080fd5b6001600160e01b0319166000908152603360205260409020805460ff19166001179055565b6001600160a01b0382161515610faa57600080fd5b610fb381610ddb565b15610fbd57600080fd5b600081815260666020908152604080832080546001600160a01b0319166001600160a01b038716908117909155835260689091529020610ffc90611427565b60405181906001600160a01b038416906000907fddf252ad1be2c89b69c2b068fc378daa952ba7f163c4a11628f55a4df523b3ef908290a45050565b61104182610ddb565b151561104c57600080fd5b6000828152609e60209081526040909120825161086b928401906114e5565b5490565b600054610100900460ff16806110885750611088610f39565b80611096575060005460ff16155b15156110d657604051600160e51b62461bcd02815260040180806020018281038252602e81526020018061157e602e913960400191505060405180910390fd5b600054610100900460ff16158015611101576000805460ff1961ff0019909116610100171660011790555b610ac4600160e01b6301ffc9a702610f59565b61112560d18263ffffffff61143016565b6040516001600160a01b038216907f6ae172837ea30b801fbfcdd4108aa1d5bf8ff775444fd70256b44e6bf3dfc3f690600090a250565b61116d60d18263ffffffff61147e16565b6040516001600160a01b038216907fe94479a9f7e1952cc78f2d6baab678adc1b772d936c6583def489e524cb6669290600090a250565b60006001600160a01b03821615156111bb57600080fd5b506001600160a01b03166000908152602091909152604090205460ff1690565b60006111ef846001600160a01b03166114ca565b15156111fd57506001610e4f565b604051600160e11b630a85bd0102815233600482018181526001600160a01b03888116602485015260448401879052608060648501908152865160848601528651600095928a169463150b7a029490938c938b938b939260a4019060208501908083838e5b8381101561127a578181015183820152602001611262565b50505050905090810190601f1680156112a75780820380516001836020036101000a031916815260200191505b5095505050505050602060405180830381600087803b1580156112c957600080fd5b505af11580156112dd573d6000803e3d6000fd5b505050506040513d60208110156112f357600080fd5b50516001600160e01b031916600160e11b630a85bd010214915050949350505050565b6000610f54600160e01b635b5e139f026106ba565b600054610100900460ff16806113445750611344610f39565b80611352575060005460ff16155b151561139257604051600160e51b62461bcd02815260040180806020018281038252602e81526020018061157e602e913960400191505060405180910390fd5b600054610100900460ff161580156113bd576000805460ff1961ff0019909116610100171660011790555b6113c682610be6565b1515610ce257610ce282611114565b6000818152606760205260409020546001600160a01b031615610ad657600090815260676020526040902080546001600160a01b0319169055565b805461142390600163ffffffff6114d016565b9055565b80546001019055565b6001600160a01b038116151561144557600080fd5b61144f82826111a4565b1561145957600080fd5b6001600160a01b0316600090815260209190915260409020805460ff19166001179055565b6001600160a01b038116151561149357600080fd5b61149d82826111a4565b15156114a857600080fd5b6001600160a01b0316600090815260209190915260409020805460ff19169055565b3b151590565b6000828211156114df57600080fd5b50900390565b828054600181600116156101000203166002900490600052602060002090601f016020900481019282601f1061152657805160ff1916838001178555611553565b82800160010185558215611553579182015b82811115611553578251825591602001919060010190611538565b5061155f929150611563565b5090565b61076d91905b8082111561155f576000815560010161156956fe436f6e747261637420696e7374616e63652068617320616c7265616479206265656e20696e697469616c697a6564a165627a7a723058207caf3785f16208c64dd9f48f7e3b76de282c78e713cad14e453b4a329386b2e80029",
  "source": "pragma solidity ^0.5.2;\n\nimport \"@openzeppelin/upgrades/contracts/Initializable.sol\";\nimport \"./ERC721Metadata.sol\";\nimport \"../../access/roles/MinterRole.sol\";\n\n\n/**\n * @title ERC721MetadataMintable\n * @dev ERC721 minting logic with metadata\n */\ncontract ERC721MetadataMintable is Initializable, ERC721, ERC721Metadata, MinterRole {\n    function initialize(address sender) public initializer {\n        require(ERC721._hasBeenInitialized());\n        require(ERC721Metadata._hasBeenInitialized());\n        MinterRole.initialize(sender);\n    }\n\n    /**\n     * @dev Function to mint tokens\n     * @param to The address that will receive the minted tokens.\n     * @param tokenId The token id to mint.\n     * @param tokenURI The token URI of the minted token.\n     * @return A boolean that indicates if the operation was successful.\n     */\n    function mintWithTokenURI(address to, uint256 tokenId, string memory tokenURI) public onlyMinter returns (bool) {\n        _mint(to, tokenId);\n        _setTokenURI(tokenId, tokenURI);\n        return true;\n    }\n\n    uint256[50] private ______gap;\n}\n",
  "sourcePath": "@openzeppelin/contracts-ethereum-package/contracts/token/ERC721/ERC721MetadataMintable.sol",
  "compiler": {
    "name": "solc",
    "version": "0.5.5+commit.47a71e8f.Emscripten.clang"
  },
  "schemaVersion": "3.0.11",
  "updatedAt": "2019-08-14T05:28:21.019Z",
  "devdoc": {
    "details": "ERC721 minting logic with metadata",
    "methods": {
      "approve(address,uint256)": {
        "details": "Approves another address to transfer the given token ID The zero address indicates there is no approved address. There can only be one approved address per token at a given time. Can only be called by the token owner or an approved operator.",
        "params": {
          "to": "address to be approved for the given token ID",
          "tokenId": "uint256 ID of the token to be approved"
        }
      },
      "balanceOf(address)": {
        "details": "Gets the balance of the specified address",
        "params": {
          "owner": "address to query the balance of"
        },
        "return": "uint256 representing the amount owned by the passed address"
      },
      "getApproved(uint256)": {
        "details": "Gets the approved address for a token ID, or zero if no address set Reverts if the token ID does not exist.",
        "params": {
          "tokenId": "uint256 ID of the token to query the approval of"
        },
        "return": "address currently approved for the given token ID"
      },
      "initialize(string,string)": {
        "details": "Constructor function"
      },
      "isApprovedForAll(address,address)": {
        "details": "Tells whether an operator is approved by a given owner",
        "params": {
          "operator": "operator address which you want to query the approval of",
          "owner": "owner address which you want to query the approval of"
        },
        "return": "bool whether the given operator is approved by the given owner"
      },
      "mintWithTokenURI(address,uint256,string)": {
        "details": "Function to mint tokens",
        "params": {
          "to": "The address that will receive the minted tokens.",
          "tokenId": "The token id to mint.",
          "tokenURI": "The token URI of the minted token."
        },
        "return": "A boolean that indicates if the operation was successful."
      },
      "name()": {
        "details": "Gets the token name",
        "return": "string representing the token name"
      },
      "ownerOf(uint256)": {
        "details": "Gets the owner of the specified token ID",
        "params": {
          "tokenId": "uint256 ID of the token to query the owner of"
        },
        "return": "address currently marked as the owner of the given token ID"
      },
      "safeTransferFrom(address,address,uint256)": {
        "details": "Safely transfers the ownership of a given token ID to another address If the target address is a contract, it must implement `onERC721Received`, which is called upon a safe transfer, and return the magic value `bytes4(keccak256(\"onERC721Received(address,address,uint256,bytes)\"))`; otherwise, the transfer is reverted. Requires the msg.sender to be the owner, approved, or operator",
        "params": {
          "from": "current owner of the token",
          "to": "address to receive the ownership of the given token ID",
          "tokenId": "uint256 ID of the token to be transferred"
        }
      },
      "safeTransferFrom(address,address,uint256,bytes)": {
        "details": "Safely transfers the ownership of a given token ID to another address If the target address is a contract, it must implement `onERC721Received`, which is called upon a safe transfer, and return the magic value `bytes4(keccak256(\"onERC721Received(address,address,uint256,bytes)\"))`; otherwise, the transfer is reverted. Requires the msg.sender to be the owner, approved, or operator",
        "params": {
          "_data": "bytes data to send along with a safe transfer check",
          "from": "current owner of the token",
          "to": "address to receive the ownership of the given token ID",
          "tokenId": "uint256 ID of the token to be transferred"
        }
      },
      "setApprovalForAll(address,bool)": {
        "details": "Sets or unsets the approval of a given operator An operator is allowed to transfer all tokens of the sender on their behalf",
        "params": {
          "approved": "representing the status of the approval to be set",
          "to": "operator address to set the approval"
        }
      },
      "supportsInterface(bytes4)": {
        "details": "implement supportsInterface(bytes4) using a lookup table"
      },
      "symbol()": {
        "details": "Gets the token symbol",
        "return": "string representing the token symbol"
      },
      "tokenURI(uint256)": {
        "details": "Returns an URI for a given token ID Throws if the token ID does not exist. May return an empty string.",
        "params": {
          "tokenId": "uint256 ID of the token to query"
        }
      },
      "transferFrom(address,address,uint256)": {
        "details": "Transfers the ownership of a given token ID to another address Usage of this method is discouraged, use `safeTransferFrom` whenever possible Requires the msg.sender to be the owner, approved, or operator",
        "params": {
          "from": "current owner of the token",
          "to": "address to receive the ownership of the given token ID",
          "tokenId": "uint256 ID of the token to be transferred"
        }
      }
    },
    "title": "ERC721MetadataMintable"
  },
  "userdoc": {
    "methods": {}
  }
}