{
  "fileName": "ERC721MetadataMintable.sol",
  "contractName": "ERC721MetadataMintable",
  "source": "pragma solidity ^0.5.2;\n\nimport \"@openzeppelin/upgrades/contracts/Initializable.sol\";\nimport \"./ERC721Metadata.sol\";\nimport \"../../access/roles/MinterRole.sol\";\n\n\n/**\n * @title ERC721MetadataMintable\n * @dev ERC721 minting logic with metadata\n */\ncontract ERC721MetadataMintable is Initializable, ERC721, ERC721Metadata, MinterRole {\n    function initialize(address sender) public initializer {\n        require(ERC721._hasBeenInitialized());\n        require(ERC721Metadata._hasBeenInitialized());\n        MinterRole.initialize(sender);\n    }\n\n    /**\n     * @dev Function to mint tokens\n     * @param to The address that will receive the minted tokens.\n     * @param tokenId The token id to mint.\n     * @param tokenURI The token URI of the minted token.\n     * @return A boolean that indicates if the operation was successful.\n     */\n    function mintWithTokenURI(address to, uint256 tokenId, string memory tokenURI) public onlyMinter returns (bool) {\n        _mint(to, tokenId);\n        _setTokenURI(tokenId, tokenURI);\n        return true;\n    }\n\n    uint256[50] private ______gap;\n}\n",
  "sourcePath": "@openzeppelin/contracts-ethereum-package/contracts/token/ERC721/ERC721MetadataMintable.sol",
  "abi": [
    {
      "constant": true,
      "inputs": [
        {
          "internalType": "bytes4",
          "name": "interfaceId",
          "type": "bytes4"
        }
      ],
      "name": "supportsInterface",
      "outputs": [
        {
          "internalType": "bool",
          "name": "",
          "type": "bool"
        }
      ],
      "payable": false,
      "stateMutability": "view",
      "type": "function"
    },
    {
      "constant": true,
      "inputs": [],
      "name": "name",
      "outputs": [
        {
          "internalType": "string",
          "name": "",
          "type": "string"
        }
      ],
      "payable": false,
      "stateMutability": "view",
      "type": "function"
    },
    {
      "constant": true,
      "inputs": [
        {
          "internalType": "uint256",
          "name": "tokenId",
          "type": "uint256"
        }
      ],
      "name": "getApproved",
      "outputs": [
        {
          "internalType": "address",
          "name": "",
          "type": "address"
        }
      ],
      "payable": false,
      "stateMutability": "view",
      "type": "function"
    },
    {
      "constant": false,
      "inputs": [
        {
          "internalType": "address",
          "name": "to",
          "type": "address"
        },
        {
          "internalType": "uint256",
          "name": "tokenId",
          "type": "uint256"
        }
      ],
      "name": "approve",
      "outputs": [],
      "payable": false,
      "stateMutability": "nonpayable",
      "type": "function"
    },
    {
      "constant": false,
      "inputs": [
        {
          "internalType": "address",
          "name": "from",
          "type": "address"
        },
        {
          "internalType": "address",
          "name": "to",
          "type": "address"
        },
        {
          "internalType": "uint256",
          "name": "tokenId",
          "type": "uint256"
        }
      ],
      "name": "transferFrom",
      "outputs": [],
      "payable": false,
      "stateMutability": "nonpayable",
      "type": "function"
    },
    {
      "constant": false,
      "inputs": [
        {
          "internalType": "address",
          "name": "from",
          "type": "address"
        },
        {
          "internalType": "address",
          "name": "to",
          "type": "address"
        },
        {
          "internalType": "uint256",
          "name": "tokenId",
          "type": "uint256"
        }
      ],
      "name": "safeTransferFrom",
      "outputs": [],
      "payable": false,
      "stateMutability": "nonpayable",
      "type": "function"
    },
    {
      "constant": false,
      "inputs": [
        {
          "internalType": "string",
          "name": "name",
          "type": "string"
        },
        {
          "internalType": "string",
          "name": "symbol",
          "type": "string"
        }
      ],
      "name": "initialize",
      "outputs": [],
      "payable": false,
      "stateMutability": "nonpayable",
      "type": "function"
    },
    {
      "constant": false,
      "inputs": [
        {
          "internalType": "address",
          "name": "to",
          "type": "address"
        },
        {
          "internalType": "uint256",
          "name": "tokenId",
          "type": "uint256"
        },
        {
          "internalType": "string",
          "name": "tokenURI",
          "type": "string"
        }
      ],
      "name": "mintWithTokenURI",
      "outputs": [
        {
          "internalType": "bool",
          "name": "",
          "type": "bool"
        }
      ],
      "payable": false,
      "stateMutability": "nonpayable",
      "type": "function"
    },
    {
      "constant": true,
      "inputs": [
        {
          "internalType": "uint256",
          "name": "tokenId",
          "type": "uint256"
        }
      ],
      "name": "ownerOf",
      "outputs": [
        {
          "internalType": "address",
          "name": "",
          "type": "address"
        }
      ],
      "payable": false,
      "stateMutability": "view",
      "type": "function"
    },
    {
      "constant": true,
      "inputs": [
        {
          "internalType": "address",
          "name": "owner",
          "type": "address"
        }
      ],
      "name": "balanceOf",
      "outputs": [
        {
          "internalType": "uint256",
          "name": "",
          "type": "uint256"
        }
      ],
      "payable": false,
      "stateMutability": "view",
      "type": "function"
    },
    {
      "constant": false,
      "inputs": [],
      "name": "initialize",
      "outputs": [],
      "payable": false,
      "stateMutability": "nonpayable",
      "type": "function"
    },
    {
      "constant": true,
      "inputs": [],
      "name": "symbol",
      "outputs": [
        {
          "internalType": "string",
          "name": "",
          "type": "string"
        }
      ],
      "payable": false,
      "stateMutability": "view",
      "type": "function"
    },
    {
      "constant": false,
      "inputs": [
        {
          "internalType": "address",
          "name": "account",
          "type": "address"
        }
      ],
      "name": "addMinter",
      "outputs": [],
      "payable": false,
      "stateMutability": "nonpayable",
      "type": "function"
    },
    {
      "constant": false,
      "inputs": [],
      "name": "renounceMinter",
      "outputs": [],
      "payable": false,
      "stateMutability": "nonpayable",
      "type": "function"
    },
    {
      "constant": false,
      "inputs": [
        {
          "internalType": "address",
          "name": "to",
          "type": "address"
        },
        {
          "internalType": "bool",
          "name": "approved",
          "type": "bool"
        }
      ],
      "name": "setApprovalForAll",
      "outputs": [],
      "payable": false,
      "stateMutability": "nonpayable",
      "type": "function"
    },
    {
      "constant": true,
      "inputs": [
        {
          "internalType": "address",
          "name": "account",
          "type": "address"
        }
      ],
      "name": "isMinter",
      "outputs": [
        {
          "internalType": "bool",
          "name": "",
          "type": "bool"
        }
      ],
      "payable": false,
      "stateMutability": "view",
      "type": "function"
    },
    {
      "constant": false,
      "inputs": [
        {
          "internalType": "address",
          "name": "from",
          "type": "address"
        },
        {
          "internalType": "address",
          "name": "to",
          "type": "address"
        },
        {
          "internalType": "uint256",
          "name": "tokenId",
          "type": "uint256"
        },
        {
          "internalType": "bytes",
          "name": "_data",
          "type": "bytes"
        }
      ],
      "name": "safeTransferFrom",
      "outputs": [],
      "payable": false,
      "stateMutability": "nonpayable",
      "type": "function"
    },
    {
      "constant": false,
      "inputs": [
        {
          "internalType": "address",
          "name": "sender",
          "type": "address"
        }
      ],
      "name": "initialize",
      "outputs": [],
      "payable": false,
      "stateMutability": "nonpayable",
      "type": "function"
    },
    {
      "constant": true,
      "inputs": [
        {
          "internalType": "uint256",
          "name": "tokenId",
          "type": "uint256"
        }
      ],
      "name": "tokenURI",
      "outputs": [
        {
          "internalType": "string",
          "name": "",
          "type": "string"
        }
      ],
      "payable": false,
      "stateMutability": "view",
      "type": "function"
    },
    {
      "constant": true,
      "inputs": [
        {
          "internalType": "address",
          "name": "owner",
          "type": "address"
        },
        {
          "internalType": "address",
          "name": "operator",
          "type": "address"
        }
      ],
      "name": "isApprovedForAll",
      "outputs": [
        {
          "internalType": "bool",
          "name": "",
          "type": "bool"
        }
      ],
      "payable": false,
      "stateMutability": "view",
      "type": "function"
    },
    {
      "anonymous": false,
      "inputs": [
        {
          "indexed": true,
          "internalType": "address",
          "name": "account",
          "type": "address"
        }
      ],
      "name": "MinterAdded",
      "type": "event"
    },
    {
      "anonymous": false,
      "inputs": [
        {
          "indexed": true,
          "internalType": "address",
          "name": "account",
          "type": "address"
        }
      ],
      "name": "MinterRemoved",
      "type": "event"
    },
    {
      "anonymous": false,
      "inputs": [
        {
          "indexed": true,
          "internalType": "address",
          "name": "from",
          "type": "address"
        },
        {
          "indexed": true,
          "internalType": "address",
          "name": "to",
          "type": "address"
        },
        {
          "indexed": true,
          "internalType": "uint256",
          "name": "tokenId",
          "type": "uint256"
        }
      ],
      "name": "Transfer",
      "type": "event"
    },
    {
      "anonymous": false,
      "inputs": [
        {
          "indexed": true,
          "internalType": "address",
          "name": "owner",
          "type": "address"
        },
        {
          "indexed": true,
          "internalType": "address",
          "name": "approved",
          "type": "address"
        },
        {
          "indexed": true,
          "internalType": "uint256",
          "name": "tokenId",
          "type": "uint256"
        }
      ],
      "name": "Approval",
      "type": "event"
    },
    {
      "anonymous": false,
      "inputs": [
        {
          "indexed": true,
          "internalType": "address",
          "name": "owner",
          "type": "address"
        },
        {
          "indexed": true,
          "internalType": "address",
          "name": "operator",
          "type": "address"
        },
        {
          "indexed": false,
          "internalType": "bool",
          "name": "approved",
          "type": "bool"
        }
      ],
      "name": "ApprovalForAll",
      "type": "event"
    }
  ],
  "bytecode": "0x60806040523480156100115760006000fd5b50610017565b6126fd806100266000396000f3fe60806040523480156100115760006000fd5b50600436106101315760003560e01c80638129fc1c116100ae578063aa271e1a11610072578063aa271e1a14610819578063b88d4fde14610876578063c4d66de814610983578063c87b56dd146109c8578063e985e9c514610a7157610131565b80638129fc1c146106eb57806395d89b41146106f5578063983b2d561461077957806398650275146107be578063a22cb465146107c857610131565b806342842e0e116100f557806342842e0e1461034e5780634cd88b76146103bd57806350bb4e7f1461051e5780636352211e1461062357806370a082311461069257610131565b806301ffc9a71461013757806306fdde031461019d578063081812fc14610221578063095ea7b31461029057806323b872dd146102df57610131565b60006000fd5b6101836004803603602081101561014e5760006000fd5b8101908080357bffffffffffffffffffffffffffffffffffffffffffffffffffffffff19169060200190929190505050610aee565b604051808215151515815260200191505060405180910390f35b6101a5610b5e565b6040518080602001828103825283818151815260200191508051906020019080838360005b838110156101e65780820151818401525b6020810190506101ca565b50505050905090810190601f1680156102135780820380516001836020036101000a031916815260200191505b509250505060405180910390f35b61024e600480360360208110156102385760006000fd5b8101908080359060200190929190505050610c08565b604051808273ffffffffffffffffffffffffffffffffffffffff1673ffffffffffffffffffffffffffffffffffffffff16815260200191505060405180910390f35b6102dd600480360360408110156102a75760006000fd5b81019080803573ffffffffffffffffffffffffffffffffffffffff16906020019092919080359060200190929190505050610c68565b005b61034c600480360360608110156102f65760006000fd5b81019080803573ffffffffffffffffffffffffffffffffffffffff169060200190929190803573ffffffffffffffffffffffffffffffffffffffff16906020019092919080359060200190929190505050610dbf565b005b6103bb600480360360608110156103655760006000fd5b81019080803573ffffffffffffffffffffffffffffffffffffffff169060200190929190803573ffffffffffffffffffffffffffffffffffffffff16906020019092919080359060200190929190505050610df2565b005b61051c600480360360408110156103d45760006000fd5b81019080803590602001906401000000008111156103f25760006000fd5b8201836020820111156104055760006000fd5b803590602001918460018302840111640100000000831117156104285760006000fd5b91908080601f016020809104026020016040519081016040528093929190818152602001838380828437600081840152601f19601f82011690508083019250505050505050909091929090919290803590602001906401000000008111156104905760006000fd5b8201836020820111156104a35760006000fd5b803590602001918460018302840111640100000000831117156104c65760006000fd5b91908080601f016020809104026020016040519081016040528093929190818152602001838380828437600081840152601f19601f82011690508083019250505050505050909091929090919290505050610e1c565b005b610609600480360360608110156105355760006000fd5b81019080803573ffffffffffffffffffffffffffffffffffffffff169060200190929190803590602001909291908035906020019064010000000081111561057d5760006000fd5b8201836020820111156105905760006000fd5b803590602001918460018302840111640100000000831117156105b35760006000fd5b91908080601f016020809104026020016040519081016040528093929190818152602001838380828437600081840152601f19601f82011690508083019250505050505050909091929090919290505050610f8f565b604051808215151515815260200191505060405180910390f35b6106506004803603602081101561063a5760006000fd5b8101908080359060200190929190505050610fdd565b604051808273ffffffffffffffffffffffffffffffffffffffff1673ffffffffffffffffffffffffffffffffffffffff16815260200191505060405180910390f35b6106d5600480360360208110156106a95760006000fd5b81019080803573ffffffffffffffffffffffffffffffffffffffff169060200190929190505050611066565b6040518082815260200191505060405180910390f35b6106f3611106565b005b6106fd611237565b6040518080602001828103825283818151815260200191508051906020019080838360005b8381101561073e5780820151818401525b602081019050610722565b50505050905090810190601f16801561076b5780820380516001836020036101000a031916815260200191505b509250505060405180910390f35b6107bc600480360360208110156107905760006000fd5b81019080803573ffffffffffffffffffffffffffffffffffffffff1690602001909291905050506112e1565b005b6107c6611310565b005b610817600480360360408110156107df5760006000fd5b81019080803573ffffffffffffffffffffffffffffffffffffffff169060200190929190803515159060200190929190505050611322565b005b61085c600480360360208110156108305760006000fd5b81019080803573ffffffffffffffffffffffffffffffffffffffff169060200190929190505050611466565b604051808215151515815260200191505060405180910390f35b6109816004803603608081101561088d5760006000fd5b81019080803573ffffffffffffffffffffffffffffffffffffffff169060200190929190803573ffffffffffffffffffffffffffffffffffffffff16906020019092919080359060200190929190803590602001906401000000008111156108f55760006000fd5b8201836020820111156109085760006000fd5b8035906020019184600183028401116401000000008311171561092b5760006000fd5b91908080601f016020809104026020016040519081016040528093929190818152602001838380828437600081840152601f19601f8201169050808301925050505050505090909192909091929050505061148b565b005b6109c66004803603602081101561099a5760006000fd5b81019080803573ffffffffffffffffffffffffffffffffffffffff1690602001909291905050506114c1565b005b6109f5600480360360208110156109df5760006000fd5b8101908080359060200190929190505050611612565b6040518080602001828103825283818151815260200191508051906020019080838360005b83811015610a365780820151818401525b602081019050610a1a565b50505050905090810190601f168015610a635780820380516001836020036101000a031916815260200191505b509250505060405180910390f35b610ad460048036036040811015610a885760006000fd5b81019080803573ffffffffffffffffffffffffffffffffffffffff169060200190929190803573ffffffffffffffffffffffffffffffffffffffff1690602001909291905050506116ed565b604051808215151515815260200191505060405180910390f35b600060336000506000837bffffffffffffffffffffffffffffffffffffffffffffffffffffffff19167bffffffffffffffffffffffffffffffffffffffffffffffffffffffff1916815260200190815260200160002060009054906101000a900460ff169050610b59565b919050565b6060609c6000508054600181600116156101000203166002900480601f016020809104026020016040519081016040528092919081815260200182805460018160011615610100020316600290048015610bf95780601f10610bce57610100808354040283529160200191610bf9565b820191906000526020600020905b815481529060010190602001808311610bdc57829003601f168201915b50505050509050610c05565b90565b6000610c198261178c63ffffffff16565b1515610c255760006000fd5b6067600050600083815260200190815260200160002060009054906101000a900473ffffffffffffffffffffffffffffffffffffffff169050610c63565b919050565b6000610c7982610fdd63ffffffff16565b90508073ffffffffffffffffffffffffffffffffffffffff168373ffffffffffffffffffffffffffffffffffffffff1614151515610cb75760006000fd5b8073ffffffffffffffffffffffffffffffffffffffff163373ffffffffffffffffffffffffffffffffffffffff161480610cfd5750610cfc81336116ed63ffffffff16565b5b1515610d095760006000fd5b826067600050600084815260200190815260200160002060006101000a81548173ffffffffffffffffffffffffffffffffffffffff021916908373ffffffffffffffffffffffffffffffffffffffff160217905550818373ffffffffffffffffffffffffffffffffffffffff168273ffffffffffffffffffffffffffffffffffffffff167f8c5be1e5ebec7d5bd14f71427d1e84f3dd0314c0f7b2291e5b200ac8c7c3b92560405160405180910390a4505b5050565b610dcf338261180863ffffffff16565b1515610ddb5760006000fd5b610dec8383836118b663ffffffff16565b5b505050565b610e168383836040518060200160405280600081526020015061148b63ffffffff16565b5b505050565b600060019054906101000a900460ff1680610e415750610e40611aab63ffffffff16565b5b80610e595750600060009054906101000a900460ff16155b1515610eb0576040517f08c379a000000000000000000000000000000000000000000000000000000000815260040180806020018281038252602e81526020018061269b602e913960400191505060405180910390fd5b6000600060019054906101000a900460ff161590508015610f02576001600060016101000a81548160ff0219169083151502179055506001600060006101000a81548160ff0219169083151502179055505b610f10611ac363ffffffff16565b1515610f1c5760006000fd5b82609c6000509080519060200190610f359291906125ea565b5081609d6000509080519060200190610f4f9291906125ea565b50610f66635b5e139f60e01b611ae563ffffffff16565b5b8015610f89576000600060016101000a81548160ff0219169083151502179055505b505b5050565b6000610fa03361146663ffffffff16565b1515610fac5760006000fd5b610fbc8484611b8c63ffffffff16565b610fcc8383611cf063ffffffff16565b60019050610fd5565b5b9392505050565b600060006066600050600084815260200190815260200160002060009054906101000a900473ffffffffffffffffffffffffffffffffffffffff169050600073ffffffffffffffffffffffffffffffffffffffff168173ffffffffffffffffffffffffffffffffffffffff16141515156110575760006000fd5b8091505061106156505b919050565b6000600073ffffffffffffffffffffffffffffffffffffffff168273ffffffffffffffffffffffffffffffffffffffff16141515156110a55760006000fd5b6110fa606860005060008473ffffffffffffffffffffffffffffffffffffffff1673ffffffffffffffffffffffffffffffffffffffff168152602001908152602001600020600050611d3e909063ffffffff16565b9050611101565b919050565b600060019054906101000a900460ff168061112b575061112a611aab63ffffffff16565b5b806111435750600060009054906101000a900460ff16155b151561119a576040517f08c379a000000000000000000000000000000000000000000000000000000000815260040180806020018281038252602e81526020018061269b602e913960400191505060405180910390fd5b6000600060019054906101000a900460ff1615905080156111ec576001600060016101000a81548160ff0219169083151502179055506001600060006101000a81548160ff0219169083151502179055505b6111fa611d5463ffffffff16565b6112106380ac58cd60e01b611ae563ffffffff16565b5b8015611233576000600060016101000a81548160ff0219169083151502179055505b505b565b6060609d6000508054600181600116156101000203166002900480601f0160208091040260200160405190810160405280929190818152602001828054600181600116156101000203166002900480156112d25780601f106112a7576101008083540402835291602001916112d2565b820191906000526020600020905b8154815290600101906020018083116112b557829003601f168201915b505050505090506112de565b90565b6112f03361146663ffffffff16565b15156112fc5760006000fd5b61130b81611e7763ffffffff16565b5b5b50565b61131f33611ed563ffffffff16565b5b565b3373ffffffffffffffffffffffffffffffffffffffff168273ffffffffffffffffffffffffffffffffffffffff161415151561135e5760006000fd5b80606960005060003373ffffffffffffffffffffffffffffffffffffffff1673ffffffffffffffffffffffffffffffffffffffff16815260200190815260200160002060005060008473ffffffffffffffffffffffffffffffffffffffff1673ffffffffffffffffffffffffffffffffffffffff16815260200190815260200160002060006101000a81548160ff0219169083151502179055508173ffffffffffffffffffffffffffffffffffffffff163373ffffffffffffffffffffffffffffffffffffffff167f17307eab39ab6107e8899845ad3d59bd9653f200f220920489ca2b5937696c3183604051808215151515815260200191505060405180910390a35b5050565b600061147f8260d1600050611f3390919063ffffffff16565b9050611486565b919050565b61149c848484610dbf63ffffffff16565b6114ae84848484611fd163ffffffff16565b15156114ba5760006000fd5b5b50505050565b600060019054906101000a900460ff16806114e657506114e5611aab63ffffffff16565b5b806114fe5750600060009054906101000a900460ff16155b1515611555576040517f08c379a000000000000000000000000000000000000000000000000000000000815260040180806020018281038252602e81526020018061269b602e913960400191505060405180910390fd5b6000600060019054906101000a900460ff1615905080156115a7576001600060016101000a81548160ff0219169083151502179055506001600060006101000a81548160ff0219169083151502179055505b6115b5611ac363ffffffff16565b15156115c15760006000fd5b6115cf6121cd63ffffffff16565b15156115db5760006000fd5b6115ea826121ef63ffffffff16565b5b801561160d576000600060016101000a81548160ff0219169083151502179055505b505b50565b60606116238261178c63ffffffff16565b151561162f5760006000fd5b609e60005060008381526020019081526020016000206000508054600181600116156101000203166002900480601f0160208091040260200160405190810160405280929190818152602001828054600181600116156101000203166002900480156116dc5780601f106116b1576101008083540402835291602001916116dc565b820191906000526020600020905b8154815290600101906020018083116116bf57829003601f168201915b505050505090506116e8565b919050565b6000606960005060008473ffffffffffffffffffffffffffffffffffffffff1673ffffffffffffffffffffffffffffffffffffffff16815260200190815260200160002060005060008373ffffffffffffffffffffffffffffffffffffffff1673ffffffffffffffffffffffffffffffffffffffff16815260200190815260200160002060009054906101000a900460ff169050611786565b92915050565b600060006066600050600084815260200190815260200160002060009054906101000a900473ffffffffffffffffffffffffffffffffffffffff169050600073ffffffffffffffffffffffffffffffffffffffff168173ffffffffffffffffffffffffffffffffffffffff16141591505061180356505b919050565b6000600061181b83610fdd63ffffffff16565b90508073ffffffffffffffffffffffffffffffffffffffff168473ffffffffffffffffffffffffffffffffffffffff16148061189057508373ffffffffffffffffffffffffffffffffffffffff1661187884610c0863ffffffff16565b73ffffffffffffffffffffffffffffffffffffffff16145b806118a757506118a681856116ed63ffffffff16565b5b9150506118b056505b92915050565b8273ffffffffffffffffffffffffffffffffffffffff166118dc82610fdd63ffffffff16565b73ffffffffffffffffffffffffffffffffffffffff161415156118ff5760006000fd5b600073ffffffffffffffffffffffffffffffffffffffff168273ffffffffffffffffffffffffffffffffffffffff161415151561193c5760006000fd5b61194b8161232263ffffffff16565b6119a0606860005060008573ffffffffffffffffffffffffffffffffffffffff1673ffffffffffffffffffffffffffffffffffffffff1681526020019081526020016000206000506123e9909063ffffffff16565b6119f5606860005060008473ffffffffffffffffffffffffffffffffffffffff1673ffffffffffffffffffffffffffffffffffffffff168152602001908152602001600020600050612415909063ffffffff16565b816066600050600083815260200190815260200160002060006101000a81548173ffffffffffffffffffffffffffffffffffffffff021916908373ffffffffffffffffffffffffffffffffffffffff160217905550808273ffffffffffffffffffffffffffffffffffffffff168473ffffffffffffffffffffffffffffffffffffffff167fddf252ad1be2c89b69c2b068fc378daa952ba7f163c4a11628f55a4df523b3ef60405160405180910390a45b505050565b60006000303b905060008114915050611ac056505b90565b6000611adb6380ac58cd60e01b610aee63ffffffff16565b9050611ae2565b90565b63ffffffff60e01b817bffffffffffffffffffffffffffffffffffffffffffffffffffffffff191614151515611b1b5760006000fd5b600160336000506000837bffffffffffffffffffffffffffffffffffffffffffffffffffffffff19167bffffffffffffffffffffffffffffffffffffffffffffffffffffffff1916815260200190815260200160002060006101000a81548160ff0219169083151502179055505b50565b600073ffffffffffffffffffffffffffffffffffffffff168273ffffffffffffffffffffffffffffffffffffffff1614151515611bc95760006000fd5b611bd88161178c63ffffffff16565b151515611be55760006000fd5b816066600050600083815260200190815260200160002060006101000a81548173ffffffffffffffffffffffffffffffffffffffff021916908373ffffffffffffffffffffffffffffffffffffffff160217905550611c8f606860005060008473ffffffffffffffffffffffffffffffffffffffff1673ffffffffffffffffffffffffffffffffffffffff168152602001908152602001600020600050612415909063ffffffff16565b808273ffffffffffffffffffffffffffffffffffffffff16600073ffffffffffffffffffffffffffffffffffffffff167fddf252ad1be2c89b69c2b068fc378daa952ba7f163c4a11628f55a4df523b3ef60405160405180910390a45b5050565b611cff8261178c63ffffffff16565b1515611d0b5760006000fd5b80609e60005060008481526020019081526020016000206000509080519060200190611d389291906125ea565b505b5050565b600081600001600050549050611d4f565b919050565b600060019054906101000a900460ff1680611d795750611d78611aab63ffffffff16565b5b80611d915750600060009054906101000a900460ff16155b1515611de8576040517f08c379a000000000000000000000000000000000000000000000000000000000815260040180806020018281038252602e81526020018061269b602e913960400191505060405180910390fd5b6000600060019054906101000a900460ff161590508015611e3a576001600060016101000a81548160ff0219169083151502179055506001600060006101000a81548160ff0219169083151502179055505b611e506301ffc9a760e01b611ae563ffffffff16565b5b8015611e73576000600060016101000a81548160ff0219169083151502179055505b505b565b611e8e8160d160005061243090919063ffffffff16565b8073ffffffffffffffffffffffffffffffffffffffff167f6ae172837ea30b801fbfcdd4108aa1d5bf8ff775444fd70256b44e6bf3dfc3f660405160405180910390a25b50565b611eec8160d16000506124ec90919063ffffffff16565b8073ffffffffffffffffffffffffffffffffffffffff167fe94479a9f7e1952cc78f2d6baab678adc1b772d936c6583def489e524cb6669260405160405180910390a25b50565b6000600073ffffffffffffffffffffffffffffffffffffffff168273ffffffffffffffffffffffffffffffffffffffff1614151515611f725760006000fd5b8260000160005060008373ffffffffffffffffffffffffffffffffffffffff1673ffffffffffffffffffffffffffffffffffffffff16815260200190815260200160002060009054906101000a900460ff169050611fcb565b92915050565b6000611ffa8473ffffffffffffffffffffffffffffffffffffffff166125a7909063ffffffff16565b151561200957600190506121c5565b60008473ffffffffffffffffffffffffffffffffffffffff1663150b7a02338887876040518563ffffffff1660e01b8152600401808573ffffffffffffffffffffffffffffffffffffffff1673ffffffffffffffffffffffffffffffffffffffff1681526020018473ffffffffffffffffffffffffffffffffffffffff1673ffffffffffffffffffffffffffffffffffffffff16815260200183815260200180602001828103825283818151815260200191508051906020019080838360005b838110156120e55780820151818401525b6020810190506120c9565b50505050905090810190601f1680156121125780820380516001836020036101000a031916815260200191505b5095505050505050602060405180830381600087803b1580156121355760006000fd5b505af115801561214a573d600060003e3d6000fd5b505050506040513d60208110156121615760006000fd5b8101908080519060200190929190505050905063150b7a0260e01b7bffffffffffffffffffffffffffffffffffffffffffffffffffffffff1916817bffffffffffffffffffffffffffffffffffffffffffffffffffffffff1916149150506121c556505b949350505050565b60006121e5635b5e139f60e01b610aee63ffffffff16565b90506121ec565b90565b600060019054906101000a900460ff16806122145750612213611aab63ffffffff16565b5b8061222c5750600060009054906101000a900460ff16155b1515612283576040517f08c379a000000000000000000000000000000000000000000000000000000000815260040180806020018281038252602e81526020018061269b602e913960400191505060405180910390fd5b6000600060019054906101000a900460ff1615905080156122d5576001600060016101000a81548160ff0219169083151502179055506001600060006101000a81548160ff0219169083151502179055505b6122e48261146663ffffffff16565b15156122fa576122f982611e7763ffffffff16565b5b5b801561231d576000600060016101000a81548160ff0219169083151502179055505b505b50565b600073ffffffffffffffffffffffffffffffffffffffff166067600050600083815260200190815260200160002060009054906101000a900473ffffffffffffffffffffffffffffffffffffffff1673ffffffffffffffffffffffffffffffffffffffff161415156123e55760006067600050600083815260200190815260200160002060006101000a81548173ffffffffffffffffffffffffffffffffffffffff021916908373ffffffffffffffffffffffffffffffffffffffff1602179055505b5b50565b612404600182600001600050546125c190919063ffffffff16565b816000016000508190909055505b50565b60018160000160008282825054019250508190909055505b50565b600073ffffffffffffffffffffffffffffffffffffffff168173ffffffffffffffffffffffffffffffffffffffff161415151561246d5760006000fd5b61247d8282611f3363ffffffff16565b15151561248a5760006000fd5b60018260000160005060008373ffffffffffffffffffffffffffffffffffffffff1673ffffffffffffffffffffffffffffffffffffffff16815260200190815260200160002060006101000a81548160ff0219169083151502179055505b5050565b600073ffffffffffffffffffffffffffffffffffffffff168173ffffffffffffffffffffffffffffffffffffffff16141515156125295760006000fd5b6125398282611f3363ffffffff16565b15156125455760006000fd5b60008260000160005060008373ffffffffffffffffffffffffffffffffffffffff1673ffffffffffffffffffffffffffffffffffffffff16815260200190815260200160002060006101000a81548160ff0219169083151502179055505b5050565b60006000823b9050600081119150506125bc56505b919050565b60008282111515156125d35760006000fd5b60008284039050809150506125e456505b92915050565b828054600181600116156101000203166002900490600052602060002090601f016020900481019282601f1061262b57805160ff191683800117855561265e565b8280016001018555821561265e579182015b8281111561265d578251826000509090559160200191906001019061263d565b5b50905061266b919061266f565b5090565b6126979190612679565b808211156126935760008181506000905550600101612679565b5090565b9056fe436f6e747261637420696e7374616e63652068617320616c7265616479206265656e20696e697469616c697a6564a265627a7a72315820c164b1addfaa8c307fab3b36a77fa8007869996ec78f580caf9d2aa3e7d2890e64736f6c634300050b0032",
  "compiler": {
    "name": "solc",
    "version": "0.5.11+commit.c082d0b4.Emscripten.clang",
    "optimizer": {},
    "evmVersion": "constantinople"
  }
}