{
  "contractName": "MinterRole",
  "abi": [
    {
      "anonymous": false,
      "inputs": [
        {
          "indexed": true,
          "name": "account",
          "type": "address"
        }
      ],
      "name": "MinterAdded",
      "type": "event"
    },
    {
      "anonymous": false,
      "inputs": [
        {
          "indexed": true,
          "name": "account",
          "type": "address"
        }
      ],
      "name": "MinterRemoved",
      "type": "event"
    },
    {
      "constant": false,
      "inputs": [
        {
          "name": "sender",
          "type": "address"
        }
      ],
      "name": "initialize",
      "outputs": [],
      "payable": false,
      "stateMutability": "nonpayable",
      "type": "function"
    },
    {
      "constant": true,
      "inputs": [
        {
          "name": "account",
          "type": "address"
        }
      ],
      "name": "isMinter",
      "outputs": [
        {
          "name": "",
          "type": "bool"
        }
      ],
      "payable": false,
      "stateMutability": "view",
      "type": "function"
    },
    {
      "constant": false,
      "inputs": [
        {
          "name": "account",
          "type": "address"
        }
      ],
      "name": "addMinter",
      "outputs": [],
      "payable": false,
      "stateMutability": "nonpayable",
      "type": "function"
    },
    {
      "constant": false,
      "inputs": [],
      "name": "renounceMinter",
      "outputs": [],
      "payable": false,
      "stateMutability": "nonpayable",
      "type": "function"
    }
  ],
  "bytecode": "0x608060405234801561001057600080fd5b506103a6806100206000396000f3fe608060405234801561001057600080fd5b506004361061004c5760003560e01c8063983b2d56146100515780639865027514610079578063aa271e1a14610081578063c4d66de8146100bb575b600080fd5b6100776004803603602081101561006757600080fd5b50356001600160a01b03166100e1565b005b610077610101565b6100a76004803603602081101561009757600080fd5b50356001600160a01b031661010c565b604080519115158252519081900360200190f35b610077600480360360208110156100d157600080fd5b50356001600160a01b0316610125565b6100ea3361010c565b15156100f557600080fd5b6100fe816101e5565b50565b61010a3361022d565b565b600061011f60338363ffffffff61027516565b92915050565b600054610100900460ff168061013e575061013e6102ac565b8061014c575060005460ff16155b151561018c57604051600160e51b62461bcd02815260040180806020018281038252602e81526020018061034d602e913960400191505060405180910390fd5b600054610100900460ff161580156101b7576000805460ff1961ff0019909116610100171660011790555b6101c08261010c565b15156101cf576101cf826101e5565b80156101e1576000805461ff00191690555b5050565b6101f660338263ffffffff6102b216565b6040516001600160a01b038216907f6ae172837ea30b801fbfcdd4108aa1d5bf8ff775444fd70256b44e6bf3dfc3f690600090a250565b61023e60338263ffffffff61030016565b6040516001600160a01b038216907fe94479a9f7e1952cc78f2d6baab678adc1b772d936c6583def489e524cb6669290600090a250565b60006001600160a01b038216151561028c57600080fd5b506001600160a01b03166000908152602091909152604090205460ff1690565b303b1590565b6001600160a01b03811615156102c757600080fd5b6102d18282610275565b156102db57600080fd5b6001600160a01b0316600090815260209190915260409020805460ff19166001179055565b6001600160a01b038116151561031557600080fd5b61031f8282610275565b151561032a57600080fd5b6001600160a01b0316600090815260209190915260409020805460ff1916905556fe436f6e747261637420696e7374616e63652068617320616c7265616479206265656e20696e697469616c697a6564a165627a7a7230582035d2957a9c32ba5afaf80f2f4384bb7996082eddb32dcbaf8cfef47b80c148310029",
  "source": "pragma solidity ^0.5.2;\n\nimport \"@openzeppelin/upgrades/contracts/Initializable.sol\";\nimport \"../Roles.sol\";\n\n\ncontract MinterRole is Initializable {\n    using Roles for Roles.Role;\n\n    event MinterAdded(address indexed account);\n    event MinterRemoved(address indexed account);\n\n    Roles.Role private _minters;\n\n    function initialize(address sender) public initializer {\n        if (!isMinter(sender)) {\n            _addMinter(sender);\n        }\n    }\n\n    modifier onlyMinter() {\n        require(isMinter(msg.sender));\n        _;\n    }\n\n    function isMinter(address account) public view returns (bool) {\n        return _minters.has(account);\n    }\n\n    function addMinter(address account) public onlyMinter {\n        _addMinter(account);\n    }\n\n    function renounceMinter() public {\n        _removeMinter(msg.sender);\n    }\n\n    function _addMinter(address account) internal {\n        _minters.add(account);\n        emit MinterAdded(account);\n    }\n\n    function _removeMinter(address account) internal {\n        _minters.remove(account);\n        emit MinterRemoved(account);\n    }\n\n    uint256[50] private ______gap;\n}\n",
  "sourcePath": "@openzeppelin/contracts-ethereum-package/contracts/access/roles/MinterRole.sol",
  "compiler": {
    "name": "solc",
    "version": "0.5.5+commit.47a71e8f.Emscripten.clang"
  },
  "schemaVersion": "3.0.11",
  "updatedAt": "2019-08-14T05:28:20.990Z",
  "devdoc": {
    "methods": {}
  },
  "userdoc": {
    "methods": {}
  }
}