{
  "fileName": "Pausable.sol",
  "contractName": "Pausable",
  "source": "pragma solidity ^0.5.2;\n\nimport \"@openzeppelin/upgrades/contracts/Initializable.sol\";\nimport \"../access/roles/PauserRole.sol\";\n\n/**\n * @title Pausable\n * @dev Base contract which allows children to implement an emergency stop mechanism.\n */\ncontract Pausable is Initializable, PauserRole {\n    event Paused(address account);\n    event Unpaused(address account);\n\n    bool private _paused;\n\n    function initialize(address sender) public initializer {\n        PauserRole.initialize(sender);\n\n        _paused = false;\n    }\n\n    /**\n     * @return true if the contract is paused, false otherwise.\n     */\n    function paused() public view returns (bool) {\n        return _paused;\n    }\n\n    /**\n     * @dev Modifier to make a function callable only when the contract is not paused.\n     */\n    modifier whenNotPaused() {\n        require(!_paused);\n        _;\n    }\n\n    /**\n     * @dev Modifier to make a function callable only when the contract is paused.\n     */\n    modifier whenPaused() {\n        require(_paused);\n        _;\n    }\n\n    /**\n     * @dev called by the owner to pause, triggers stopped state\n     */\n    function pause() public onlyPauser whenNotPaused {\n        _paused = true;\n        emit Paused(msg.sender);\n    }\n\n    /**\n     * @dev called by the owner to unpause, returns to normal state\n     */\n    function unpause() public onlyPauser whenPaused {\n        _paused = false;\n        emit Unpaused(msg.sender);\n    }\n\n    uint256[50] private ______gap;\n}\n",
  "sourcePath": "@openzeppelin/contracts-ethereum-package/contracts/lifecycle/Pausable.sol",
  "abi": [
    {
      "constant": false,
      "inputs": [],
      "name": "unpause",
      "outputs": [],
      "payable": false,
      "stateMutability": "nonpayable",
      "type": "function"
    },
    {
      "constant": true,
      "inputs": [
        {
          "internalType": "address",
          "name": "account",
          "type": "address"
        }
      ],
      "name": "isPauser",
      "outputs": [
        {
          "internalType": "bool",
          "name": "",
          "type": "bool"
        }
      ],
      "payable": false,
      "stateMutability": "view",
      "type": "function"
    },
    {
      "constant": true,
      "inputs": [],
      "name": "paused",
      "outputs": [
        {
          "internalType": "bool",
          "name": "",
          "type": "bool"
        }
      ],
      "payable": false,
      "stateMutability": "view",
      "type": "function"
    },
    {
      "constant": false,
      "inputs": [],
      "name": "renouncePauser",
      "outputs": [],
      "payable": false,
      "stateMutability": "nonpayable",
      "type": "function"
    },
    {
      "constant": false,
      "inputs": [
        {
          "internalType": "address",
          "name": "account",
          "type": "address"
        }
      ],
      "name": "addPauser",
      "outputs": [],
      "payable": false,
      "stateMutability": "nonpayable",
      "type": "function"
    },
    {
      "constant": false,
      "inputs": [],
      "name": "pause",
      "outputs": [],
      "payable": false,
      "stateMutability": "nonpayable",
      "type": "function"
    },
    {
      "constant": false,
      "inputs": [
        {
          "internalType": "address",
          "name": "sender",
          "type": "address"
        }
      ],
      "name": "initialize",
      "outputs": [],
      "payable": false,
      "stateMutability": "nonpayable",
      "type": "function"
    },
    {
      "anonymous": false,
      "inputs": [
        {
          "indexed": false,
          "internalType": "address",
          "name": "account",
          "type": "address"
        }
      ],
      "name": "Paused",
      "type": "event"
    },
    {
      "anonymous": false,
      "inputs": [
        {
          "indexed": false,
          "internalType": "address",
          "name": "account",
          "type": "address"
        }
      ],
      "name": "Unpaused",
      "type": "event"
    },
    {
      "anonymous": false,
      "inputs": [
        {
          "indexed": true,
          "internalType": "address",
          "name": "account",
          "type": "address"
        }
      ],
      "name": "PauserAdded",
      "type": "event"
    },
    {
      "anonymous": false,
      "inputs": [
        {
          "indexed": true,
          "internalType": "address",
          "name": "account",
          "type": "address"
        }
      ],
      "name": "PauserRemoved",
      "type": "event"
    }
  ],
  "bytecode": "0x60806040523480156100115760006000fd5b50610017565b61095d806100266000396000f3fe60806040523480156100115760006000fd5b50600436106100825760003560e01c80636ef8d66d1161005c5780636ef8d66d1461011157806382dc1ec41461011b5780638456cb5914610160578063c4d66de81461016a57610082565b80633f4ba83a1461008857806346fbf68e146100925780635c975abb146100ef57610082565b60006000fd5b6100906101af565b005b6100d5600480360360208110156100a95760006000fd5b81019080803573ffffffffffffffffffffffffffffffffffffffff169060200190929190505050610269565b604051808215151515815260200191505060405180910390f35b6100f761028e565b604051808215151515815260200191505060405180910390f35b6101196102aa565b005b61015e600480360360208110156101325760006000fd5b81019080803573ffffffffffffffffffffffffffffffffffffffff1690602001909291905050506102bc565b005b6101686102eb565b005b6101ad600480360360208110156101815760006000fd5b81019080803573ffffffffffffffffffffffffffffffffffffffff1690602001909291905050506103a6565b005b6101be3361026963ffffffff16565b15156101ca5760006000fd5b606660009054906101000a900460ff1615156101e65760006000fd5b6000606660006101000a81548160ff0219169083151502179055507f5db9ee0a495bf2e6ff9c91a7834c1ba4fdd244a5e8aa4e537bd38aeae4b073aa33604051808273ffffffffffffffffffffffffffffffffffffffff1673ffffffffffffffffffffffffffffffffffffffff16815260200191505060405180910390a15b5b5b565b60006102828260336000506104de90919063ffffffff16565b9050610289565b919050565b6000606660009054906101000a900460ff1690506102a7565b90565b6102b93361057c63ffffffff16565b5b565b6102cb3361026963ffffffff16565b15156102d75760006000fd5b6102e6816105da63ffffffff16565b5b5b50565b6102fa3361026963ffffffff16565b15156103065760006000fd5b606660009054906101000a900460ff161515156103235760006000fd5b6001606660006101000a81548160ff0219169083151502179055507f62e78cea01bee320cd4e420270b5ea74000d11b0c9f74754ebdbfc544b05a25833604051808273ffffffffffffffffffffffffffffffffffffffff1673ffffffffffffffffffffffffffffffffffffffff16815260200191505060405180910390a15b5b5b565b600060019054906101000a900460ff16806103cb57506103ca61063863ffffffff16565b5b806103e35750600060009054906101000a900460ff16155b151561043a576040517f08c379a000000000000000000000000000000000000000000000000000000000815260040180806020018281038252602e8152602001806108fb602e913960400191505060405180910390fd5b6000600060019054906101000a900460ff16159050801561048c576001600060016101000a81548160ff0219169083151502179055506001600060006101000a81548160ff0219169083151502179055505b61049b8261065063ffffffff16565b6000606660006101000a81548160ff0219169083151502179055505b80156104d9576000600060016101000a81548160ff0219169083151502179055505b505b50565b6000600073ffffffffffffffffffffffffffffffffffffffff168273ffffffffffffffffffffffffffffffffffffffff161415151561051d5760006000fd5b8260000160005060008373ffffffffffffffffffffffffffffffffffffffff1673ffffffffffffffffffffffffffffffffffffffff16815260200190815260200160002060009054906101000a900460ff169050610576565b92915050565b61059381603360005061078390919063ffffffff16565b8073ffffffffffffffffffffffffffffffffffffffff167fcd265ebaf09df2871cc7bd4133404a235ba12eff2041bb89d9c714a2621c7c7e60405160405180910390a25b50565b6105f181603360005061083e90919063ffffffff16565b8073ffffffffffffffffffffffffffffffffffffffff167f6719d08c1888103bea251a4ed56406bd0c3e69723c8a1686e017e7bbe159b6f860405160405180910390a25b50565b60006000303b90506000811491505061064d56505b90565b600060019054906101000a900460ff1680610675575061067461063863ffffffff16565b5b8061068d5750600060009054906101000a900460ff16155b15156106e4576040517f08c379a000000000000000000000000000000000000000000000000000000000815260040180806020018281038252602e8152602001806108fb602e913960400191505060405180910390fd5b6000600060019054906101000a900460ff161590508015610736576001600060016101000a81548160ff0219169083151502179055506001600060006101000a81548160ff0219169083151502179055505b6107458261026963ffffffff16565b151561075b5761075a826105da63ffffffff16565b5b5b801561077e576000600060016101000a81548160ff0219169083151502179055505b505b50565b600073ffffffffffffffffffffffffffffffffffffffff168173ffffffffffffffffffffffffffffffffffffffff16141515156107c05760006000fd5b6107d082826104de63ffffffff16565b15156107dc5760006000fd5b60008260000160005060008373ffffffffffffffffffffffffffffffffffffffff1673ffffffffffffffffffffffffffffffffffffffff16815260200190815260200160002060006101000a81548160ff0219169083151502179055505b5050565b600073ffffffffffffffffffffffffffffffffffffffff168173ffffffffffffffffffffffffffffffffffffffff161415151561087b5760006000fd5b61088b82826104de63ffffffff16565b1515156108985760006000fd5b60018260000160005060008373ffffffffffffffffffffffffffffffffffffffff1673ffffffffffffffffffffffffffffffffffffffff16815260200190815260200160002060006101000a81548160ff0219169083151502179055505b505056fe436f6e747261637420696e7374616e63652068617320616c7265616479206265656e20696e697469616c697a6564a265627a7a72315820513a9b17ec834bddef8b60a055e46fba52587b29e2e79e72eb3f1422660bd59064736f6c634300050b0032",
  "compiler": {
    "name": "solc",
    "version": "0.5.11+commit.c082d0b4.Emscripten.clang",
    "optimizer": {},
    "evmVersion": "constantinople"
  }
}