{
  "fileName": "StampCollectible.sol",
  "contractName": "StampCollectible",
  "source": "pragma solidity ^0.5.0;\n\nimport \"@openzeppelin/contracts-ethereum-package/contracts/token/ERC721/ERC721Metadata.sol\";\nimport \"@openzeppelin/contracts-ethereum-package/contracts/token/ERC721/ERC721MetadataMintable.sol\";\nimport \"@openzeppelin/contracts-ethereum-package/contracts/token/ERC721/ERC721Metadata.sol\";\nimport \"@openzeppelin/contracts-ethereum-package/contracts/token/ERC721/ERC721.sol\";\nimport \"@openzeppelin/contracts-ethereum-package/contracts/lifecycle/Pausable.sol\";\nimport \"@openzeppelin/upgrades/contracts/Initializable.sol\";\nimport \"@openzeppelin/contracts-ethereum-package/contracts/drafts/Counters.sol\";\nimport \"@openzeppelin/contracts-ethereum-package/contracts/math/SafeMath.sol\";\nimport \"tabookey-gasless/contracts/GsnUtils.sol\";\nimport \"tabookey-gasless/contracts/IRelayHub.sol\";\nimport \"tabookey-gasless/contracts/RelayRecipient.sol\";\n\n\n/// @title A Nifties exchange game to incentivize tourism and onboard to crypto\n/// @author santteegt\n/// @notice NFTs Market price is artificially calculated based on randomness feed from previous block hashes and user demand\n/// @dev Contract can be upgraded through a proxy contract supplied by OpenZeppelin SDK\n/// @dev Contract can be used with the GSN\ncontract StampCollectible is Initializable, RelayRecipient, Pausable, ERC721MetadataMintable {\n    /// Library used to perform unit increment/decrements\n    using Counters for Counters.Counter;\n    /// Library to avoid overflow/underflow bugs\n    using SafeMath for uint256;\n\n    /// Data structure that represents a NFT Tourist stamp\n    struct Stamp {\n        uint256 price;\n        uint256 maxClones;\n        uint256 inWild;\n        uint256 clonedFrom;\n    }\n\n    struct ClonedStamp {\n        bool owned;\n        uint tokenId;\n    }\n\n    /// Tracks the total minted stamps\n    Counters.Counter public totalMinted;\n    /// Store all minted stamps\n    // Stamp[] public stamps;\n    mapping (uint256 => Stamp) public stamps;\n    ///\n    mapping (uint256 => bool) public ownedTokensIndex;\n    /// Game parameter to provide an scarce amount of stamps\n    uint256 public maxClones;\n    /// Game parameter thah establish the depth of blockhashes to scan during NFT price estimate\n    // uint8 constant private PRICEDEPTH = 255;\n    uint8 private priceDepth;\n    /// Cost multiplier to transform NFT price (in finney) to ETH\n    // uint256 constant private COSTMULTIPLIER = 1000000000000;\n    uint256 private costMultiplier;\n\n    /// Maintains a record of minted NFTS and ownership per account\n    // mapping (address => mapping (uint256 => bool)) public balances;\n    mapping (address => mapping (uint256 => ClonedStamp)) public balances;\n\n    /// Verify that the priceDepth parameters is within the max No. of historical blocks a contract can track\n    modifier checkMaxBlockDepth(uint _value) {\n        require(_value > 0 && _value <= 255, \"Price Depth parameter must be within then range [1-255]\");\n        _;\n    }\n\n    /// Triggered when a new Gen0 stamp is minted by the contract owner\n    event MintedStamp(address indexed owner, uint256 tokenId, uint256 price);\n    /// Triggered when a stamp is cloned and minted to a user\n    event NewStamp(address indexed owner, uint256 tokenId, uint256 price);\n    /// Triggered when a cloned stamp is returned to the contract and thus burned\n    event BurnedStamp(address indexed owner, uint256 tokenId, uint256 clonedTokenId);\n\n    /// @dev This constructor was deprecated in favour of the initialize function\n    /// @dev so the contract can be upgraded through a proxy contract\n    // constructor(uint256 _maxClones) ERC721Metadata(\"CryptoStamps\", \"STAMPS\") public {\n    //     maxClones = _maxClones;\n    //     if(stamps.length == 0) {\n    //         Stamp memory _dummy = Stamp({\n    //             price: 0, maxClones: 0, inWild: 0, clonedFrom: 0});\n    //         stamps.push(_dummy);\n    //     }\n    // }\n\n    /** @dev Initialize current and derived contracts\n      * @param _maxClones Maximum number of clones allowed per Gen0 NFT\n      * @param _priceDepth Game parameter thah establish the depth of blockhashes to scan during NFT price estimate\n      * @param _costMultiplier Cost multiplier to transform NFT price (in finney) to ETH\n      * @param _name NFT name\n      * @param _symbol NFT symbol\n      */\n    function initialize(uint256 _maxClones, uint8 _priceDepth,\n        uint256 _costMultiplier, string memory _name, string memory _symbol)\n        public\n        initializer // ensures that the contract only initilizes once\n        checkMaxBlockDepth(_maxClones) {\n\n            Pausable.initialize(msg.sender);\n            if(!ERC721._hasBeenInitialized()) {\n                ERC721.initialize();\n            }\n            if(!ERC721Metadata._hasBeenInitialized()) {\n                ERC721Metadata.initialize(_name, _symbol);\n            }\n            ERC721MetadataMintable.initialize(msg.sender);\n\n            maxClones = _maxClones;\n            priceDepth = _priceDepth;\n            costMultiplier = _costMultiplier;\n\n            Stamp memory _dummy = Stamp({\n                price: 0, maxClones: 0, inWild: 0, clonedFrom: 0});\n            stamps[0] = _dummy;\n    }\n\n    /** @dev Calculate the new NFT price based on demand and randomness based on past block hashes\n      * @notice Market value is artificially generated for the game using the entropy found in past block hashes\n      * @param _index NFT index in storage\n      * @return uint16 NFt new estimate market price\n      */\n    function getNFTPrice(uint256 _index) internal view returns (uint16) {\n        Stamp memory stamp = stamps[_index];\n        uint256 x = 0;\n        for(uint8 depth = priceDepth; depth > 0 ; depth--) {\n          bytes32 blockHash = blockhash(block.number-depth);\n          x += convert(blockHash[_index * 2]) << 8 | convert(blockHash[_index * 2 + 1]);\n        }\n        return uint16(x / priceDepth) + uint16(stamp.inWild);\n    }\n\n    /** @dev Helper function to convert a bytes32 to uint\n      * @param _b bytes32 data hash\n      * @return uint uint representation of _b\n      */\n    function convert(bytes32 _b) internal pure returns (uint) {\n        return uint(_b);\n    }\n\n    /** @dev Mint a Gen0 stamp\n      * @notice This function can only be called by the contract owner\n      * @param _priceFinney Initial NFT price in finney\n      * @param _tokenURI URI of the associated digital collectible art\n      * @return bool true if Gen0 NFT is minted\n      */\n    function mint(uint256 _priceFinney, string memory _tokenURI) public\n        onlyMinter\n        whenNotPaused\n        returns (bool) {\n        Stamp memory collectible = Stamp({\n            price: _priceFinney.mul(costMultiplier),\n            maxClones: maxClones,\n            inWild: 0,\n            clonedFrom: 0\n        });\n        totalMinted.increment();\n        uint256 tokenId = totalMinted.current();\n        stamps[tokenId] = collectible;\n        ownedTokensIndex[tokenId] = true;\n        emit MintedStamp(msg.sender, tokenId, _priceFinney);\n\n        return mintWithTokenURI(msg.sender, tokenId, _tokenURI);\n    }\n\n    /** @dev Allow to buy a cloned stamp from minted Gen0 NFTs\n      * @param _tokenId Gen0 NFT index in storage\n      * @return uint tokenId corresponding to the cloned NFT\n      */\n    function buyStamp(address sender, uint256 _tokenId) public payable\n        whenNotPaused\n        returns (uint) {\n            Stamp storage stamp = stamps[_tokenId];\n            require(stamp.clonedFrom == 0, \"You can only generate new stamps from Gen0 NFTs\");\n            require(!balances[sender][_tokenId].owned, \"You already own this stamp\");\n            require(stamp.inWild.add(1) <= stamp.maxClones, \"Max clones have been reached\");\n            require(msg.value >= stamp.price, \"Not enough funds\");\n            stamp.inWild = stamp.inWild.add(1);\n            stamp.price = uint256(getNFTPrice(_tokenId)).mul(costMultiplier);\n\n            /// mint and increase total minted\n            totalMinted.increment();\n            uint tokenId = totalMinted.current();\n            Stamp memory clonedStamp = Stamp({\n                price: stamp.price,\n                maxClones: 0,\n                inWild: 0,\n                clonedFrom: _tokenId\n            });\n            stamps[tokenId] = clonedStamp;\n            ownedTokensIndex[tokenId] = true;\n            _mint(sender, tokenId);\n            balances[sender][_tokenId].owned = true;\n            balances[sender][_tokenId].tokenId = tokenId;\n\n            // emit NewStamp(msg.sender, _tokenId, stamp.price);\n            emit NewStamp(sender, tokenId, msg.value);\n            return tokenId;\n    }\n\n    /** @dev Allow to sell an owned stamp and profit/loose based on current market price\n      * @param _tokenId Gen0 NFT index in storage\n      * @return bool true if processed\n      */\n    function sellStamp(uint256 _tokenId) public\n        whenNotPaused\n        returns (bool) {\n            address sender = getSender();\n            require(balances[sender][_tokenId].owned, \"User does not own this stamp\");\n            Stamp storage stamp = stamps[_tokenId];\n            uint256 payout = stamp.price;\n            require(address(this).balance >= payout, \"Prize pot is almost empty so it is no longer possible to sell stamps\");\n            stamp.inWild = stamp.inWild.sub(1);\n            stamp.price = uint256(getNFTPrice(_tokenId)).mul(costMultiplier);\n\n            ClonedStamp storage clonedStamp = balances[sender][_tokenId];\n            clonedStamp.owned = false;\n\n            // burn token\n            _burn(clonedStamp.tokenId);\n            ownedTokensIndex[clonedStamp.tokenId] = false;\n\n            emit BurnedStamp(sender, _tokenId, clonedStamp.tokenId);\n            delete stamps[clonedStamp.tokenId];\n            // TODO: disabled when upgrading the contract\n            // msg.sender.transfer(payout); // This approach can block the asset if owned by a bad actor (contract account)\n            // TODO: to be addded in an upgraded version of the contract\n            outstandingBalance[sender] = outstandingBalance[sender].add(payout);\n            return true;\n    }\n\n    /** @dev Fallback function to allow the contract accept deposits in ETH\n      * @notice deposits can be crodwsourced to fund the Prize pot\n      */\n    function () external payable whenNotPaused {\n\n    }\n\n    /// Maintains a record of outstanding balance owned to users before withdrawal\n    /// Required to implement the Pull vs Push design pattern for payments\n    /// TODO: to be included later in an upgradable contract\n    mapping (address => uint) public outstandingBalance;\n\n    /// Triggered when a user withdraw her outstanding balance from selling stamps in the market\n    /// TODO: this has to be added as an upgrade\n    event WithdrawnBalance(address indexed owner, uint256 amount);\n\n    /** @dev Allow users to withdraw funds from sold stamps. Required to enable a pull vs push design pattern\n      * @return bool true if processed\n      */\n    /// TODO: to be addded in an upgraded version of the contract\n    function withdraw() public whenNotPaused returns (bool) {\n        address sender = getSender();\n    \trequire(outstandingBalance[sender] > 0, \"You dont have any outstanding balance to withdraw\");\n    \tuint amount = outstandingBalance[sender];\n    \toutstandingBalance[sender] = 0;\n        hasWithdrawn[sender] = true;\n        emit WithdrawnBalance(sender, amount);\n        msg.sender.transfer(amount);\n    \treturn true;\n    }\n\n    /// Logs if a user already withdraw some balance from the pot\n    mapping (address => bool) public hasWithdrawn;\n\n    /// Verifies that a call is done by the relayer\n    modifier onlyByRelayer() {\n        require(msg.sender == getHubAddr(), \"Transaction can only be perfomed by the relayer\");\n        _;\n    }\n\n    /// Triggered when a stamp is airdroped through the relayer\n    event AirdropedStamp(address indexed sender, uint tokenId);\n\n    /**\n     * @dev Airdrop a stamp throguh a relayer in the GSN\n     * param _tokenId Gen0 NFT index in storage\n     * @return uint tokenId corresponding to the cloned NFT\n     */\n    function airdropStamp(uint256 _tokenId) public\n        whenNotPaused\n        onlyByRelayer\n        returns (uint) {\n            address sender = getSender();\n            Stamp storage stamp = stamps[_tokenId];\n            require(stamp.clonedFrom == 0, \"You can only generate new stamps from Gen0 NFTs\");\n            require(!balances[sender][_tokenId].owned, \"You already own this stamp\");\n            require(stamp.inWild.add(1) <= stamp.maxClones, \"Sorry! This Stamp is not currently available\");\n            stamp.inWild = stamp.inWild.add(1);\n\n            /// mint and increase total minted\n            totalMinted.increment();\n            uint tokenId = totalMinted.current();\n            Stamp memory clonedStamp = Stamp({\n                price: stamp.price,\n                maxClones: 0,\n                inWild: 0,\n                clonedFrom: _tokenId\n            });\n            stamps[tokenId] = clonedStamp;\n            ownedTokensIndex[tokenId] = true;\n            _mint(sender, tokenId);\n            balances[sender][_tokenId].owned = true;\n            balances[sender][_tokenId].tokenId = tokenId;\n\n            emit AirdropedStamp(sender, tokenId);\n            emit NewStamp(sender, tokenId, stamp.price);\n            return tokenId;\n    }\n\n    /** @dev It's an error code designed to help the DApp identify the reason. Low negatives are reserved for known issues but you can add your own errors in your contract\n      * @param _relay RelayHub address\n      * @param _from Tx sender\n      * @param  _encodedFunction encoded Function being called\n      * @param _transactionFee tx fee\n      * @param _gasPrice tx gas price\n      * @param _gasLimit tx gas limit\n      * @param _nonce tx nonce\n      * @param _approvalData tx data\n      * @param _maxPossibleCharge max possible charge per tx\n      * @return uint256 0 means you accept sponsoring the relayed transaction. Anything else indicates rejection.\n      * @return bytes Error message\n      */\n    function acceptRelayedCall(address _relay, address _from, bytes calldata _encodedFunction,\n            uint256 _transactionFee, uint256 _gasPrice, uint256 _gasLimit, uint256 _nonce,\n            bytes calldata _approvalData, uint256 _maxPossibleCharge)\n            external view returns (uint256, bytes memory) {\n\n                if(hasWithdrawn[_from]) {\n                    return (10, \"User has already withdrawn some balance\");\n                }\n                return (0, \"\");\n    }\n\n    /** @dev Inform of the maximum cost the call may have, and can be used to charge the user in advance.\n      * @notice This is useful if the user may spend their allowance as part of the call, so you can lock some funds here.\n      * @param _context tx data\n      * @return bytes32 the maximum cost the call may have\n      */\n    function preRelayedCall(bytes calldata _context) /*relayHubOnly*/ external returns (bytes32) {\n        return bytes32(uint(123456));\n    }\n\n    /** @dev The success flag indicates whether it was relayed successfully or not. This is where you would usually subtract from the user's remaining credit\n      * @param _context tx data\n      * @param _success True if tx was relayed\n      * @param _actualCharge charged value\n      * @param _preRetVal preRetVal\n      */\n    function postRelayedCall(bytes calldata _context, bool _success, uint _actualCharge, bytes32 _preRetVal) /*relayHubOnly*/ external {\n    }\n\n    function updateRelayHub(IRelayHub _rhub) public onlyMinter {\n        setRelayHub(_rhub);\n    }\n}\n",
  "sourcePath": "contracts/StampCollectible.sol",
  "abi": [
    {
      "constant": true,
      "inputs": [
        {
          "internalType": "bytes4",
          "name": "interfaceId",
          "type": "bytes4"
        }
      ],
      "name": "supportsInterface",
      "outputs": [
        {
          "internalType": "bool",
          "name": "",
          "type": "bool"
        }
      ],
      "payable": false,
      "stateMutability": "view",
      "type": "function"
    },
    {
      "constant": true,
      "inputs": [],
      "name": "name",
      "outputs": [
        {
          "internalType": "string",
          "name": "",
          "type": "string"
        }
      ],
      "payable": false,
      "stateMutability": "view",
      "type": "function"
    },
    {
      "constant": true,
      "inputs": [
        {
          "internalType": "uint256",
          "name": "tokenId",
          "type": "uint256"
        }
      ],
      "name": "getApproved",
      "outputs": [
        {
          "internalType": "address",
          "name": "",
          "type": "address"
        }
      ],
      "payable": false,
      "stateMutability": "view",
      "type": "function"
    },
    {
      "constant": false,
      "inputs": [
        {
          "internalType": "address",
          "name": "to",
          "type": "address"
        },
        {
          "internalType": "uint256",
          "name": "tokenId",
          "type": "uint256"
        }
      ],
      "name": "approve",
      "outputs": [],
      "payable": false,
      "stateMutability": "nonpayable",
      "type": "function"
    },
    {
      "constant": true,
      "inputs": [
        {
          "internalType": "address",
          "name": "origSender",
          "type": "address"
        },
        {
          "internalType": "bytes",
          "name": "msgData",
          "type": "bytes"
        }
      ],
      "name": "getSenderFromData",
      "outputs": [
        {
          "internalType": "address",
          "name": "",
          "type": "address"
        }
      ],
      "payable": false,
      "stateMutability": "view",
      "type": "function"
    },
    {
      "constant": false,
      "inputs": [
        {
          "internalType": "contract IRelayHub",
          "name": "_rhub",
          "type": "address"
        }
      ],
      "name": "updateRelayHub",
      "outputs": [],
      "payable": false,
      "stateMutability": "nonpayable",
      "type": "function"
    },
    {
      "constant": false,
      "inputs": [
        {
          "internalType": "address",
          "name": "from",
          "type": "address"
        },
        {
          "internalType": "address",
          "name": "to",
          "type": "address"
        },
        {
          "internalType": "uint256",
          "name": "tokenId",
          "type": "uint256"
        }
      ],
      "name": "transferFrom",
      "outputs": [],
      "payable": false,
      "stateMutability": "nonpayable",
      "type": "function"
    },
    {
      "constant": false,
      "inputs": [
        {
          "internalType": "uint256",
          "name": "_tokenId",
          "type": "uint256"
        }
      ],
      "name": "sellStamp",
      "outputs": [
        {
          "internalType": "bool",
          "name": "",
          "type": "bool"
        }
      ],
      "payable": false,
      "stateMutability": "nonpayable",
      "type": "function"
    },
    {
      "constant": false,
      "inputs": [],
      "name": "withdraw",
      "outputs": [
        {
          "internalType": "bool",
          "name": "",
          "type": "bool"
        }
      ],
      "payable": false,
      "stateMutability": "nonpayable",
      "type": "function"
    },
    {
      "constant": false,
      "inputs": [],
      "name": "unpause",
      "outputs": [],
      "payable": false,
      "stateMutability": "nonpayable",
      "type": "function"
    },
    {
      "constant": false,
      "inputs": [
        {
          "internalType": "address",
          "name": "from",
          "type": "address"
        },
        {
          "internalType": "address",
          "name": "to",
          "type": "address"
        },
        {
          "internalType": "uint256",
          "name": "tokenId",
          "type": "uint256"
        }
      ],
      "name": "safeTransferFrom",
      "outputs": [],
      "payable": false,
      "stateMutability": "nonpayable",
      "type": "function"
    },
    {
      "constant": true,
      "inputs": [
        {
          "internalType": "address",
          "name": "account",
          "type": "address"
        }
      ],
      "name": "isPauser",
      "outputs": [
        {
          "internalType": "bool",
          "name": "",
          "type": "bool"
        }
      ],
      "payable": false,
      "stateMutability": "view",
      "type": "function"
    },
    {
      "constant": false,
      "inputs": [
        {
          "internalType": "string",
          "name": "name",
          "type": "string"
        },
        {
          "internalType": "string",
          "name": "symbol",
          "type": "string"
        }
      ],
      "name": "initialize",
      "outputs": [],
      "payable": false,
      "stateMutability": "nonpayable",
      "type": "function"
    },
    {
      "constant": false,
      "inputs": [
        {
          "internalType": "address",
          "name": "to",
          "type": "address"
        },
        {
          "internalType": "uint256",
          "name": "tokenId",
          "type": "uint256"
        },
        {
          "internalType": "string",
          "name": "tokenURI",
          "type": "string"
        }
      ],
      "name": "mintWithTokenURI",
      "outputs": [
        {
          "internalType": "bool",
          "name": "",
          "type": "bool"
        }
      ],
      "payable": false,
      "stateMutability": "nonpayable",
      "type": "function"
    },
    {
      "constant": true,
      "inputs": [],
      "name": "paused",
      "outputs": [
        {
          "internalType": "bool",
          "name": "",
          "type": "bool"
        }
      ],
      "payable": false,
      "stateMutability": "view",
      "type": "function"
    },
    {
      "constant": true,
      "inputs": [],
      "name": "getSender",
      "outputs": [
        {
          "internalType": "address",
          "name": "",
          "type": "address"
        }
      ],
      "payable": false,
      "stateMutability": "view",
      "type": "function"
    },
    {
      "constant": true,
      "inputs": [
        {
          "internalType": "address",
          "name": "",
          "type": "address"
        }
      ],
      "name": "hasWithdrawn",
      "outputs": [
        {
          "internalType": "bool",
          "name": "",
          "type": "bool"
        }
      ],
      "payable": false,
      "stateMutability": "view",
      "type": "function"
    },
    {
      "constant": true,
      "inputs": [
        {
          "internalType": "uint256",
          "name": "tokenId",
          "type": "uint256"
        }
      ],
      "name": "ownerOf",
      "outputs": [
        {
          "internalType": "address",
          "name": "",
          "type": "address"
        }
      ],
      "payable": false,
      "stateMutability": "view",
      "type": "function"
    },
    {
      "constant": true,
      "inputs": [
        {
          "internalType": "address",
          "name": "",
          "type": "address"
        }
      ],
      "name": "outstandingBalance",
      "outputs": [
        {
          "internalType": "uint256",
          "name": "",
          "type": "uint256"
        }
      ],
      "payable": false,
      "stateMutability": "view",
      "type": "function"
    },
    {
      "constant": false,
      "inputs": [],
      "name": "renouncePauser",
      "outputs": [],
      "payable": false,
      "stateMutability": "nonpayable",
      "type": "function"
    },
    {
      "constant": true,
      "inputs": [
        {
          "internalType": "address",
          "name": "owner",
          "type": "address"
        }
      ],
      "name": "balanceOf",
      "outputs": [
        {
          "internalType": "uint256",
          "name": "",
          "type": "uint256"
        }
      ],
      "payable": false,
      "stateMutability": "view",
      "type": "function"
    },
    {
      "constant": true,
      "inputs": [
        {
          "internalType": "uint256",
          "name": "",
          "type": "uint256"
        }
      ],
      "name": "ownedTokensIndex",
      "outputs": [
        {
          "internalType": "bool",
          "name": "",
          "type": "bool"
        }
      ],
      "payable": false,
      "stateMutability": "view",
      "type": "function"
    },
    {
      "constant": true,
      "inputs": [],
      "name": "getHubAddr",
      "outputs": [
        {
          "internalType": "address",
          "name": "",
          "type": "address"
        }
      ],
      "payable": false,
      "stateMutability": "view",
      "type": "function"
    },
    {
      "constant": false,
      "inputs": [
        {
          "internalType": "uint256",
          "name": "_priceFinney",
          "type": "uint256"
        },
        {
          "internalType": "string",
          "name": "_tokenURI",
          "type": "string"
        }
      ],
      "name": "mint",
      "outputs": [
        {
          "internalType": "bool",
          "name": "",
          "type": "bool"
        }
      ],
      "payable": false,
      "stateMutability": "nonpayable",
      "type": "function"
    },
    {
      "constant": false,
      "inputs": [
        {
          "internalType": "bytes",
          "name": "_context",
          "type": "bytes"
        }
      ],
      "name": "preRelayedCall",
      "outputs": [
        {
          "internalType": "bytes32",
          "name": "",
          "type": "bytes32"
        }
      ],
      "payable": false,
      "stateMutability": "nonpayable",
      "type": "function"
    },
    {
      "constant": false,
      "inputs": [],
      "name": "initialize",
      "outputs": [],
      "payable": false,
      "stateMutability": "nonpayable",
      "type": "function"
    },
    {
      "constant": false,
      "inputs": [
        {
          "internalType": "address",
          "name": "account",
          "type": "address"
        }
      ],
      "name": "addPauser",
      "outputs": [],
      "payable": false,
      "stateMutability": "nonpayable",
      "type": "function"
    },
    {
      "constant": true,
      "inputs": [
        {
          "internalType": "address",
          "name": "_relay",
          "type": "address"
        },
        {
          "internalType": "address",
          "name": "_from",
          "type": "address"
        },
        {
          "internalType": "bytes",
          "name": "_encodedFunction",
          "type": "bytes"
        },
        {
          "internalType": "uint256",
          "name": "_transactionFee",
          "type": "uint256"
        },
        {
          "internalType": "uint256",
          "name": "_gasPrice",
          "type": "uint256"
        },
        {
          "internalType": "uint256",
          "name": "_gasLimit",
          "type": "uint256"
        },
        {
          "internalType": "uint256",
          "name": "_nonce",
          "type": "uint256"
        },
        {
          "internalType": "bytes",
          "name": "_approvalData",
          "type": "bytes"
        },
        {
          "internalType": "uint256",
          "name": "_maxPossibleCharge",
          "type": "uint256"
        }
      ],
      "name": "acceptRelayedCall",
      "outputs": [
        {
          "internalType": "uint256",
          "name": "",
          "type": "uint256"
        },
        {
          "internalType": "bytes",
          "name": "",
          "type": "bytes"
        }
      ],
      "payable": false,
      "stateMutability": "view",
      "type": "function"
    },
    {
      "constant": false,
      "inputs": [],
      "name": "pause",
      "outputs": [],
      "payable": false,
      "stateMutability": "nonpayable",
      "type": "function"
    },
    {
      "constant": true,
      "inputs": [],
      "name": "maxClones",
      "outputs": [
        {
          "internalType": "uint256",
          "name": "",
          "type": "uint256"
        }
      ],
      "payable": false,
      "stateMutability": "view",
      "type": "function"
    },
    {
      "constant": true,
      "inputs": [],
      "name": "symbol",
      "outputs": [
        {
          "internalType": "string",
          "name": "",
          "type": "string"
        }
      ],
      "payable": false,
      "stateMutability": "view",
      "type": "function"
    },
    {
      "constant": false,
      "inputs": [
        {
          "internalType": "address",
          "name": "account",
          "type": "address"
        }
      ],
      "name": "addMinter",
      "outputs": [],
      "payable": false,
      "stateMutability": "nonpayable",
      "type": "function"
    },
    {
      "constant": false,
      "inputs": [],
      "name": "renounceMinter",
      "outputs": [],
      "payable": false,
      "stateMutability": "nonpayable",
      "type": "function"
    },
    {
      "constant": false,
      "inputs": [
        {
          "internalType": "address",
          "name": "sender",
          "type": "address"
        },
        {
          "internalType": "uint256",
          "name": "_tokenId",
          "type": "uint256"
        }
      ],
      "name": "buyStamp",
      "outputs": [
        {
          "internalType": "uint256",
          "name": "",
          "type": "uint256"
        }
      ],
      "payable": true,
      "stateMutability": "payable",
      "type": "function"
    },
    {
      "constant": false,
      "inputs": [
        {
          "internalType": "address",
          "name": "to",
          "type": "address"
        },
        {
          "internalType": "bool",
          "name": "approved",
          "type": "bool"
        }
      ],
      "name": "setApprovalForAll",
      "outputs": [],
      "payable": false,
      "stateMutability": "nonpayable",
      "type": "function"
    },
    {
      "constant": true,
      "inputs": [],
      "name": "totalMinted",
      "outputs": [
        {
          "internalType": "uint256",
          "name": "_value",
          "type": "uint256"
        }
      ],
      "payable": false,
      "stateMutability": "view",
      "type": "function"
    },
    {
      "constant": true,
      "inputs": [
        {
          "internalType": "address",
          "name": "account",
          "type": "address"
        }
      ],
      "name": "isMinter",
      "outputs": [
        {
          "internalType": "bool",
          "name": "",
          "type": "bool"
        }
      ],
      "payable": false,
      "stateMutability": "view",
      "type": "function"
    },
    {
      "constant": true,
      "inputs": [],
      "name": "getRecipientBalance",
      "outputs": [
        {
          "internalType": "uint256",
          "name": "",
          "type": "uint256"
        }
      ],
      "payable": false,
      "stateMutability": "view",
      "type": "function"
    },
    {
      "constant": false,
      "inputs": [
        {
          "internalType": "address",
          "name": "from",
          "type": "address"
        },
        {
          "internalType": "address",
          "name": "to",
          "type": "address"
        },
        {
          "internalType": "uint256",
          "name": "tokenId",
          "type": "uint256"
        },
        {
          "internalType": "bytes",
          "name": "_data",
          "type": "bytes"
        }
      ],
      "name": "safeTransferFrom",
      "outputs": [],
      "payable": false,
      "stateMutability": "nonpayable",
      "type": "function"
    },
    {
      "constant": false,
      "inputs": [
        {
          "internalType": "address",
          "name": "sender",
          "type": "address"
        }
      ],
      "name": "initialize",
      "outputs": [],
      "payable": false,
      "stateMutability": "nonpayable",
      "type": "function"
    },
    {
      "constant": true,
      "inputs": [
        {
          "internalType": "uint256",
          "name": "tokenId",
          "type": "uint256"
        }
      ],
      "name": "tokenURI",
      "outputs": [
        {
          "internalType": "string",
          "name": "",
          "type": "string"
        }
      ],
      "payable": false,
      "stateMutability": "view",
      "type": "function"
    },
    {
      "constant": false,
      "inputs": [
        {
          "internalType": "uint256",
          "name": "_maxClones",
          "type": "uint256"
        },
        {
          "internalType": "uint8",
          "name": "_priceDepth",
          "type": "uint8"
        },
        {
          "internalType": "uint256",
          "name": "_costMultiplier",
          "type": "uint256"
        },
        {
          "internalType": "string",
          "name": "_name",
          "type": "string"
        },
        {
          "internalType": "string",
          "name": "_symbol",
          "type": "string"
        }
      ],
      "name": "initialize",
      "outputs": [],
      "payable": false,
      "stateMutability": "nonpayable",
      "type": "function"
    },
    {
      "constant": true,
      "inputs": [
        {
          "internalType": "address",
          "name": "",
          "type": "address"
        },
        {
          "internalType": "uint256",
          "name": "",
          "type": "uint256"
        }
      ],
      "name": "balances",
      "outputs": [
        {
          "internalType": "bool",
          "name": "owned",
          "type": "bool"
        },
        {
          "internalType": "uint256",
          "name": "tokenId",
          "type": "uint256"
        }
      ],
      "payable": false,
      "stateMutability": "view",
      "type": "function"
    },
    {
      "constant": true,
      "inputs": [
        {
          "internalType": "uint256",
          "name": "",
          "type": "uint256"
        }
      ],
      "name": "stamps",
      "outputs": [
        {
          "internalType": "uint256",
          "name": "price",
          "type": "uint256"
        },
        {
          "internalType": "uint256",
          "name": "maxClones",
          "type": "uint256"
        },
        {
          "internalType": "uint256",
          "name": "inWild",
          "type": "uint256"
        },
        {
          "internalType": "uint256",
          "name": "clonedFrom",
          "type": "uint256"
        }
      ],
      "payable": false,
      "stateMutability": "view",
      "type": "function"
    },
    {
      "constant": false,
      "inputs": [
        {
          "internalType": "uint256",
          "name": "_tokenId",
          "type": "uint256"
        }
      ],
      "name": "airdropStamp",
      "outputs": [
        {
          "internalType": "uint256",
          "name": "",
          "type": "uint256"
        }
      ],
      "payable": false,
      "stateMutability": "nonpayable",
      "type": "function"
    },
    {
      "constant": false,
      "inputs": [
        {
          "internalType": "bytes",
          "name": "_context",
          "type": "bytes"
        },
        {
          "internalType": "bool",
          "name": "_success",
          "type": "bool"
        },
        {
          "internalType": "uint256",
          "name": "_actualCharge",
          "type": "uint256"
        },
        {
          "internalType": "bytes32",
          "name": "_preRetVal",
          "type": "bytes32"
        }
      ],
      "name": "postRelayedCall",
      "outputs": [],
      "payable": false,
      "stateMutability": "nonpayable",
      "type": "function"
    },
    {
      "constant": true,
      "inputs": [],
      "name": "getMessageData",
      "outputs": [
        {
          "internalType": "bytes",
          "name": "",
          "type": "bytes"
        }
      ],
      "payable": false,
      "stateMutability": "view",
      "type": "function"
    },
    {
      "constant": true,
      "inputs": [
        {
          "internalType": "address",
          "name": "owner",
          "type": "address"
        },
        {
          "internalType": "address",
          "name": "operator",
          "type": "address"
        }
      ],
      "name": "isApprovedForAll",
      "outputs": [
        {
          "internalType": "bool",
          "name": "",
          "type": "bool"
        }
      ],
      "payable": false,
      "stateMutability": "view",
      "type": "function"
    },
    {
      "payable": true,
      "stateMutability": "payable",
      "type": "fallback"
    },
    {
      "anonymous": false,
      "inputs": [
        {
          "indexed": true,
          "internalType": "address",
          "name": "owner",
          "type": "address"
        },
        {
          "indexed": false,
          "internalType": "uint256",
          "name": "tokenId",
          "type": "uint256"
        },
        {
          "indexed": false,
          "internalType": "uint256",
          "name": "price",
          "type": "uint256"
        }
      ],
      "name": "MintedStamp",
      "type": "event"
    },
    {
      "anonymous": false,
      "inputs": [
        {
          "indexed": true,
          "internalType": "address",
          "name": "owner",
          "type": "address"
        },
        {
          "indexed": false,
          "internalType": "uint256",
          "name": "tokenId",
          "type": "uint256"
        },
        {
          "indexed": false,
          "internalType": "uint256",
          "name": "price",
          "type": "uint256"
        }
      ],
      "name": "NewStamp",
      "type": "event"
    },
    {
      "anonymous": false,
      "inputs": [
        {
          "indexed": true,
          "internalType": "address",
          "name": "owner",
          "type": "address"
        },
        {
          "indexed": false,
          "internalType": "uint256",
          "name": "tokenId",
          "type": "uint256"
        },
        {
          "indexed": false,
          "internalType": "uint256",
          "name": "clonedTokenId",
          "type": "uint256"
        }
      ],
      "name": "BurnedStamp",
      "type": "event"
    },
    {
      "anonymous": false,
      "inputs": [
        {
          "indexed": true,
          "internalType": "address",
          "name": "owner",
          "type": "address"
        },
        {
          "indexed": false,
          "internalType": "uint256",
          "name": "amount",
          "type": "uint256"
        }
      ],
      "name": "WithdrawnBalance",
      "type": "event"
    },
    {
      "anonymous": false,
      "inputs": [
        {
          "indexed": true,
          "internalType": "address",
          "name": "sender",
          "type": "address"
        },
        {
          "indexed": false,
          "internalType": "uint256",
          "name": "tokenId",
          "type": "uint256"
        }
      ],
      "name": "AirdropedStamp",
      "type": "event"
    },
    {
      "anonymous": false,
      "inputs": [
        {
          "indexed": true,
          "internalType": "address",
          "name": "account",
          "type": "address"
        }
      ],
      "name": "MinterAdded",
      "type": "event"
    },
    {
      "anonymous": false,
      "inputs": [
        {
          "indexed": true,
          "internalType": "address",
          "name": "account",
          "type": "address"
        }
      ],
      "name": "MinterRemoved",
      "type": "event"
    },
    {
      "anonymous": false,
      "inputs": [
        {
          "indexed": true,
          "internalType": "address",
          "name": "from",
          "type": "address"
        },
        {
          "indexed": true,
          "internalType": "address",
          "name": "to",
          "type": "address"
        },
        {
          "indexed": true,
          "internalType": "uint256",
          "name": "tokenId",
          "type": "uint256"
        }
      ],
      "name": "Transfer",
      "type": "event"
    },
    {
      "anonymous": false,
      "inputs": [
        {
          "indexed": true,
          "internalType": "address",
          "name": "owner",
          "type": "address"
        },
        {
          "indexed": true,
          "internalType": "address",
          "name": "approved",
          "type": "address"
        },
        {
          "indexed": true,
          "internalType": "uint256",
          "name": "tokenId",
          "type": "uint256"
        }
      ],
      "name": "Approval",
      "type": "event"
    },
    {
      "anonymous": false,
      "inputs": [
        {
          "indexed": true,
          "internalType": "address",
          "name": "owner",
          "type": "address"
        },
        {
          "indexed": true,
          "internalType": "address",
          "name": "operator",
          "type": "address"
        },
        {
          "indexed": false,
          "internalType": "bool",
          "name": "approved",
          "type": "bool"
        }
      ],
      "name": "ApprovalForAll",
      "type": "event"
    },
    {
      "anonymous": false,
      "inputs": [
        {
          "indexed": false,
          "internalType": "address",
          "name": "account",
          "type": "address"
        }
      ],
      "name": "Paused",
      "type": "event"
    },
    {
      "anonymous": false,
      "inputs": [
        {
          "indexed": false,
          "internalType": "address",
          "name": "account",
          "type": "address"
        }
      ],
      "name": "Unpaused",
      "type": "event"
    },
    {
      "anonymous": false,
      "inputs": [
        {
          "indexed": true,
          "internalType": "address",
          "name": "account",
          "type": "address"
        }
      ],
      "name": "PauserAdded",
      "type": "event"
    },
    {
      "anonymous": false,
      "inputs": [
        {
          "indexed": true,
          "internalType": "address",
          "name": "account",
          "type": "address"
        }
      ],
      "name": "PauserRemoved",
      "type": "event"
    }
  ],
  "bytecode": "0x6080604052348015620000125760006000fd5b5062000019565b615e2780620000296000396000f3fe6080604052600436106102975760003560e01c806380274db71161015a578063aa271e1a116100c1578063cbf1304d1161007a578063cbf1304d14611801578063ccd68f3b1461187d578063da710b92146118e3578063e06e0e2214611934578063e20c6d3d146119e5578063e985e9c514611a7757610297565b8063aa271e1a146113b5578063ac57041114611420578063b88d4fde1461144c578063c4d66de814611567578063c87b56dd146115ba578063cbdfa1531461167157610297565b806395d89b411161011357806395d89b41146111ca578063983b2d561461125c57806398650275146112af5780639925856e146112c7578063a22cb4651461132a578063a2309ff81461138957610297565b806380274db714610e975780638129fc1c14610f4057806382dc1ec414610f5857806383947ea014610fab5780638456cb59146111865780638a337d8a1461119e57610297565b80634cd88b76116101fe5780636a6da61e116101b75780636a6da61e14610c115780636ef8d66d14610c7857806370a0823114610c9057806374e2436714610cf757806374e861d614610d4c57806377097fc814610da457610297565b80634cd88b761461081f57806350bb4e7f1461098e5780635c975abb14610aa15780635e01eb5a14610ad15780635e2c19db14610b295780636352211e14610b9457610297565b806323b872dd1161025057806323b872dd1461061d5780632620aced1461069a5780633ccfd60b146106ef5780633f4ba83a1461071f57806342842e0e1461073757806346fbf68e146107b457610297565b806301ffc9a7146102b957806306fdde031461032d578063081812fc146103bf578063095ea7b31461043c5780631da97ea3146104995780631e5f3627146105ca57610297565b5b606760009054906101000a900460ff161515156102b55760006000fd5b5b5b005b3480156102c65760006000fd5b50610313600480360360208110156102de5760006000fd5b8101908080357bffffffffffffffffffffffffffffffffffffffffffffffffffffffff19169060200190929190505050611b02565b604051808215151515815260200191505060405180910390f35b34801561033a5760006000fd5b50610343611b72565b6040518080602001828103825283818151815260200191508051906020019080838360005b838110156103845780820151818401525b602081019050610368565b50505050905090810190601f1680156103b15780820380516001836020036101000a031916815260200191505b509250505060405180910390f35b3480156103cc5760006000fd5b506103fa600480360360208110156103e45760006000fd5b8101908080359060200190929190505050611c1d565b604051808273ffffffffffffffffffffffffffffffffffffffff1673ffffffffffffffffffffffffffffffffffffffff16815260200191505060405180910390f35b3480156104495760006000fd5b50610497600480360360408110156104615760006000fd5b81019080803573ffffffffffffffffffffffffffffffffffffffff16906020019092919080359060200190929190505050611c7d565b005b3480156104a65760006000fd5b50610588600480360360408110156104be5760006000fd5b81019080803573ffffffffffffffffffffffffffffffffffffffff169060200190929190803590602001906401000000008111156104fc5760006000fd5b82018360208201111561050f5760006000fd5b803590602001918460018302840111640100000000831117156105325760006000fd5b91908080601f016020809104026020016040519081016040528093929190818152602001838380828437600081840152601f19601f82011690508083019250505050505050909091929090919290505050611dd4565b604051808273ffffffffffffffffffffffffffffffffffffffff1673ffffffffffffffffffffffffffffffffffffffff16815260200191505060405180910390f35b3480156105d75760006000fd5b5061061b600480360360208110156105ef5760006000fd5b81019080803573ffffffffffffffffffffffffffffffffffffffff169060200190929190505050611e45565b005b34801561062a5760006000fd5b50610698600480360360608110156106425760006000fd5b81019080803573ffffffffffffffffffffffffffffffffffffffff169060200190929190803573ffffffffffffffffffffffffffffffffffffffff16906020019092919080359060200190929190505050611e74565b005b3480156106a75760006000fd5b506106d5600480360360208110156106bf5760006000fd5b8101908080359060200190929190505050611ea7565b604051808215151515815260200191505060405180910390f35b3480156106fc5760006000fd5b506107056122e5565b604051808215151515815260200191505060405180910390f35b34801561072c5760006000fd5b50610735612553565b005b3480156107445760006000fd5b506107b26004803603606081101561075c5760006000fd5b81019080803573ffffffffffffffffffffffffffffffffffffffff169060200190929190803573ffffffffffffffffffffffffffffffffffffffff1690602001909291908035906020019092919050505061260d565b005b3480156107c15760006000fd5b50610805600480360360208110156107d95760006000fd5b81019080803573ffffffffffffffffffffffffffffffffffffffff169060200190929190505050612637565b604051808215151515815260200191505060405180910390f35b34801561082c5760006000fd5b5061098c600480360360408110156108445760006000fd5b81019080803590602001906401000000008111156108625760006000fd5b8201836020820111156108755760006000fd5b803590602001918460018302840111640100000000831117156108985760006000fd5b91908080601f016020809104026020016040519081016040528093929190818152602001838380828437600081840152601f19601f82011690508083019250505050505050909091929090919290803590602001906401000000008111156109005760006000fd5b8201836020820111156109135760006000fd5b803590602001918460018302840111640100000000831117156109365760006000fd5b91908080601f016020809104026020016040519081016040528093929190818152602001838380828437600081840152601f19601f8201169050808301925050505050505090909192909091929050505061265c565b005b34801561099b5760006000fd5b50610a87600480360360608110156109b35760006000fd5b81019080803573ffffffffffffffffffffffffffffffffffffffff16906020019092919080359060200190929190803590602001906401000000008111156109fb5760006000fd5b820183602082011115610a0e5760006000fd5b80359060200191846001830284011164010000000083111715610a315760006000fd5b91908080601f016020809104026020016040519081016040528093929190818152602001838380828437600081840152601f19601f820116905080830192505050505050509090919290909192905050506127d1565b604051808215151515815260200191505060405180910390f35b348015610aae5760006000fd5b50610ab761281f565b604051808215151515815260200191505060405180910390f35b348015610ade5760006000fd5b50610ae761283b565b604051808273ffffffffffffffffffffffffffffffffffffffff1673ffffffffffffffffffffffffffffffffffffffff16815260200191505060405180910390f35b348015610b365760006000fd5b50610b7a60048036036020811015610b4e5760006000fd5b81019080803573ffffffffffffffffffffffffffffffffffffffff16906020019092919050505061289c565b604051808215151515815260200191505060405180910390f35b348015610ba15760006000fd5b50610bcf60048036036020811015610bb95760006000fd5b81019080803590602001909291905050506128c2565b604051808273ffffffffffffffffffffffffffffffffffffffff1673ffffffffffffffffffffffffffffffffffffffff16815260200191505060405180910390f35b348015610c1e5760006000fd5b50610c6260048036036020811015610c365760006000fd5b81019080803573ffffffffffffffffffffffffffffffffffffffff16906020019092919050505061294b565b6040518082815260200191505060405180910390f35b348015610c855760006000fd5b50610c8e612967565b005b348015610c9d5760006000fd5b50610ce160048036036020811015610cb55760006000fd5b81019080803573ffffffffffffffffffffffffffffffffffffffff169060200190929190505050612979565b6040518082815260200191505060405180910390f35b348015610d045760006000fd5b50610d3260048036036020811015610d1c5760006000fd5b8101908080359060200190929190505050612a19565b604051808215151515815260200191505060405180910390f35b348015610d595760006000fd5b50610d62612a3f565b604051808273ffffffffffffffffffffffffffffffffffffffff1673ffffffffffffffffffffffffffffffffffffffff16815260200191505060405180910390f35b348015610db15760006000fd5b50610e7d60048036036040811015610dc95760006000fd5b810190808035906020019092919080359060200190640100000000811115610df15760006000fd5b820183602082011115610e045760006000fd5b80359060200191846001830284011164010000000083111715610e275760006000fd5b91908080601f016020809104026020016040519081016040528093929190818152602001838380828437600081840152601f19601f82011690508083019250505050505050909091929090919290505050612a6e565b604051808215151515815260200191505060405180910390f35b348015610ea45760006000fd5b50610f2260048036036020811015610ebc5760006000fd5b8101908080359060200190640100000000811115610eda5760006000fd5b820183602082011115610eed5760006000fd5b80359060200191846001830284011164010000000083111715610f105760006000fd5b90919293909091929390505050612c2a565b60405180826000191660001916815260200191505060405180910390f35b348015610f4d5760006000fd5b50610f56612c40565b005b348015610f655760006000fd5b50610fa960048036036020811015610f7d5760006000fd5b81019080803573ffffffffffffffffffffffffffffffffffffffff169060200190929190505050612d71565b005b348015610fb85760006000fd5b506111036004803603610120811015610fd15760006000fd5b81019080803573ffffffffffffffffffffffffffffffffffffffff169060200190929190803573ffffffffffffffffffffffffffffffffffffffff1690602001909291908035906020019064010000000081111561102f5760006000fd5b8201836020820111156110425760006000fd5b803590602001918460018302840111640100000000831117156110655760006000fd5b9091929390909192939080359060200190929190803590602001909291908035906020019092919080359060200190929190803590602001906401000000008111156110b15760006000fd5b8201836020820111156110c45760006000fd5b803590602001918460018302840111640100000000831117156110e75760006000fd5b9091929390909192939080359060200190929190505050612da0565b6040518083815260200180602001828103825283818151815260200191508051906020019080838360005b8381101561114a5780820151818401525b60208101905061112e565b50505050905090810190601f1680156111775780820380516001836020036101000a031916815260200191505b50935050505060405180910390f35b3480156111935760006000fd5b5061119c612e52565b005b3480156111ab5760006000fd5b506111b4612f0d565b6040518082815260200191505060405180910390f35b3480156111d75760006000fd5b506111e0612f17565b6040518080602001828103825283818151815260200191508051906020019080838360005b838110156112215780820151818401525b602081019050611205565b50505050905090810190601f16801561124e5780820380516001836020036101000a031916815260200191505b509250505060405180910390f35b3480156112695760006000fd5b506112ad600480360360208110156112815760006000fd5b81019080803573ffffffffffffffffffffffffffffffffffffffff169060200190929190505050612fc2565b005b3480156112bc5760006000fd5b506112c5612ff1565b005b611314600480360360408110156112de5760006000fd5b81019080803573ffffffffffffffffffffffffffffffffffffffff16906020019092919080359060200190929190505050613003565b6040518082815260200191505060405180910390f35b3480156113375760006000fd5b506113876004803603604081101561134f5760006000fd5b81019080803573ffffffffffffffffffffffffffffffffffffffff16906020019092919080351515906020019092919050505061354c565b005b3480156113965760006000fd5b5061139f613690565b6040518082815260200191505060405180910390f35b3480156113c25760006000fd5b50611406600480360360208110156113da5760006000fd5b81019080803573ffffffffffffffffffffffffffffffffffffffff1690602001909291905050506136a3565b604051808215151515815260200191505060405180910390f35b34801561142d5760006000fd5b506114366136c9565b6040518082815260200191505060405180910390f35b3480156114595760006000fd5b50611565600480360360808110156114715760006000fd5b81019080803573ffffffffffffffffffffffffffffffffffffffff169060200190929190803573ffffffffffffffffffffffffffffffffffffffff16906020019092919080359060200190929190803590602001906401000000008111156114d95760006000fd5b8201836020820111156114ec5760006000fd5b8035906020019184600183028401116401000000008311171561150f5760006000fd5b91908080601f016020809104026020016040519081016040528093929190818152602001838380828437600081840152601f19601f8201169050808301925050505050505090909192909091929050505061379d565b005b3480156115745760006000fd5b506115b86004803603602081101561158c5760006000fd5b81019080803573ffffffffffffffffffffffffffffffffffffffff1690602001909291905050506137d3565b005b3480156115c75760006000fd5b506115f5600480360360208110156115df5760006000fd5b8101908080359060200190929190505050613924565b6040518080602001828103825283818151815260200191508051906020019080838360005b838110156116365780820151818401525b60208101905061161a565b50505050905090810190601f1680156116635780820380516001836020036101000a031916815260200191505b509250505060405180910390f35b34801561167e5760006000fd5b506117ff600480360360a08110156116965760006000fd5b8101908080359060200190929190803560ff16906020019092919080359060200190929190803590602001906401000000008111156116d55760006000fd5b8201836020820111156116e85760006000fd5b8035906020019184600183028401116401000000008311171561170b5760006000fd5b91908080601f016020809104026020016040519081016040528093929190818152602001838380828437600081840152601f19601f82011690508083019250505050505050909091929090919290803590602001906401000000008111156117735760006000fd5b8201836020820111156117865760006000fd5b803590602001918460018302840111640100000000831117156117a95760006000fd5b91908080601f016020809104026020016040519081016040528093929190818152602001838380828437600081840152601f19601f82011690508083019250505050505050909091929090919290505050613a00565b005b34801561180e5760006000fd5b5061185c600480360360408110156118265760006000fd5b81019080803573ffffffffffffffffffffffffffffffffffffffff16906020019092919080359060200190929190505050613ca7565b60405180831515151581526020018281526020019250505060405180910390f35b34801561188a5760006000fd5b506118b8600480360360208110156118a25760006000fd5b8101908080359060200190929190505050613cef565b6040518085815260200184815260200183815260200182815260200194505050505060405180910390f35b3480156118f05760006000fd5b5061191e600480360360208110156119085760006000fd5b8101908080359060200190929190505050613d2f565b6040518082815260200191505060405180910390f35b3480156119415760006000fd5b506119e3600480360360808110156119595760006000fd5b81019080803590602001906401000000008111156119775760006000fd5b82018360208201111561198a5760006000fd5b803590602001918460018302840111640100000000831117156119ad5760006000fd5b9091929390909192939080351515906020019092919080359060200190929190803560001916906020019092919050505061429a565b005b3480156119f25760006000fd5b506119fb6142a2565b6040518080602001828103825283818151815260200191508051906020019080838360005b83811015611a3c5780820151818401525b602081019050611a20565b50505050905090810190601f168015611a695780820380516001836020036101000a031916815260200191505b509250505060405180910390f35b348015611a845760006000fd5b50611ae860048036036040811015611a9c5760006000fd5b81019080803573ffffffffffffffffffffffffffffffffffffffff169060200190929190803573ffffffffffffffffffffffffffffffffffffffff1690602001909291905050506143f1565b604051808215151515815260200191505060405180910390f35b6000609a6000506000837bffffffffffffffffffffffffffffffffffffffffffffffffffffffff19167bffffffffffffffffffffffffffffffffffffffffffffffffffffffff1916815260200190815260200160002060009054906101000a900460ff169050611b6d565b919050565b60606101036000508054600181600116156101000203166002900480601f016020809104026020016040519081016040528092919081815260200182805460018160011615610100020316600290048015611c0e5780601f10611be357610100808354040283529160200191611c0e565b820191906000526020600020905b815481529060010190602001808311611bf157829003601f168201915b50505050509050611c1a565b90565b6000611c2e8261449063ffffffff16565b1515611c3a5760006000fd5b60ce600050600083815260200190815260200160002060009054906101000a900473ffffffffffffffffffffffffffffffffffffffff169050611c78565b919050565b6000611c8e826128c263ffffffff16565b90508073ffffffffffffffffffffffffffffffffffffffff168373ffffffffffffffffffffffffffffffffffffffff1614151515611ccc5760006000fd5b8073ffffffffffffffffffffffffffffffffffffffff163373ffffffffffffffffffffffffffffffffffffffff161480611d125750611d1181336143f163ffffffff16565b5b1515611d1e5760006000fd5b8260ce600050600084815260200190815260200160002060006101000a81548173ffffffffffffffffffffffffffffffffffffffff021916908373ffffffffffffffffffffffffffffffffffffffff160217905550818373ffffffffffffffffffffffffffffffffffffffff168273ffffffffffffffffffffffffffffffffffffffff167f8c5be1e5ebec7d5bd14f71427d1e84f3dd0314c0f7b2291e5b200ac8c7c3b92560405160405180910390a4505b5050565b60006000839050611de9612a3f63ffffffff16565b73ffffffffffffffffffffffffffffffffffffffff168473ffffffffffffffffffffffffffffffffffffffff161415611e3557611e3083601485510361450c63ffffffff16565b905080505b80915050611e3f56505b92915050565b611e54336136a363ffffffff16565b1515611e605760006000fd5b611e6f8161459f63ffffffff16565b5b5b50565b611e8433826145f363ffffffff16565b1515611e905760006000fd5b611ea18383836146a163ffffffff16565b5b505050565b6000606760009054906101000a900460ff16151515611ec65760006000fd5b6000611ed661283b63ffffffff16565b90506101a360005060008273ffffffffffffffffffffffffffffffffffffffff1673ffffffffffffffffffffffffffffffffffffffff168152602001908152602001600020600050600084815260200190815260200160002060005060000160009054906101000a900460ff161515611fba576040517f08c379a000000000000000000000000000000000000000000000000000000000815260040180806020018281038252601c8152602001807f5573657220646f6573206e6f74206f776e2074686973207374616d700000000081526020015060200191505060405180910390fd5b600061019e60005060008581526020019081526020016000206000509050600081600001600050549050803073ffffffffffffffffffffffffffffffffffffffff163110151515612056576040517f08c379a0000000000000000000000000000000000000000000000000000000008152600401808060200182810382526044815260200180615d896044913960600191505060405180910390fd5b6120716001836002016000505461489690919063ffffffff16565b826002016000508190909055506120a96101a260005054612097876148bf63ffffffff16565b61ffff16614a3890919063ffffffff16565b8260000160005081909090555060006101a360005060008573ffffffffffffffffffffffffffffffffffffffff1673ffffffffffffffffffffffffffffffffffffffff1681526020019081526020016000206000506000878152602001908152602001600020600050905060008160000160006101000a81548160ff0219169083151502179055506121478160010160005054614a7d63ffffffff16565b600061019f60005060008360010160005054815260200190815260200160002060006101000a81548160ff0219169083151502179055508373ffffffffffffffffffffffffffffffffffffffff167f106852634153ba32c7db4c08ec749c468343ebd82b312b849a331f58a164867a878360010160005054604051808381526020018281526020019250505060405180910390a261019e600050600082600101600050548152602001908152602001600020600060008201600050600090556001820160005060009055600282016000506000905560038201600050600090555050612282826101a460005060008773ffffffffffffffffffffffffffffffffffffffff1673ffffffffffffffffffffffffffffffffffffffff16815260200190815260200160002060005054614a9f90919063ffffffff16565b6101a460005060008673ffffffffffffffffffffffffffffffffffffffff1673ffffffffffffffffffffffffffffffffffffffff16815260200190815260200160002060005081909090555060019450505050506122df56505050505b5b919050565b6000606760009054906101000a900460ff161515156123045760006000fd5b600061231461283b63ffffffff16565b905060006101a460005060008373ffffffffffffffffffffffffffffffffffffffff1673ffffffffffffffffffffffffffffffffffffffff168152602001908152602001600020600050541115156123b7576040517f08c379a0000000000000000000000000000000000000000000000000000000008152600401808060200182810382526031815260200180615d586031913960400191505060405180910390fd5b60006101a460005060008373ffffffffffffffffffffffffffffffffffffffff1673ffffffffffffffffffffffffffffffffffffffff16815260200190815260200160002060005054905060006101a460005060008473ffffffffffffffffffffffffffffffffffffffff1673ffffffffffffffffffffffffffffffffffffffff16815260200190815260200160002060005081909090555060016101a560005060008473ffffffffffffffffffffffffffffffffffffffff1673ffffffffffffffffffffffffffffffffffffffff16815260200190815260200160002060006101000a81548160ff0219169083151502179055508173ffffffffffffffffffffffffffffffffffffffff167f76a3496ed122399b6d8c356545cf5095195fd823dc634be8fcd7b275976679a7826040518082815260200191505060405180910390a23373ffffffffffffffffffffffffffffffffffffffff166108fc829081150290604051600060405180830381858888f19350505050158015612541573d600060003e3d6000fd5b5060019250505061254f5650505b5b90565b6125623361263763ffffffff16565b151561256e5760006000fd5b606760009054906101000a900460ff16151561258a5760006000fd5b6000606760006101000a81548160ff0219169083151502179055507f5db9ee0a495bf2e6ff9c91a7834c1ba4fdd244a5e8aa4e537bd38aeae4b073aa33604051808273ffffffffffffffffffffffffffffffffffffffff1673ffffffffffffffffffffffffffffffffffffffff16815260200191505060405180910390a15b5b5b565b6126318383836040518060200160405280600081526020015061379d63ffffffff16565b5b505050565b6000612650826034600050614ac890919063ffffffff16565b9050612657565b919050565b600060019054906101000a900460ff16806126815750612680614b6663ffffffff16565b5b806126995750600060009054906101000a900460ff16155b15156126f0576040517f08c379a000000000000000000000000000000000000000000000000000000000815260040180806020018281038252602e815260200180615d2a602e913960400191505060405180910390fd5b6000600060019054906101000a900460ff161590508015612742576001600060016101000a81548160ff0219169083151502179055506001600060006101000a81548160ff0219169083151502179055505b612750614b7e63ffffffff16565b151561275c5760006000fd5b826101036000509080519060200190612776929190615b1e565b50816101046000509080519060200190612791929190615b1e565b506127a8635b5e139f60e01b614ba063ffffffff16565b5b80156127cb576000600060016101000a81548160ff0219169083151502179055505b505b5050565b60006127e2336136a363ffffffff16565b15156127ee5760006000fd5b6127fe8484614c4763ffffffff16565b61280e8383614dab63ffffffff16565b60019050612817565b5b9392505050565b6000606760009054906101000a900460ff169050612838565b90565b6000612892336000368080601f016020809104026020016040519081016040528093929190818152602001838380828437600081840152601f19601f82011690508083019250505050505050611dd463ffffffff16565b9050612899565b90565b6101a560005060205280600052604060002060009150909054906101000a900460ff1681565b6000600060cd600050600084815260200190815260200160002060009054906101000a900473ffffffffffffffffffffffffffffffffffffffff169050600073ffffffffffffffffffffffffffffffffffffffff168173ffffffffffffffffffffffffffffffffffffffff161415151561293c5760006000fd5b8091505061294656505b919050565b6101a46000506020528060005260406000206000915090505481565b61297633614dfa63ffffffff16565b5b565b6000600073ffffffffffffffffffffffffffffffffffffffff168273ffffffffffffffffffffffffffffffffffffffff16141515156129b85760006000fd5b612a0d60cf60005060008473ffffffffffffffffffffffffffffffffffffffff1673ffffffffffffffffffffffffffffffffffffffff168152602001908152602001600020600050614e58909063ffffffff16565b9050612a14565b919050565b61019f60005060205280600052604060002060009150909054906101000a900460ff1681565b6000603360009054906101000a900473ffffffffffffffffffffffffffffffffffffffff169050612a6b565b90565b6000612a7f336136a363ffffffff16565b1515612a8b5760006000fd5b606760009054906101000a900460ff16151515612aa85760006000fd5b612ab0615ba3565b6040518060800160405280612ad46101a26000505487614a3890919063ffffffff16565b81526020016101a06000505481526020016000815260200160008152602001509050612b0c61019d600050614e6e909063ffffffff16565b6000612b2461019d600050614e58909063ffffffff16565b90508161019e6000506000838152602001908152602001600020600050600082015181600001600050909055602082015181600101600050909055604082015181600201600050909055606082015181600301600050909055905050600161019f600050600083815260200190815260200160002060006101000a81548160ff0219169083151502179055503373ffffffffffffffffffffffffffffffffffffffff167f51a8f6a84a50f4da36896f422d3ec8416e819501f8ee32dfed22316b472f07978287604051808381526020018281526020019250505060405180910390a2612c173382866127d163ffffffff16565b92505050612c225650505b5b5b92915050565b60006201e24060001b9050612c3a565b92915050565b600060019054906101000a900460ff1680612c655750612c64614b6663ffffffff16565b5b80612c7d5750600060009054906101000a900460ff16155b1515612cd4576040517f08c379a000000000000000000000000000000000000000000000000000000000815260040180806020018281038252602e815260200180615d2a602e913960400191505060405180910390fd5b6000600060019054906101000a900460ff161590508015612d26576001600060016101000a81548160ff0219169083151502179055506001600060006101000a81548160ff0219169083151502179055505b612d34614e8963ffffffff16565b612d4a6380ac58cd60e01b614ba063ffffffff16565b5b8015612d6d576000600060016101000a81548160ff0219169083151502179055505b505b565b612d803361263763ffffffff16565b1515612d8c5760006000fd5b612d9b81614fac63ffffffff16565b5b5b50565b600060606101a560005060008d73ffffffffffffffffffffffffffffffffffffffff1673ffffffffffffffffffffffffffffffffffffffff16815260200190815260200160002060009054906101000a900460ff1615612e2157600a809050604051806060016040528060278152602001615ca86027913991509150612e42565b60008090506040518060200160405280600081526020015091509150612e42565b9b509b9950505050505050505050565b612e613361263763ffffffff16565b1515612e6d5760006000fd5b606760009054906101000a900460ff16151515612e8a5760006000fd5b6001606760006101000a81548160ff0219169083151502179055507f62e78cea01bee320cd4e420270b5ea74000d11b0c9f74754ebdbfc544b05a25833604051808273ffffffffffffffffffffffffffffffffffffffff1673ffffffffffffffffffffffffffffffffffffffff16815260200191505060405180910390a15b5b5b565b6101a06000505481565b60606101046000508054600181600116156101000203166002900480601f016020809104026020016040519081016040528092919081815260200182805460018160011615610100020316600290048015612fb35780601f10612f8857610100808354040283529160200191612fb3565b820191906000526020600020905b815481529060010190602001808311612f9657829003601f168201915b50505050509050612fbf565b90565b612fd1336136a363ffffffff16565b1515612fdd5760006000fd5b612fec8161500a63ffffffff16565b5b5b50565b6130003361506963ffffffff16565b5b565b6000606760009054906101000a900460ff161515156130225760006000fd5b600061019e60005060008481526020019081526020016000206000509050600081600301600050541415156130a2576040517f08c379a000000000000000000000000000000000000000000000000000000000815260040180806020018281038252602f815260200180615c79602f913960400191505060405180910390fd5b6101a360005060008573ffffffffffffffffffffffffffffffffffffffff1673ffffffffffffffffffffffffffffffffffffffff168152602001908152602001600020600050600084815260200190815260200160002060005060000160009054906101000a900460ff16151515613185576040517f08c379a000000000000000000000000000000000000000000000000000000000815260040180806020018281038252601a8152602001807f596f7520616c7265616479206f776e2074686973207374616d7000000000000081526020015060200191505060405180910390fd5b80600101600050546131a860018360020160005054614a9f90919063ffffffff16565b11151515613221576040517f08c379a000000000000000000000000000000000000000000000000000000000815260040180806020018281038252601c8152602001807f4d617820636c6f6e65732068617665206265656e20726561636865640000000081526020015060200191505060405180910390fd5b806000016000505434101515156132a3576040517f08c379a00000000000000000000000000000000000000000000000000000000081526004018080602001828103825260108152602001807f4e6f7420656e6f7567682066756e64730000000000000000000000000000000081526020015060200191505060405180910390fd5b6132be60018260020160005054614a9f90919063ffffffff16565b816002016000508190909055506132f66101a2600050546132e4856148bf63ffffffff16565b61ffff16614a3890919063ffffffff16565b8160000160005081909090555061331961019d600050614e6e909063ffffffff16565b600061333161019d600050614e58909063ffffffff16565b905061333b615ba3565b60405180608001604052808460000160005054815260200160008152602001600081526020018681526020015090508061019e6000506000848152602001908152602001600020600050600082015181600001600050909055602082015181600101600050909055604082015181600201600050909055606082015181600301600050909055905050600161019f600050600084815260200190815260200160002060006101000a81548160ff0219169083151502179055506134048683614c4763ffffffff16565b60016101a360005060008873ffffffffffffffffffffffffffffffffffffffff1673ffffffffffffffffffffffffffffffffffffffff168152602001908152602001600020600050600087815260200190815260200160002060005060000160006101000a81548160ff021916908315150217905550816101a360005060008873ffffffffffffffffffffffffffffffffffffffff1673ffffffffffffffffffffffffffffffffffffffff16815260200190815260200160002060005060008781526020019081526020016000206000506001016000508190909055508573ffffffffffffffffffffffffffffffffffffffff167f550b743fe7aa34355e646fd0ad2178394d4cdcad0692a40382c8663e61fce7be8334604051808381526020018281526020019250505060405180910390a2819350505050613545565050505b5b92915050565b3373ffffffffffffffffffffffffffffffffffffffff168273ffffffffffffffffffffffffffffffffffffffff16141515156135885760006000fd5b8060d060005060003373ffffffffffffffffffffffffffffffffffffffff1673ffffffffffffffffffffffffffffffffffffffff16815260200190815260200160002060005060008473ffffffffffffffffffffffffffffffffffffffff1673ffffffffffffffffffffffffffffffffffffffff16815260200190815260200160002060006101000a81548160ff0219169083151502179055508173ffffffffffffffffffffffffffffffffffffffff163373ffffffffffffffffffffffffffffffffffffffff167f17307eab39ab6107e8899845ad3d59bd9653f200f220920489ca2b5937696c3183604051808215151515815260200191505060405180910390a35b5050565b61019d6000508060000160005054905081565b60006136bd82610138600050614ac890919063ffffffff16565b90506136c4565b919050565b60006136d96150c863ffffffff16565b73ffffffffffffffffffffffffffffffffffffffff166370a08231306040518263ffffffff1660e01b8152600401808273ffffffffffffffffffffffffffffffffffffffff1673ffffffffffffffffffffffffffffffffffffffff16815260200191505060206040518083038186803b1580156137565760006000fd5b505afa15801561376b573d600060003e3d6000fd5b505050506040513d60208110156137825760006000fd5b8101908080519060200190929190505050905061379a565b90565b6137ae848484611e7463ffffffff16565b6137c0848484846150f763ffffffff16565b15156137cc5760006000fd5b5b50505050565b600060019054906101000a900460ff16806137f857506137f7614b6663ffffffff16565b5b806138105750600060009054906101000a900460ff16155b1515613867576040517f08c379a000000000000000000000000000000000000000000000000000000000815260040180806020018281038252602e815260200180615d2a602e913960400191505060405180910390fd5b6000600060019054906101000a900460ff1615905080156138b9576001600060016101000a81548160ff0219169083151502179055506001600060006101000a81548160ff0219169083151502179055505b6138c7614b7e63ffffffff16565b15156138d35760006000fd5b6138e16152f363ffffffff16565b15156138ed5760006000fd5b6138fc8261531563ffffffff16565b5b801561391f576000600060016101000a81548160ff0219169083151502179055505b505b50565b60606139358261449063ffffffff16565b15156139415760006000fd5b61010560005060008381526020019081526020016000206000508054600181600116156101000203166002900480601f0160208091040260200160405190810160405280929190818152602001828054600181600116156101000203166002900480156139ef5780601f106139c4576101008083540402835291602001916139ef565b820191906000526020600020905b8154815290600101906020018083116139d257829003601f168201915b505050505090506139fb565b919050565b600060019054906101000a900460ff1680613a255750613a24614b6663ffffffff16565b5b80613a3d5750600060009054906101000a900460ff16155b1515613a94576040517f08c379a000000000000000000000000000000000000000000000000000000000815260040180806020018281038252602e815260200180615d2a602e913960400191505060405180910390fd5b6000600060019054906101000a900460ff161590508015613ae6576001600060016101000a81548160ff0219169083151502179055506001600060006101000a81548160ff0219169083151502179055505b85600081118015613af8575060ff8111155b1515613b4f576040517f08c379a0000000000000000000000000000000000000000000000000000000008152600401808060200182810382526037815260200180615c426037913960400191505060405180910390fd5b613b5e3361544863ffffffff16565b613b6c614b7e63ffffffff16565b1515613b8157613b80612c4063ffffffff16565b5b613b8f6152f363ffffffff16565b1515613ba657613ba5848461265c63ffffffff16565b5b613bb5336137d363ffffffff16565b866101a0600050819090905550856101a160006101000a81548160ff021916908360ff160217905550846101a2600050819090905550613bf3615ba3565b6040518060800160405280600081526020016000815260200160008152602001600081526020015090508061019e600050600060008152602001908152602001600020600050600082015181600001600050909055602082015181600101600050909055604082015181600201600050909055606082015181600301600050909055905050505b5b508015613c9e576000600060016101000a81548160ff0219169083151502179055505b505b5050505050565b6101a3600050602052816000526040600020600050602052806000526040600020600091509150508060000160009054906101000a900460ff16908060010160005054905082565b61019e6000506020528060005260406000206000915090508060000160005054908060010160005054908060020160005054908060030160005054905084565b6000606760009054906101000a900460ff16151515613d4e5760006000fd5b613d5c612a3f63ffffffff16565b73ffffffffffffffffffffffffffffffffffffffff163373ffffffffffffffffffffffffffffffffffffffff16141515613de1576040517f08c379a000000000000000000000000000000000000000000000000000000000815260040180806020018281038252602f815260200180615ccf602f913960400191505060405180910390fd5b6000613df161283b63ffffffff16565b9050600061019e6000506000858152602001908152602001600020600050905060008160030160005054141515613e73576040517f08c379a000000000000000000000000000000000000000000000000000000000815260040180806020018281038252602f815260200180615c79602f913960400191505060405180910390fd5b6101a360005060008373ffffffffffffffffffffffffffffffffffffffff1673ffffffffffffffffffffffffffffffffffffffff168152602001908152602001600020600050600085815260200190815260200160002060005060000160009054906101000a900460ff16151515613f56576040517f08c379a000000000000000000000000000000000000000000000000000000000815260040180806020018281038252601a8152602001807f596f7520616c7265616479206f776e2074686973207374616d7000000000000081526020015060200191505060405180910390fd5b8060010160005054613f7960018360020160005054614a9f90919063ffffffff16565b11151515613fd2576040517f08c379a000000000000000000000000000000000000000000000000000000000815260040180806020018281038252602c815260200180615cfe602c913960400191505060405180910390fd5b613fed60018260020160005054614a9f90919063ffffffff16565b8160020160005081909090555061401061019d600050614e6e909063ffffffff16565b600061402861019d600050614e58909063ffffffff16565b9050614032615ba3565b60405180608001604052808460000160005054815260200160008152602001600081526020018781526020015090508061019e6000506000848152602001908152602001600020600050600082015181600001600050909055602082015181600101600050909055604082015181600201600050909055606082015181600301600050909055905050600161019f600050600084815260200190815260200160002060006101000a81548160ff0219169083151502179055506140fb8483614c4763ffffffff16565b60016101a360005060008673ffffffffffffffffffffffffffffffffffffffff1673ffffffffffffffffffffffffffffffffffffffff168152602001908152602001600020600050600088815260200190815260200160002060005060000160006101000a81548160ff021916908315150217905550816101a360005060008673ffffffffffffffffffffffffffffffffffffffff1673ffffffffffffffffffffffffffffffffffffffff16815260200190815260200160002060005060008881526020019081526020016000206000506001016000508190909055508373ffffffffffffffffffffffffffffffffffffffff167f463271931ea69b9522a3fffad595ff95986953dbd0f71e563deacab706f0e0b5836040518082815260200191505060405180910390a28373ffffffffffffffffffffffffffffffffffffffff167f550b743fe7aa34355e646fd0ad2178394d4cdcad0692a40382c8663e61fce7be838560000160005054604051808381526020018281526020019250505060405180910390a28194505050505061429356505050505b5b5b919050565b5b5050505050565b606060606000368080601f016020809104026020016040519081016040528093929190818152602001838380828437600081840152601f19601f8201169050808301925050505050505090506142fc612a3f63ffffffff16565b73ffffffffffffffffffffffffffffffffffffffff163373ffffffffffffffffffffffffffffffffffffffff1614156143e45760146000369050036040519080825280601f01601f1916602001820160405280156143695781602001600182028038833980820191505090505b50905080506000600090505b81518110156143e25760003682818110151561438d57fe5b9050013560f81c60f81b82828151811015156143a557fe5b60200101907effffffffffffffffffffffffffffffffffffffffffffffffffffffffffffff1916908160001a9053505b8080600101915050614375565b505b809150506143ee56505b90565b600060d060005060008473ffffffffffffffffffffffffffffffffffffffff1673ffffffffffffffffffffffffffffffffffffffff16815260200190815260200160002060005060008373ffffffffffffffffffffffffffffffffffffffff1673ffffffffffffffffffffffffffffffffffffffff16815260200190815260200160002060009054906101000a900460ff16905061448a565b92915050565b6000600060cd600050600084815260200190815260200160002060009054906101000a900473ffffffffffffffffffffffffffffffffffffffff169050600073ffffffffffffffffffffffffffffffffffffffff168173ffffffffffffffffffffffffffffffffffffffff16141591505061450756505b919050565b60006014820183511015151561456d576040517f08c379a0000000000000000000000000000000000000000000000000000000008152600401808060200182810382526026815260200180615dcd6026913960400191505060405180910390fd5b601482019150815073ffffffffffffffffffffffffffffffffffffffff82840151169050809050614599565b92915050565b80603360006101000a81548173ffffffffffffffffffffffffffffffffffffffff021916908373ffffffffffffffffffffffffffffffffffffffff1602179055506145ee6136c963ffffffff16565b505b50565b60006000614606836128c263ffffffff16565b90508073ffffffffffffffffffffffffffffffffffffffff168473ffffffffffffffffffffffffffffffffffffffff16148061467b57508373ffffffffffffffffffffffffffffffffffffffff1661466384611c1d63ffffffff16565b73ffffffffffffffffffffffffffffffffffffffff16145b80614692575061469181856143f163ffffffff16565b5b91505061469b56505b92915050565b8273ffffffffffffffffffffffffffffffffffffffff166146c7826128c263ffffffff16565b73ffffffffffffffffffffffffffffffffffffffff161415156146ea5760006000fd5b600073ffffffffffffffffffffffffffffffffffffffff168273ffffffffffffffffffffffffffffffffffffffff16141515156147275760006000fd5b6147368161558063ffffffff16565b61478b60cf60005060008573ffffffffffffffffffffffffffffffffffffffff1673ffffffffffffffffffffffffffffffffffffffff168152602001908152602001600020600050615647909063ffffffff16565b6147e060cf60005060008473ffffffffffffffffffffffffffffffffffffffff1673ffffffffffffffffffffffffffffffffffffffff168152602001908152602001600020600050614e6e909063ffffffff16565b8160cd600050600083815260200190815260200160002060006101000a81548173ffffffffffffffffffffffffffffffffffffffff021916908373ffffffffffffffffffffffffffffffffffffffff160217905550808273ffffffffffffffffffffffffffffffffffffffff168473ffffffffffffffffffffffffffffffffffffffff167fddf252ad1be2c89b69c2b068fc378daa952ba7f163c4a11628f55a4df523b3ef60405160405180910390a45b505050565b60008282111515156148a85760006000fd5b60008284039050809150506148b956505b92915050565b60006148c9615ba3565b61019e6000506000848152602001908152602001600020600050604051806080016040529081600082016000505481526020016001820160005054815260200160028201600050548152602001600382016000505481526020015050905060006000905060006101a160009054906101000a900460ff1690505b60008160ff161115614a025760008160ff1643034090506149a2816001600289020160208110151561497157fe5b1a60f81b7effffffffffffffffffffffffffffffffffffffffffffffffffffffffffffff191661567363ffffffff16565b60086149e98360028a026020811015156149b857fe5b1a60f81b7effffffffffffffffffffffffffffffffffffffffffffffffffffffffffffff191661567363ffffffff16565b901b17830192508250505b808060019003915050614943565b5081604001516101a160009054906101000a900460ff1660ff1682811515614a2657fe5b040192505050614a335650505b919050565b60006000831415614a4c5760009050614a77565b60008284029050828482811515614a5f57fe5b04141515614a6d5760006000fd5b80915050614a7756505b92915050565b614a9b614a8f826128c263ffffffff16565b8261568563ffffffff16565b5b50565b600060008284019050838110151515614ab85760006000fd5b80915050614ac256505b92915050565b6000600073ffffffffffffffffffffffffffffffffffffffff168273ffffffffffffffffffffffffffffffffffffffff1614151515614b075760006000fd5b8260000160005060008373ffffffffffffffffffffffffffffffffffffffff1673ffffffffffffffffffffffffffffffffffffffff16815260200190815260200160002060009054906101000a900460ff169050614b60565b92915050565b60006000303b905060008114915050614b7b56505b90565b6000614b966380ac58cd60e01b611b0263ffffffff16565b9050614b9d565b90565b63ffffffff60e01b817bffffffffffffffffffffffffffffffffffffffffffffffffffffffff191614151515614bd65760006000fd5b6001609a6000506000837bffffffffffffffffffffffffffffffffffffffffffffffffffffffff19167bffffffffffffffffffffffffffffffffffffffffffffffffffffffff1916815260200190815260200160002060006101000a81548160ff0219169083151502179055505b50565b600073ffffffffffffffffffffffffffffffffffffffff168273ffffffffffffffffffffffffffffffffffffffff1614151515614c845760006000fd5b614c938161449063ffffffff16565b151515614ca05760006000fd5b8160cd600050600083815260200190815260200160002060006101000a81548173ffffffffffffffffffffffffffffffffffffffff021916908373ffffffffffffffffffffffffffffffffffffffff160217905550614d4a60cf60005060008473ffffffffffffffffffffffffffffffffffffffff1673ffffffffffffffffffffffffffffffffffffffff168152602001908152602001600020600050614e6e909063ffffffff16565b808273ffffffffffffffffffffffffffffffffffffffff16600073ffffffffffffffffffffffffffffffffffffffff167fddf252ad1be2c89b69c2b068fc378daa952ba7f163c4a11628f55a4df523b3ef60405160405180910390a45b5050565b614dba8261449063ffffffff16565b1515614dc65760006000fd5b8061010560005060008481526020019081526020016000206000509080519060200190614df4929190615b1e565b505b5050565b614e118160346000506156f690919063ffffffff16565b8073ffffffffffffffffffffffffffffffffffffffff167fcd265ebaf09df2871cc7bd4133404a235ba12eff2041bb89d9c714a2621c7c7e60405160405180910390a25b50565b600081600001600050549050614e69565b919050565b60018160000160008282825054019250508190909055505b50565b600060019054906101000a900460ff1680614eae5750614ead614b6663ffffffff16565b5b80614ec65750600060009054906101000a900460ff16155b1515614f1d576040517f08c379a000000000000000000000000000000000000000000000000000000000815260040180806020018281038252602e815260200180615d2a602e913960400191505060405180910390fd5b6000600060019054906101000a900460ff161590508015614f6f576001600060016101000a81548160ff0219169083151502179055506001600060006101000a81548160ff0219169083151502179055505b614f856301ffc9a760e01b614ba063ffffffff16565b5b8015614fa8576000600060016101000a81548160ff0219169083151502179055505b505b565b614fc38160346000506157b190919063ffffffff16565b8073ffffffffffffffffffffffffffffffffffffffff167f6719d08c1888103bea251a4ed56406bd0c3e69723c8a1686e017e7bbe159b6f860405160405180910390a25b50565b615022816101386000506157b190919063ffffffff16565b8073ffffffffffffffffffffffffffffffffffffffff167f6ae172837ea30b801fbfcdd4108aa1d5bf8ff775444fd70256b44e6bf3dfc3f660405160405180910390a25b50565b615081816101386000506156f690919063ffffffff16565b8073ffffffffffffffffffffffffffffffffffffffff167fe94479a9f7e1952cc78f2d6baab678adc1b772d936c6583def489e524cb6669260405160405180910390a25b50565b6000603360009054906101000a900473ffffffffffffffffffffffffffffffffffffffff1690506150f4565b90565b60006151208473ffffffffffffffffffffffffffffffffffffffff1661586d909063ffffffff16565b151561512f57600190506152eb565b60008473ffffffffffffffffffffffffffffffffffffffff1663150b7a02338887876040518563ffffffff1660e01b8152600401808573ffffffffffffffffffffffffffffffffffffffff1673ffffffffffffffffffffffffffffffffffffffff1681526020018473ffffffffffffffffffffffffffffffffffffffff1673ffffffffffffffffffffffffffffffffffffffff16815260200183815260200180602001828103825283818151815260200191508051906020019080838360005b8381101561520b5780820151818401525b6020810190506151ef565b50505050905090810190601f1680156152385780820380516001836020036101000a031916815260200191505b5095505050505050602060405180830381600087803b15801561525b5760006000fd5b505af1158015615270573d600060003e3d6000fd5b505050506040513d60208110156152875760006000fd5b8101908080519060200190929190505050905063150b7a0260e01b7bffffffffffffffffffffffffffffffffffffffffffffffffffffffff1916817bffffffffffffffffffffffffffffffffffffffffffffffffffffffff1916149150506152eb56505b949350505050565b600061530b635b5e139f60e01b611b0263ffffffff16565b9050615312565b90565b600060019054906101000a900460ff168061533a5750615339614b6663ffffffff16565b5b806153525750600060009054906101000a900460ff16155b15156153a9576040517f08c379a000000000000000000000000000000000000000000000000000000000815260040180806020018281038252602e815260200180615d2a602e913960400191505060405180910390fd5b6000600060019054906101000a900460ff1615905080156153fb576001600060016101000a81548160ff0219169083151502179055506001600060006101000a81548160ff0219169083151502179055505b61540a826136a363ffffffff16565b15156154205761541f8261500a63ffffffff16565b5b5b8015615443576000600060016101000a81548160ff0219169083151502179055505b505b50565b600060019054906101000a900460ff168061546d575061546c614b6663ffffffff16565b5b806154855750600060009054906101000a900460ff16155b15156154dc576040517f08c379a000000000000000000000000000000000000000000000000000000000815260040180806020018281038252602e815260200180615d2a602e913960400191505060405180910390fd5b6000600060019054906101000a900460ff16159050801561552e576001600060016101000a81548160ff0219169083151502179055506001600060006101000a81548160ff0219169083151502179055505b61553d8261588763ffffffff16565b6000606760006101000a81548160ff0219169083151502179055505b801561557b576000600060016101000a81548160ff0219169083151502179055505b505b50565b600073ffffffffffffffffffffffffffffffffffffffff1660ce600050600083815260200190815260200160002060009054906101000a900473ffffffffffffffffffffffffffffffffffffffff1673ffffffffffffffffffffffffffffffffffffffff1614151561564357600060ce600050600083815260200190815260200160002060006101000a81548173ffffffffffffffffffffffffffffffffffffffff021916908373ffffffffffffffffffffffffffffffffffffffff1602179055505b5b50565b6156626001826000016000505461489690919063ffffffff16565b816000016000508190909055505b50565b60008160001c9050615680565b919050565b61569582826159ba63ffffffff16565b600061010560005060008381526020019081526020016000206000508054600181600116156101000203166002900490501415156156f157610105600050600082815260200190815260200160002060006156f09190615bce565b5b5b5050565b600073ffffffffffffffffffffffffffffffffffffffff168173ffffffffffffffffffffffffffffffffffffffff16141515156157335760006000fd5b6157438282614ac863ffffffff16565b151561574f5760006000fd5b60008260000160005060008373ffffffffffffffffffffffffffffffffffffffff1673ffffffffffffffffffffffffffffffffffffffff16815260200190815260200160002060006101000a81548160ff0219169083151502179055505b5050565b600073ffffffffffffffffffffffffffffffffffffffff168173ffffffffffffffffffffffffffffffffffffffff16141515156157ee5760006000fd5b6157fe8282614ac863ffffffff16565b15151561580b5760006000fd5b60018260000160005060008373ffffffffffffffffffffffffffffffffffffffff1673ffffffffffffffffffffffffffffffffffffffff16815260200190815260200160002060006101000a81548160ff0219169083151502179055505b5050565b60006000823b90506000811191505061588256505b919050565b600060019054906101000a900460ff16806158ac57506158ab614b6663ffffffff16565b5b806158c45750600060009054906101000a900460ff16155b151561591b576040517f08c379a000000000000000000000000000000000000000000000000000000000815260040180806020018281038252602e815260200180615d2a602e913960400191505060405180910390fd5b6000600060019054906101000a900460ff16159050801561596d576001600060016101000a81548160ff0219169083151502179055506001600060006101000a81548160ff0219169083151502179055505b61597c8261263763ffffffff16565b15156159925761599182614fac63ffffffff16565b5b5b80156159b5576000600060016101000a81548160ff0219169083151502179055505b505b50565b8173ffffffffffffffffffffffffffffffffffffffff166159e0826128c263ffffffff16565b73ffffffffffffffffffffffffffffffffffffffff16141515615a035760006000fd5b615a128161558063ffffffff16565b615a6760cf60005060008473ffffffffffffffffffffffffffffffffffffffff1673ffffffffffffffffffffffffffffffffffffffff168152602001908152602001600020600050615647909063ffffffff16565b600060cd600050600083815260200190815260200160002060006101000a81548173ffffffffffffffffffffffffffffffffffffffff021916908373ffffffffffffffffffffffffffffffffffffffff16021790555080600073ffffffffffffffffffffffffffffffffffffffff168373ffffffffffffffffffffffffffffffffffffffff167fddf252ad1be2c89b69c2b068fc378daa952ba7f163c4a11628f55a4df523b3ef60405160405180910390a45b5050565b828054600181600116156101000203166002900490600052602060002090601f016020900481019282601f10615b5f57805160ff1916838001178555615b92565b82800160010185558215615b92579182015b82811115615b915782518260005090905591602001919060010190615b71565b5b509050615b9f9190615c16565b5090565b6040518060800160405280600081526020016000815260200160008152602001600081526020015090565b50805460018160011615610100020316600290046000825580601f10615bf45750615c13565b601f016020900490600052602060002090810190615c129190615c16565b5b50565b615c3e9190615c20565b80821115615c3a5760008181506000905550600101615c20565b5090565b9056fe507269636520446570746820706172616d65746572206d7573742062652077697468696e207468656e2072616e6765205b312d3235355d596f752063616e206f6e6c792067656e6572617465206e6577207374616d70732066726f6d2047656e30204e465473557365722068617320616c72656164792077697468647261776e20736f6d652062616c616e63655472616e73616374696f6e2063616e206f6e6c7920626520706572666f6d6564206279207468652072656c61796572536f727279212054686973205374616d70206973206e6f742063757272656e746c7920617661696c61626c65436f6e747261637420696e7374616e63652068617320616c7265616479206265656e20696e697469616c697a6564596f7520646f6e74206861766520616e79206f75747374616e64696e672062616c616e636520746f2077697468647261775072697a6520706f7420697320616c6d6f737420656d70747920736f206974206973206e6f206c6f6e67657220706f737369626c6520746f2073656c6c207374616d7073475245415445525f4f525f455155414c5f544f5f32305f4c454e4754485f5245515549524544a265627a7a723158208eb390e03390687f12f997021b9358e0a89ce0c91c137afba9b0666f5b41e91264736f6c634300050b0032",
  "compiler": {
    "name": "solc",
    "version": "0.5.11+commit.c082d0b4.Emscripten.clang",
    "optimizer": {},
    "evmVersion": "constantinople"
  }
}