{
  "contractName": "StampCollectible",
  "abi": [
    {
      "constant": true,
      "inputs": [
        {
          "name": "interfaceId",
          "type": "bytes4"
        }
      ],
      "name": "supportsInterface",
      "outputs": [
        {
          "name": "",
          "type": "bool"
        }
      ],
      "payable": false,
      "stateMutability": "view",
      "type": "function"
    },
    {
      "constant": true,
      "inputs": [],
      "name": "name",
      "outputs": [
        {
          "name": "",
          "type": "string"
        }
      ],
      "payable": false,
      "stateMutability": "view",
      "type": "function"
    },
    {
      "constant": true,
      "inputs": [
        {
          "name": "tokenId",
          "type": "uint256"
        }
      ],
      "name": "getApproved",
      "outputs": [
        {
          "name": "",
          "type": "address"
        }
      ],
      "payable": false,
      "stateMutability": "view",
      "type": "function"
    },
    {
      "constant": false,
      "inputs": [
        {
          "name": "to",
          "type": "address"
        },
        {
          "name": "tokenId",
          "type": "uint256"
        }
      ],
      "name": "approve",
      "outputs": [],
      "payable": false,
      "stateMutability": "nonpayable",
      "type": "function"
    },
    {
      "constant": false,
      "inputs": [
        {
          "name": "from",
          "type": "address"
        },
        {
          "name": "to",
          "type": "address"
        },
        {
          "name": "tokenId",
          "type": "uint256"
        }
      ],
      "name": "transferFrom",
      "outputs": [],
      "payable": false,
      "stateMutability": "nonpayable",
      "type": "function"
    },
    {
      "constant": false,
      "inputs": [],
      "name": "unpause",
      "outputs": [],
      "payable": false,
      "stateMutability": "nonpayable",
      "type": "function"
    },
    {
      "constant": false,
      "inputs": [
        {
          "name": "from",
          "type": "address"
        },
        {
          "name": "to",
          "type": "address"
        },
        {
          "name": "tokenId",
          "type": "uint256"
        }
      ],
      "name": "safeTransferFrom",
      "outputs": [],
      "payable": false,
      "stateMutability": "nonpayable",
      "type": "function"
    },
    {
      "constant": true,
      "inputs": [
        {
          "name": "account",
          "type": "address"
        }
      ],
      "name": "isPauser",
      "outputs": [
        {
          "name": "",
          "type": "bool"
        }
      ],
      "payable": false,
      "stateMutability": "view",
      "type": "function"
    },
    {
      "constant": false,
      "inputs": [
        {
          "name": "to",
          "type": "address"
        },
        {
          "name": "tokenId",
          "type": "uint256"
        },
        {
          "name": "tokenURI",
          "type": "string"
        }
      ],
      "name": "mintWithTokenURI",
      "outputs": [
        {
          "name": "",
          "type": "bool"
        }
      ],
      "payable": false,
      "stateMutability": "nonpayable",
      "type": "function"
    },
    {
      "constant": true,
      "inputs": [],
      "name": "paused",
      "outputs": [
        {
          "name": "",
          "type": "bool"
        }
      ],
      "payable": false,
      "stateMutability": "view",
      "type": "function"
    },
    {
      "constant": true,
      "inputs": [
        {
          "name": "tokenId",
          "type": "uint256"
        }
      ],
      "name": "ownerOf",
      "outputs": [
        {
          "name": "",
          "type": "address"
        }
      ],
      "payable": false,
      "stateMutability": "view",
      "type": "function"
    },
    {
      "constant": true,
      "inputs": [
        {
          "name": "",
          "type": "address"
        }
      ],
      "name": "outstandingBalance",
      "outputs": [
        {
          "name": "",
          "type": "uint256"
        }
      ],
      "payable": false,
      "stateMutability": "view",
      "type": "function"
    },
    {
      "constant": false,
      "inputs": [],
      "name": "renouncePauser",
      "outputs": [],
      "payable": false,
      "stateMutability": "nonpayable",
      "type": "function"
    },
    {
      "constant": true,
      "inputs": [
        {
          "name": "owner",
          "type": "address"
        }
      ],
      "name": "balanceOf",
      "outputs": [
        {
          "name": "",
          "type": "uint256"
        }
      ],
      "payable": false,
      "stateMutability": "view",
      "type": "function"
    },
    {
      "constant": true,
      "inputs": [
        {
          "name": "",
          "type": "uint256"
        }
      ],
      "name": "ownedTokensIndex",
      "outputs": [
        {
          "name": "",
          "type": "bool"
        }
      ],
      "payable": false,
      "stateMutability": "view",
      "type": "function"
    },
    {
      "constant": false,
      "inputs": [
        {
          "name": "account",
          "type": "address"
        }
      ],
      "name": "addPauser",
      "outputs": [],
      "payable": false,
      "stateMutability": "nonpayable",
      "type": "function"
    },
    {
      "constant": false,
      "inputs": [],
      "name": "pause",
      "outputs": [],
      "payable": false,
      "stateMutability": "nonpayable",
      "type": "function"
    },
    {
      "constant": true,
      "inputs": [],
      "name": "maxClones",
      "outputs": [
        {
          "name": "",
          "type": "uint256"
        }
      ],
      "payable": false,
      "stateMutability": "view",
      "type": "function"
    },
    {
      "constant": true,
      "inputs": [],
      "name": "symbol",
      "outputs": [
        {
          "name": "",
          "type": "string"
        }
      ],
      "payable": false,
      "stateMutability": "view",
      "type": "function"
    },
    {
      "constant": false,
      "inputs": [
        {
          "name": "account",
          "type": "address"
        }
      ],
      "name": "addMinter",
      "outputs": [],
      "payable": false,
      "stateMutability": "nonpayable",
      "type": "function"
    },
    {
      "constant": false,
      "inputs": [],
      "name": "renounceMinter",
      "outputs": [],
      "payable": false,
      "stateMutability": "nonpayable",
      "type": "function"
    },
    {
      "constant": false,
      "inputs": [
        {
          "name": "to",
          "type": "address"
        },
        {
          "name": "approved",
          "type": "bool"
        }
      ],
      "name": "setApprovalForAll",
      "outputs": [],
      "payable": false,
      "stateMutability": "nonpayable",
      "type": "function"
    },
    {
      "constant": true,
      "inputs": [],
      "name": "totalMinted",
      "outputs": [
        {
          "name": "_value",
          "type": "uint256"
        }
      ],
      "payable": false,
      "stateMutability": "view",
      "type": "function"
    },
    {
      "constant": true,
      "inputs": [
        {
          "name": "account",
          "type": "address"
        }
      ],
      "name": "isMinter",
      "outputs": [
        {
          "name": "",
          "type": "bool"
        }
      ],
      "payable": false,
      "stateMutability": "view",
      "type": "function"
    },
    {
      "constant": false,
      "inputs": [
        {
          "name": "from",
          "type": "address"
        },
        {
          "name": "to",
          "type": "address"
        },
        {
          "name": "tokenId",
          "type": "uint256"
        },
        {
          "name": "_data",
          "type": "bytes"
        }
      ],
      "name": "safeTransferFrom",
      "outputs": [],
      "payable": false,
      "stateMutability": "nonpayable",
      "type": "function"
    },
    {
      "constant": true,
      "inputs": [
        {
          "name": "tokenId",
          "type": "uint256"
        }
      ],
      "name": "tokenURI",
      "outputs": [
        {
          "name": "",
          "type": "string"
        }
      ],
      "payable": false,
      "stateMutability": "view",
      "type": "function"
    },
    {
      "constant": true,
      "inputs": [
        {
          "name": "",
          "type": "address"
        },
        {
          "name": "",
          "type": "uint256"
        }
      ],
      "name": "balances",
      "outputs": [
        {
          "name": "owned",
          "type": "bool"
        },
        {
          "name": "tokenId",
          "type": "uint256"
        }
      ],
      "payable": false,
      "stateMutability": "view",
      "type": "function"
    },
    {
      "constant": true,
      "inputs": [
        {
          "name": "",
          "type": "uint256"
        }
      ],
      "name": "stamps",
      "outputs": [
        {
          "name": "price",
          "type": "uint256"
        },
        {
          "name": "maxClones",
          "type": "uint256"
        },
        {
          "name": "inWild",
          "type": "uint256"
        },
        {
          "name": "clonedFrom",
          "type": "uint256"
        }
      ],
      "payable": false,
      "stateMutability": "view",
      "type": "function"
    },
    {
      "constant": true,
      "inputs": [
        {
          "name": "owner",
          "type": "address"
        },
        {
          "name": "operator",
          "type": "address"
        }
      ],
      "name": "isApprovedForAll",
      "outputs": [
        {
          "name": "",
          "type": "bool"
        }
      ],
      "payable": false,
      "stateMutability": "view",
      "type": "function"
    },
    {
      "payable": true,
      "stateMutability": "payable",
      "type": "fallback"
    },
    {
      "anonymous": false,
      "inputs": [
        {
          "indexed": true,
          "name": "owner",
          "type": "address"
        },
        {
          "indexed": false,
          "name": "tokenId",
          "type": "uint256"
        },
        {
          "indexed": false,
          "name": "price",
          "type": "uint256"
        }
      ],
      "name": "MintedStamp",
      "type": "event"
    },
    {
      "anonymous": false,
      "inputs": [
        {
          "indexed": true,
          "name": "owner",
          "type": "address"
        },
        {
          "indexed": false,
          "name": "tokenId",
          "type": "uint256"
        },
        {
          "indexed": false,
          "name": "price",
          "type": "uint256"
        }
      ],
      "name": "NewStamp",
      "type": "event"
    },
    {
      "anonymous": false,
      "inputs": [
        {
          "indexed": true,
          "name": "owner",
          "type": "address"
        },
        {
          "indexed": false,
          "name": "tokenId",
          "type": "uint256"
        },
        {
          "indexed": false,
          "name": "clonedTokenId",
          "type": "uint256"
        }
      ],
      "name": "BurnedStamp",
      "type": "event"
    },
    {
      "anonymous": false,
      "inputs": [
        {
          "indexed": true,
          "name": "owner",
          "type": "address"
        },
        {
          "indexed": false,
          "name": "amount",
          "type": "uint256"
        }
      ],
      "name": "WithdrawnBalance",
      "type": "event"
    },
    {
      "anonymous": false,
      "inputs": [
        {
          "indexed": true,
          "name": "account",
          "type": "address"
        }
      ],
      "name": "MinterAdded",
      "type": "event"
    },
    {
      "anonymous": false,
      "inputs": [
        {
          "indexed": true,
          "name": "account",
          "type": "address"
        }
      ],
      "name": "MinterRemoved",
      "type": "event"
    },
    {
      "anonymous": false,
      "inputs": [
        {
          "indexed": true,
          "name": "from",
          "type": "address"
        },
        {
          "indexed": true,
          "name": "to",
          "type": "address"
        },
        {
          "indexed": true,
          "name": "tokenId",
          "type": "uint256"
        }
      ],
      "name": "Transfer",
      "type": "event"
    },
    {
      "anonymous": false,
      "inputs": [
        {
          "indexed": true,
          "name": "owner",
          "type": "address"
        },
        {
          "indexed": true,
          "name": "approved",
          "type": "address"
        },
        {
          "indexed": true,
          "name": "tokenId",
          "type": "uint256"
        }
      ],
      "name": "Approval",
      "type": "event"
    },
    {
      "anonymous": false,
      "inputs": [
        {
          "indexed": true,
          "name": "owner",
          "type": "address"
        },
        {
          "indexed": true,
          "name": "operator",
          "type": "address"
        },
        {
          "indexed": false,
          "name": "approved",
          "type": "bool"
        }
      ],
      "name": "ApprovalForAll",
      "type": "event"
    },
    {
      "anonymous": false,
      "inputs": [
        {
          "indexed": false,
          "name": "account",
          "type": "address"
        }
      ],
      "name": "Paused",
      "type": "event"
    },
    {
      "anonymous": false,
      "inputs": [
        {
          "indexed": false,
          "name": "account",
          "type": "address"
        }
      ],
      "name": "Unpaused",
      "type": "event"
    },
    {
      "anonymous": false,
      "inputs": [
        {
          "indexed": true,
          "name": "account",
          "type": "address"
        }
      ],
      "name": "PauserAdded",
      "type": "event"
    },
    {
      "anonymous": false,
      "inputs": [
        {
          "indexed": true,
          "name": "account",
          "type": "address"
        }
      ],
      "name": "PauserRemoved",
      "type": "event"
    },
    {
      "constant": false,
      "inputs": [
        {
          "name": "name",
          "type": "string"
        },
        {
          "name": "symbol",
          "type": "string"
        }
      ],
      "name": "initialize",
      "outputs": [],
      "payable": false,
      "stateMutability": "nonpayable",
      "type": "function"
    },
    {
      "constant": false,
      "inputs": [],
      "name": "initialize",
      "outputs": [],
      "payable": false,
      "stateMutability": "nonpayable",
      "type": "function"
    },
    {
      "constant": false,
      "inputs": [
        {
          "name": "sender",
          "type": "address"
        }
      ],
      "name": "initialize",
      "outputs": [],
      "payable": false,
      "stateMutability": "nonpayable",
      "type": "function"
    },
    {
      "constant": false,
      "inputs": [
        {
          "name": "_maxClones",
          "type": "uint256"
        },
        {
          "name": "_priceDepth",
          "type": "uint8"
        },
        {
          "name": "_costMultiplier",
          "type": "uint256"
        },
        {
          "name": "_name",
          "type": "string"
        },
        {
          "name": "_symbol",
          "type": "string"
        }
      ],
      "name": "initialize",
      "outputs": [],
      "payable": false,
      "stateMutability": "nonpayable",
      "type": "function"
    },
    {
      "constant": false,
      "inputs": [
        {
          "name": "_priceFinney",
          "type": "uint256"
        },
        {
          "name": "_tokenURI",
          "type": "string"
        }
      ],
      "name": "mint",
      "outputs": [
        {
          "name": "",
          "type": "bool"
        }
      ],
      "payable": false,
      "stateMutability": "nonpayable",
      "type": "function"
    },
    {
      "constant": false,
      "inputs": [
        {
          "name": "sender",
          "type": "address"
        },
        {
          "name": "_tokenId",
          "type": "uint256"
        }
      ],
      "name": "buyStamp",
      "outputs": [
        {
          "name": "",
          "type": "uint256"
        }
      ],
      "payable": true,
      "stateMutability": "payable",
      "type": "function"
    },
    {
      "constant": false,
      "inputs": [
        {
          "name": "_tokenId",
          "type": "uint256"
        }
      ],
      "name": "sellStamp",
      "outputs": [
        {
          "name": "",
          "type": "bool"
        }
      ],
      "payable": false,
      "stateMutability": "nonpayable",
      "type": "function"
    },
    {
      "constant": false,
      "inputs": [],
      "name": "withdraw",
      "outputs": [
        {
          "name": "",
          "type": "bool"
        }
      ],
      "payable": false,
      "stateMutability": "nonpayable",
      "type": "function"
    }
  ],
  "bytecode": "0x608060405234801561001057600080fd5b5061447d806100206000396000f3fe60806040526004361061021a5760003560e01c806377097fc811610123578063a22cb465116100ab578063c87b56dd1161006f578063c87b56dd14610f8f578063cbdfa15314611043578063cbf1304d146111c3578063ccd68f3b1461123d578063e985e9c5146112a15761021a565b8063a22cb46514610d3b578063a2309ff814610d98578063aa271e1a14610dc3578063b88d4fde14610e2c578063c4d66de814610f3e5761021a565b80638a337d8a116100f25780638a337d8a14610bb657806395d89b4114610be1578063983b2d5614610c715780639865027514610cc25780639925856e14610cd95761021a565b806377097fc814610a4d5780638129fc1c14610b3757806382dc1ec414610b4e5780638456cb5914610b9f5761021a565b806346fbf68e116101a65780636352211e116101755780636352211e1461089e5780636a6da61e146109195780636ef8d66d1461097e57806370a082311461099557806374e24367146109fa5761021a565b806346fbf68e1461059d5780634cd88b761461060657806350bb4e7f146107655780635c975abb1461086f5761021a565b806323b872dd116101ed57806323b872dd1461040e5780632620aced146104895780633ccfd60b146104dc5780633f4ba83a1461050b57806342842e0e146105225761021a565b806301ffc9a71461023657806306fdde03146102a8578063081812fc14610338578063095ea7b3146103b3575b606660009054906101000a900460ff161561023457600080fd5b005b34801561024257600080fd5b5061028e6004803603602081101561025957600080fd5b8101908080357bffffffffffffffffffffffffffffffffffffffffffffffffffffffff1916906020019092919050505061132a565b604051808215151515815260200191505060405180910390f35b3480156102b457600080fd5b506102bd611392565b6040518080602001828103825283818151815260200191508051906020019080838360005b838110156102fd5780820151818401526020810190506102e2565b50505050905090810190601f16801561032a5780820380516001836020036101000a031916815260200191505b509250505060405180910390f35b34801561034457600080fd5b506103716004803603602081101561035b57600080fd5b8101908080359060200190929190505050611435565b604051808273ffffffffffffffffffffffffffffffffffffffff1673ffffffffffffffffffffffffffffffffffffffff16815260200191505060405180910390f35b3480156103bf57600080fd5b5061040c600480360360408110156103d657600080fd5b81019080803573ffffffffffffffffffffffffffffffffffffffff16906020019092919080359060200190929190505050611484565b005b34801561041a57600080fd5b506104876004803603606081101561043157600080fd5b81019080803573ffffffffffffffffffffffffffffffffffffffff169060200190929190803573ffffffffffffffffffffffffffffffffffffffff169060200190929190803590602001909291905050506115c5565b005b34801561049557600080fd5b506104c2600480360360208110156104ac57600080fd5b81019080803590602001909291905050506115e8565b604051808215151515815260200191505060405180910390f35b3480156104e857600080fd5b506104f161199b565b604051808215151515815260200191505060405180910390f35b34801561051757600080fd5b50610520611b78565b005b34801561052e57600080fd5b5061059b6004803603606081101561054557600080fd5b81019080803573ffffffffffffffffffffffffffffffffffffffff169060200190929190803573ffffffffffffffffffffffffffffffffffffffff16906020019092919080359060200190929190505050611c23565b005b3480156105a957600080fd5b506105ec600480360360208110156105c057600080fd5b81019080803573ffffffffffffffffffffffffffffffffffffffff169060200190929190505050611c43565b604051808215151515815260200191505060405180910390f35b34801561061257600080fd5b506107636004803603604081101561062957600080fd5b810190808035906020019064010000000081111561064657600080fd5b82018360208201111561065857600080fd5b8035906020019184600183028401116401000000008311171561067a57600080fd5b91908080601f016020809104026020016040519081016040528093929190818152602001838380828437600081840152601f19601f820116905080830192505050505050509192919290803590602001906401000000008111156106dd57600080fd5b8201836020820111156106ef57600080fd5b8035906020019184600183028401116401000000008311171561071157600080fd5b91908080601f016020809104026020016040519081016040528093929190818152602001838380828437600081840152601f19601f820116905080830192505050505050509192919290505050611c60565b005b34801561077157600080fd5b506108556004803603606081101561078857600080fd5b81019080803573ffffffffffffffffffffffffffffffffffffffff16906020019092919080359060200190929190803590602001906401000000008111156107cf57600080fd5b8201836020820111156107e157600080fd5b8035906020019184600183028401116401000000008311171561080357600080fd5b91908080601f016020809104026020016040519081016040528093929190818152602001838380828437600081840152601f19601f820116905080830192505050505050509192919290505050611db2565b604051808215151515815260200191505060405180910390f35b34801561087b57600080fd5b50610884611de5565b604051808215151515815260200191505060405180910390f35b3480156108aa57600080fd5b506108d7600480360360208110156108c157600080fd5b8101908080359060200190929190505050611dfc565b604051808273ffffffffffffffffffffffffffffffffffffffff1673ffffffffffffffffffffffffffffffffffffffff16815260200191505060405180910390f35b34801561092557600080fd5b506109686004803603602081101561093c57600080fd5b81019080803573ffffffffffffffffffffffffffffffffffffffff169060200190929190505050611e78565b6040518082815260200191505060405180910390f35b34801561098a57600080fd5b50610993611e91565b005b3480156109a157600080fd5b506109e4600480360360208110156109b857600080fd5b81019080803573ffffffffffffffffffffffffffffffffffffffff169060200190929190505050611e9c565b6040518082815260200191505060405180910390f35b348015610a0657600080fd5b50610a3360048036036020811015610a1d57600080fd5b8101908080359060200190929190505050611f25565b604051808215151515815260200191505060405180910390f35b348015610a5957600080fd5b50610b1d60048036036040811015610a7057600080fd5b810190808035906020019092919080359060200190640100000000811115610a9757600080fd5b820183602082011115610aa957600080fd5b80359060200191846001830284011164010000000083111715610acb57600080fd5b91908080601f016020809104026020016040519081016040528093929190818152602001838380828437600081840152601f19601f820116905080830192505050505050509192919290505050611f46565b604051808215151515815260200191505060405180910390f35b348015610b4357600080fd5b50610b4c6120ab565b005b348015610b5a57600080fd5b50610b9d60048036036020811015610b7157600080fd5b81019080803573ffffffffffffffffffffffffffffffffffffffff1690602001909291905050506121c2565b005b348015610bab57600080fd5b50610bb46121e0565b005b348015610bc257600080fd5b50610bcb61228c565b6040518082815260200191505060405180910390f35b348015610bed57600080fd5b50610bf6612293565b6040518080602001828103825283818151815260200191508051906020019080838360005b83811015610c36578082015181840152602081019050610c1b565b50505050905090810190601f168015610c635780820380516001836020036101000a031916815260200191505b509250505060405180910390f35b348015610c7d57600080fd5b50610cc060048036036020811015610c9457600080fd5b81019080803573ffffffffffffffffffffffffffffffffffffffff169060200190929190505050612336565b005b348015610cce57600080fd5b50610cd7612354565b005b610d2560048036036040811015610cef57600080fd5b81019080803573ffffffffffffffffffffffffffffffffffffffff1690602001909291908035906020019092919050505061235f565b6040518082815260200191505060405180910390f35b348015610d4757600080fd5b50610d9660048036036040811015610d5e57600080fd5b81019080803573ffffffffffffffffffffffffffffffffffffffff169060200190929190803515159060200190929190505050612804565b005b348015610da457600080fd5b50610dad61293e565b6040518082815260200191505060405180910390f35b348015610dcf57600080fd5b50610e1260048036036020811015610de657600080fd5b81019080803573ffffffffffffffffffffffffffffffffffffffff16906020019092919050505061294b565b604051808215151515815260200191505060405180910390f35b348015610e3857600080fd5b50610f3c60048036036080811015610e4f57600080fd5b81019080803573ffffffffffffffffffffffffffffffffffffffff169060200190929190803573ffffffffffffffffffffffffffffffffffffffff1690602001909291908035906020019092919080359060200190640100000000811115610eb657600080fd5b820183602082011115610ec857600080fd5b80359060200191846001830284011164010000000083111715610eea57600080fd5b91908080601f016020809104026020016040519081016040528093929190818152602001838380828437600081840152601f19601f820116905080830192505050505050509192919290505050612969565b005b348015610f4a57600080fd5b50610f8d60048036036020811015610f6157600080fd5b81019080803573ffffffffffffffffffffffffffffffffffffffff16906020019092919050505061298f565b005b348015610f9b57600080fd5b50610fc860048036036020811015610fb257600080fd5b8101908080359060200190929190505050612aba565b6040518080602001828103825283818151815260200191508051906020019080838360005b83811015611008578082015181840152602081019050610fed565b50505050905090810190601f1680156110355780820380516001836020036101000a031916815260200191505b509250505060405180910390f35b34801561104f57600080fd5b506111c1600480360360a081101561106657600080fd5b8101908080359060200190929190803560ff16906020019092919080359060200190929190803590602001906401000000008111156110a457600080fd5b8201836020820111156110b657600080fd5b803590602001918460018302840111640100000000831117156110d857600080fd5b91908080601f016020809104026020016040519081016040528093929190818152602001838380828437600081840152601f19601f8201169050808301925050505050505091929192908035906020019064010000000081111561113b57600080fd5b82018360208201111561114d57600080fd5b8035906020019184600183028401116401000000008311171561116f57600080fd5b91908080601f016020809104026020016040519081016040528093929190818152602001838380828437600081840152601f19601f820116905080830192505050505050509192919290505050612b82565b005b3480156111cf57600080fd5b5061121c600480360360408110156111e657600080fd5b81019080803573ffffffffffffffffffffffffffffffffffffffff16906020019092919080359060200190929190505050612dc8565b60405180831515151581526020018281526020019250505060405180910390f35b34801561124957600080fd5b506112766004803603602081101561126057600080fd5b8101908080359060200190929190505050612e07565b6040518085815260200184815260200183815260200182815260200194505050505060405180910390f35b3480156112ad57600080fd5b50611310600480360360408110156112c457600080fd5b81019080803573ffffffffffffffffffffffffffffffffffffffff169060200190929190803573ffffffffffffffffffffffffffffffffffffffff169060200190929190505050612e38565b604051808215151515815260200191505060405180910390f35b600060996000837bffffffffffffffffffffffffffffffffffffffffffffffffffffffff19167bffffffffffffffffffffffffffffffffffffffffffffffffffffffff1916815260200190815260200160002060009054906101000a900460ff169050919050565b60606101028054600181600116156101000203166002900480601f01602080910402602001604051908101604052809291908181526020018280546001816001161561010002031660029004801561142b5780601f106114005761010080835404028352916020019161142b565b820191906000526020600020905b81548152906001019060200180831161140e57829003601f168201915b5050505050905090565b600061144082612ecc565b61144957600080fd5b60cd600083815260200190815260200160002060009054906101000a900473ffffffffffffffffffffffffffffffffffffffff169050919050565b600061148f82611dfc565b90508073ffffffffffffffffffffffffffffffffffffffff168373ffffffffffffffffffffffffffffffffffffffff1614156114ca57600080fd5b8073ffffffffffffffffffffffffffffffffffffffff163373ffffffffffffffffffffffffffffffffffffffff16148061150a57506115098133612e38565b5b61151357600080fd5b8260cd600084815260200190815260200160002060006101000a81548173ffffffffffffffffffffffffffffffffffffffff021916908373ffffffffffffffffffffffffffffffffffffffff160217905550818373ffffffffffffffffffffffffffffffffffffffff168273ffffffffffffffffffffffffffffffffffffffff167f8c5be1e5ebec7d5bd14f71427d1e84f3dd0314c0f7b2291e5b200ac8c7c3b92560405160405180910390a4505050565b6115cf3382612f3e565b6115d857600080fd5b6115e3838383612fd3565b505050565b6000606660009054906101000a900460ff161561160457600080fd5b6101a260003373ffffffffffffffffffffffffffffffffffffffff1673ffffffffffffffffffffffffffffffffffffffff168152602001908152602001600020600083815260200190815260200160002060000160009054906101000a900460ff166116d8576040517f08c379a000000000000000000000000000000000000000000000000000000000815260040180806020018281038252601c8152602001807f5573657220646f6573206e6f74206f776e2074686973207374616d700000000081525060200191505060405180910390fd5b600061019d60008481526020019081526020016000209050600081600001549050803073ffffffffffffffffffffffffffffffffffffffff16311015611769576040517f08c379a000000000000000000000000000000000000000000000000000000000815260040180806020018281038252604481526020018061440e6044913960600191505060405180910390fd5b6117816001836002015461319690919063ffffffff16565b82600201819055506117ab6101a154611799866131b6565b61ffff166132fd90919063ffffffff16565b826000018190555060006101a260003373ffffffffffffffffffffffffffffffffffffffff1673ffffffffffffffffffffffffffffffffffffffff1681526020019081526020016000206000868152602001908152602001600020905060008160000160006101000a81548160ff0219169083151502179055506118328160010154613337565b600061019e60008360010154815260200190815260200160002060006101000a81548160ff0219169083151502179055503373ffffffffffffffffffffffffffffffffffffffff167f106852634153ba32c7db4c08ec749c468343ebd82b312b849a331f58a164867a868360010154604051808381526020018281526020019250505060405180910390a261019d600082600101548152602001908152602001600020600080820160009055600182016000905560028201600090556003820160009055505061194b826101a360003373ffffffffffffffffffffffffffffffffffffffff1673ffffffffffffffffffffffffffffffffffffffff1681526020019081526020016000205461334c90919063ffffffff16565b6101a360003373ffffffffffffffffffffffffffffffffffffffff1673ffffffffffffffffffffffffffffffffffffffff1681526020019081526020016000208190555060019350505050919050565b6000606660009054906101000a900460ff16156119b757600080fd5b60006101a360003373ffffffffffffffffffffffffffffffffffffffff1673ffffffffffffffffffffffffffffffffffffffff1681526020019081526020016000205411611a50576040517f08c379a00000000000000000000000000000000000000000000000000000000081526004018080602001828103825260318152602001806143dd6031913960400191505060405180910390fd5b60006101a360003373ffffffffffffffffffffffffffffffffffffffff1673ffffffffffffffffffffffffffffffffffffffff16815260200190815260200160002054905060006101a360003373ffffffffffffffffffffffffffffffffffffffff1673ffffffffffffffffffffffffffffffffffffffff168152602001908152602001600020819055503373ffffffffffffffffffffffffffffffffffffffff167f76a3496ed122399b6d8c356545cf5095195fd823dc634be8fcd7b275976679a7826040518082815260200191505060405180910390a23373ffffffffffffffffffffffffffffffffffffffff166108fc829081150290604051600060405180830381858888f19350505050158015611b6f573d6000803e3d6000fd5b50600191505090565b611b8133611c43565b611b8a57600080fd5b606660009054906101000a900460ff16611ba357600080fd5b6000606660006101000a81548160ff0219169083151502179055507f5db9ee0a495bf2e6ff9c91a7834c1ba4fdd244a5e8aa4e537bd38aeae4b073aa33604051808273ffffffffffffffffffffffffffffffffffffffff1673ffffffffffffffffffffffffffffffffffffffff16815260200191505060405180910390a1565b611c3e83838360405180602001604052806000815250612969565b505050565b6000611c5982603361336b90919063ffffffff16565b9050919050565b600060019054906101000a900460ff1680611c7f5750611c7e6133fd565b5b80611c9657506000809054906101000a900460ff16155b611ceb576040517f08c379a000000000000000000000000000000000000000000000000000000000815260040180806020018281038252602e8152602001806143af602e913960400191505060405180910390fd5b60008060019054906101000a900460ff161590508015611d3b576001600060016101000a81548160ff02191690831515021790555060016000806101000a81548160ff0219169083151502179055505b611d4361340e565b611d4c57600080fd5b826101029080519060200190611d63929190614233565b50816101039080519060200190611d7b929190614233565b50611d8c635b5e139f60e01b613425565b8015611dad5760008060016101000a81548160ff0219169083151502179055505b505050565b6000611dbd3361294b565b611dc657600080fd5b611dd084846134c5565b611dda838361360b565b600190509392505050565b6000606660009054906101000a900460ff16905090565b60008060cc600084815260200190815260200160002060009054906101000a900473ffffffffffffffffffffffffffffffffffffffff169050600073ffffffffffffffffffffffffffffffffffffffff168173ffffffffffffffffffffffffffffffffffffffff161415611e6f57600080fd5b80915050919050565b6101a36020528060005260406000206000915090505481565b611e9a3361364a565b565b60008073ffffffffffffffffffffffffffffffffffffffff168273ffffffffffffffffffffffffffffffffffffffff161415611ed757600080fd5b611f1e60ce60008473ffffffffffffffffffffffffffffffffffffffff1673ffffffffffffffffffffffffffffffffffffffff1681526020019081526020016000206136a4565b9050919050565b61019e6020528060005260406000206000915054906101000a900460ff1681565b6000611f513361294b565b611f5a57600080fd5b606660009054906101000a900460ff1615611f7457600080fd5b611f7c6142b3565b6040518060800160405280611f9d6101a154876132fd90919063ffffffff16565b815260200161019f5481526020016000815260200160008152509050611fc461019c6136b2565b6000611fd161019c6136a4565b90508161019d600083815260200190815260200160002060008201518160000155602082015181600101556040820151816002015560608201518160030155905050600161019e600083815260200190815260200160002060006101000a81548160ff0219169083151502179055503373ffffffffffffffffffffffffffffffffffffffff167f51a8f6a84a50f4da36896f422d3ec8416e819501f8ee32dfed22316b472f07978287604051808381526020018281526020019250505060405180910390a26120a1338286611db2565b9250505092915050565b600060019054906101000a900460ff16806120ca57506120c96133fd565b5b806120e157506000809054906101000a900460ff16155b612136576040517f08c379a000000000000000000000000000000000000000000000000000000000815260040180806020018281038252602e8152602001806143af602e913960400191505060405180910390fd5b60008060019054906101000a900460ff161590508015612186576001600060016101000a81548160ff02191690831515021790555060016000806101000a81548160ff0219169083151502179055505b61218e6136c8565b61219e6380ac58cd60e01b613425565b80156121bf5760008060016101000a81548160ff0219169083151502179055505b50565b6121cb33611c43565b6121d457600080fd5b6121dd816137d7565b50565b6121e933611c43565b6121f257600080fd5b606660009054906101000a900460ff161561220c57600080fd5b6001606660006101000a81548160ff0219169083151502179055507f62e78cea01bee320cd4e420270b5ea74000d11b0c9f74754ebdbfc544b05a25833604051808273ffffffffffffffffffffffffffffffffffffffff1673ffffffffffffffffffffffffffffffffffffffff16815260200191505060405180910390a1565b61019f5481565b60606101038054600181600116156101000203166002900480601f01602080910402602001604051908101604052809291908181526020018280546001816001161561010002031660029004801561232c5780601f106123015761010080835404028352916020019161232c565b820191906000526020600020905b81548152906001019060200180831161230f57829003601f168201915b5050505050905090565b61233f3361294b565b61234857600080fd5b61235181613831565b50565b61235d3361388c565b565b6000606660009054906101000a900460ff161561237b57600080fd5b600061019d6000848152602001908152602001600020905060008160030154146123f0576040517f08c379a000000000000000000000000000000000000000000000000000000000815260040180806020018281038252602f815260200180614380602f913960400191505060405180910390fd5b6101a260008573ffffffffffffffffffffffffffffffffffffffff1673ffffffffffffffffffffffffffffffffffffffff168152602001908152602001600020600084815260200190815260200160002060000160009054906101000a900460ff16156124c5576040517f08c379a000000000000000000000000000000000000000000000000000000000815260040180806020018281038252601a8152602001807f596f7520616c7265616479206f776e2074686973207374616d7000000000000081525060200191505060405180910390fd5b80600101546124e26001836002015461334c90919063ffffffff16565b1115612556576040517f08c379a000000000000000000000000000000000000000000000000000000000815260040180806020018281038252601c8152602001807f4d617820636c6f6e65732068617665206265656e20726561636865640000000081525060200191505060405180910390fd5b80600001543410156125d0576040517f08c379a00000000000000000000000000000000000000000000000000000000081526004018080602001828103825260108152602001807f4e6f7420656e6f7567682066756e64730000000000000000000000000000000081525060200191505060405180910390fd5b6125e86001826002015461334c90919063ffffffff16565b81600201819055506126126101a154612600856131b6565b61ffff166132fd90919063ffffffff16565b816000018190555061262561019c6136b2565b600061263261019c6136a4565b905061263c6142b3565b60405180608001604052808460000154815260200160008152602001600081526020018681525090508061019d600084815260200190815260200160002060008201518160000155602082015181600101556040820151816002015560608201518160030155905050600161019e600084815260200190815260200160002060006101000a81548160ff0219169083151502179055506126dc86836134c5565b60016101a260008873ffffffffffffffffffffffffffffffffffffffff1673ffffffffffffffffffffffffffffffffffffffff168152602001908152602001600020600087815260200190815260200160002060000160006101000a81548160ff021916908315150217905550816101a260008873ffffffffffffffffffffffffffffffffffffffff1673ffffffffffffffffffffffffffffffffffffffff1681526020019081526020016000206000878152602001908152602001600020600101819055508573ffffffffffffffffffffffffffffffffffffffff167f550b743fe7aa34355e646fd0ad2178394d4cdcad0692a40382c8663e61fce7be8334604051808381526020018281526020019250505060405180910390a281935050505092915050565b3373ffffffffffffffffffffffffffffffffffffffff168273ffffffffffffffffffffffffffffffffffffffff16141561283d57600080fd5b8060cf60003373ffffffffffffffffffffffffffffffffffffffff1673ffffffffffffffffffffffffffffffffffffffff16815260200190815260200160002060008473ffffffffffffffffffffffffffffffffffffffff1673ffffffffffffffffffffffffffffffffffffffff16815260200190815260200160002060006101000a81548160ff0219169083151502179055508173ffffffffffffffffffffffffffffffffffffffff163373ffffffffffffffffffffffffffffffffffffffff167f17307eab39ab6107e8899845ad3d59bd9653f200f220920489ca2b5937696c3183604051808215151515815260200191505060405180910390a35050565b61019c8060000154905081565b60006129628261013761336b90919063ffffffff16565b9050919050565b6129748484846115c5565b612980848484846138e7565b61298957600080fd5b50505050565b600060019054906101000a900460ff16806129ae57506129ad6133fd565b5b806129c557506000809054906101000a900460ff16155b612a1a576040517f08c379a000000000000000000000000000000000000000000000000000000000815260040180806020018281038252602e8152602001806143af602e913960400191505060405180910390fd5b60008060019054906101000a900460ff161590508015612a6a576001600060016101000a81548160ff02191690831515021790555060016000806101000a81548160ff0219169083151502179055505b612a7261340e565b612a7b57600080fd5b612a83613ad0565b612a8c57600080fd5b612a9582613ae7565b8015612ab65760008060016101000a81548160ff0219169083151502179055505b5050565b6060612ac582612ecc565b612ace57600080fd5b61010460008381526020019081526020016000208054600181600116156101000203166002900480601f016020809104026020016040519081016040528092919081815260200182805460018160011615610100020316600290048015612b765780601f10612b4b57610100808354040283529160200191612b76565b820191906000526020600020905b815481529060010190602001808311612b5957829003601f168201915b50505050509050919050565b600060019054906101000a900460ff1680612ba15750612ba06133fd565b5b80612bb857506000809054906101000a900460ff16155b612c0d576040517f08c379a000000000000000000000000000000000000000000000000000000000815260040180806020018281038252602e8152602001806143af602e913960400191505060405180910390fd5b60008060019054906101000a900460ff161590508015612c5d576001600060016101000a81548160ff02191690831515021790555060016000806101000a81548160ff0219169083151502179055505b85600081118015612c6f575060ff8111155b612cc4576040517f08c379a00000000000000000000000000000000000000000000000000000000081526004018080602001828103825260378152602001806143496037913960400191505060405180910390fd5b612ccd33613bfe565b612cd561340e565b612ce257612ce16120ab565b5b612cea613ad0565b612cf957612cf88484611c60565b5b612d023361298f565b8661019f81905550856101a060006101000a81548160ff021916908360ff160217905550846101a181905550612d366142b3565b6040518060800160405280600081526020016000815260200160008152602001600081525090508061019d60008081526020019081526020016000206000820151816000015560208201518160010155604082015181600201556060820151816003015590505050508015612dc05760008060016101000a81548160ff0219169083151502179055505b505050505050565b6101a2602052816000526040600020602052806000526040600020600091509150508060000160009054906101000a900460ff16908060010154905082565b61019d6020528060005260406000206000915090508060000154908060010154908060020154908060030154905084565b600060cf60008473ffffffffffffffffffffffffffffffffffffffff1673ffffffffffffffffffffffffffffffffffffffff16815260200190815260200160002060008373ffffffffffffffffffffffffffffffffffffffff1673ffffffffffffffffffffffffffffffffffffffff16815260200190815260200160002060009054906101000a900460ff16905092915050565b60008060cc600084815260200190815260200160002060009054906101000a900473ffffffffffffffffffffffffffffffffffffffff169050600073ffffffffffffffffffffffffffffffffffffffff168173ffffffffffffffffffffffffffffffffffffffff161415915050919050565b600080612f4a83611dfc565b90508073ffffffffffffffffffffffffffffffffffffffff168473ffffffffffffffffffffffffffffffffffffffff161480612fb957508373ffffffffffffffffffffffffffffffffffffffff16612fa184611435565b73ffffffffffffffffffffffffffffffffffffffff16145b80612fca5750612fc98185612e38565b5b91505092915050565b8273ffffffffffffffffffffffffffffffffffffffff16612ff382611dfc565b73ffffffffffffffffffffffffffffffffffffffff161461301357600080fd5b600073ffffffffffffffffffffffffffffffffffffffff168273ffffffffffffffffffffffffffffffffffffffff16141561304d57600080fd5b61305681613d22565b61309d60ce60008573ffffffffffffffffffffffffffffffffffffffff1673ffffffffffffffffffffffffffffffffffffffff168152602001908152602001600020613de0565b6130e460ce60008473ffffffffffffffffffffffffffffffffffffffff1673ffffffffffffffffffffffffffffffffffffffff1681526020019081526020016000206136b2565b8160cc600083815260200190815260200160002060006101000a81548173ffffffffffffffffffffffffffffffffffffffff021916908373ffffffffffffffffffffffffffffffffffffffff160217905550808273ffffffffffffffffffffffffffffffffffffffff168473ffffffffffffffffffffffffffffffffffffffff167fddf252ad1be2c89b69c2b068fc378daa952ba7f163c4a11628f55a4df523b3ef60405160405180910390a4505050565b6000828211156131a557600080fd5b600082840390508091505092915050565b60006131c06142b3565b61019d60008481526020019081526020016000206040518060800160405290816000820154815260200160018201548152602001600282015481526020016003820154815250509050600080905060006101a060009054906101000a900460ff1690505b60008160ff1611156132d05760008160ff16430340905061327b81600160028902016020811061325057fe5b1a60f81b7effffffffffffffffffffffffffffffffffffffffffffffffffffffffffffff1916613e03565b60086132ba8360028a026020811061328f57fe5b1a60f81b7effffffffffffffffffffffffffffffffffffffffffffffffffffffffffffff1916613e03565b901b178301925050808060019003915050613224565b5081604001516101a060009054906101000a900460ff1660ff1682816132f257fe5b040192505050919050565b6000808314156133105760009050613331565b600082840290508284828161332157fe5b041461332c57600080fd5b809150505b92915050565b61334961334382611dfc565b82613e10565b50565b60008082840190508381101561336157600080fd5b8091505092915050565b60008073ffffffffffffffffffffffffffffffffffffffff168273ffffffffffffffffffffffffffffffffffffffff1614156133a657600080fd5b8260000160008373ffffffffffffffffffffffffffffffffffffffff1673ffffffffffffffffffffffffffffffffffffffff16815260200190815260200160002060009054906101000a900460ff16905092915050565b600080303b90506000811491505090565b60006134206380ac58cd60e01b61132a565b905090565b63ffffffff60e01b817bffffffffffffffffffffffffffffffffffffffffffffffffffffffff1916141561345857600080fd5b600160996000837bffffffffffffffffffffffffffffffffffffffffffffffffffffffff19167bffffffffffffffffffffffffffffffffffffffffffffffffffffffff1916815260200190815260200160002060006101000a81548160ff02191690831515021790555050565b600073ffffffffffffffffffffffffffffffffffffffff168273ffffffffffffffffffffffffffffffffffffffff1614156134ff57600080fd5b61350881612ecc565b1561351257600080fd5b8160cc600083815260200190815260200160002060006101000a81548173ffffffffffffffffffffffffffffffffffffffff021916908373ffffffffffffffffffffffffffffffffffffffff1602179055506135ab60ce60008473ffffffffffffffffffffffffffffffffffffffff1673ffffffffffffffffffffffffffffffffffffffff1681526020019081526020016000206136b2565b808273ffffffffffffffffffffffffffffffffffffffff16600073ffffffffffffffffffffffffffffffffffffffff167fddf252ad1be2c89b69c2b068fc378daa952ba7f163c4a11628f55a4df523b3ef60405160405180910390a45050565b61361482612ecc565b61361d57600080fd5b8061010460008481526020019081526020016000209080519060200190613645929190614233565b505050565b61365e816033613e6f90919063ffffffff16565b8073ffffffffffffffffffffffffffffffffffffffff167fcd265ebaf09df2871cc7bd4133404a235ba12eff2041bb89d9c714a2621c7c7e60405160405180910390a250565b600081600001549050919050565b6001816000016000828254019250508190555050565b600060019054906101000a900460ff16806136e757506136e66133fd565b5b806136fe57506000809054906101000a900460ff16155b613753576040517f08c379a000000000000000000000000000000000000000000000000000000000815260040180806020018281038252602e8152602001806143af602e913960400191505060405180910390fd5b60008060019054906101000a900460ff1615905080156137a3576001600060016101000a81548160ff02191690831515021790555060016000806101000a81548160ff0219169083151502179055505b6137b36301ffc9a760e01b613425565b80156137d45760008060016101000a81548160ff0219169083151502179055505b50565b6137eb816033613f1a90919063ffffffff16565b8073ffffffffffffffffffffffffffffffffffffffff167f6719d08c1888103bea251a4ed56406bd0c3e69723c8a1686e017e7bbe159b6f860405160405180910390a250565b61384681610137613f1a90919063ffffffff16565b8073ffffffffffffffffffffffffffffffffffffffff167f6ae172837ea30b801fbfcdd4108aa1d5bf8ff775444fd70256b44e6bf3dfc3f660405160405180910390a250565b6138a181610137613e6f90919063ffffffff16565b8073ffffffffffffffffffffffffffffffffffffffff167fe94479a9f7e1952cc78f2d6baab678adc1b772d936c6583def489e524cb6669260405160405180910390a250565b60006139088473ffffffffffffffffffffffffffffffffffffffff16613fc6565b6139155760019050613ac8565b60008473ffffffffffffffffffffffffffffffffffffffff1663150b7a02338887876040518563ffffffff1660e01b8152600401808573ffffffffffffffffffffffffffffffffffffffff1673ffffffffffffffffffffffffffffffffffffffff1681526020018473ffffffffffffffffffffffffffffffffffffffff1673ffffffffffffffffffffffffffffffffffffffff16815260200183815260200180602001828103825283818151815260200191508051906020019080838360005b838110156139f05780820151818401526020810190506139d5565b50505050905090810190601f168015613a1d5780820380516001836020036101000a031916815260200191505b5095505050505050602060405180830381600087803b158015613a3f57600080fd5b505af1158015613a53573d6000803e3d6000fd5b505050506040513d6020811015613a6957600080fd5b8101908080519060200190929190505050905063150b7a0260e01b7bffffffffffffffffffffffffffffffffffffffffffffffffffffffff1916817bffffffffffffffffffffffffffffffffffffffffffffffffffffffff1916149150505b949350505050565b6000613ae2635b5e139f60e01b61132a565b905090565b600060019054906101000a900460ff1680613b065750613b056133fd565b5b80613b1d57506000809054906101000a900460ff16155b613b72576040517f08c379a000000000000000000000000000000000000000000000000000000000815260040180806020018281038252602e8152602001806143af602e913960400191505060405180910390fd5b60008060019054906101000a900460ff161590508015613bc2576001600060016101000a81548160ff02191690831515021790555060016000806101000a81548160ff0219169083151502179055505b613bcb8261294b565b613bd957613bd882613831565b5b8015613bfa5760008060016101000a81548160ff0219169083151502179055505b5050565b600060019054906101000a900460ff1680613c1d5750613c1c6133fd565b5b80613c3457506000809054906101000a900460ff16155b613c89576040517f08c379a000000000000000000000000000000000000000000000000000000000815260040180806020018281038252602e8152602001806143af602e913960400191505060405180910390fd5b60008060019054906101000a900460ff161590508015613cd9576001600060016101000a81548160ff02191690831515021790555060016000806101000a81548160ff0219169083151502179055505b613ce282613fd9565b6000606660006101000a81548160ff0219169083151502179055508015613d1e5760008060016101000a81548160ff0219169083151502179055505b5050565b600073ffffffffffffffffffffffffffffffffffffffff1660cd600083815260200190815260200160002060009054906101000a900473ffffffffffffffffffffffffffffffffffffffff1673ffffffffffffffffffffffffffffffffffffffff1614613ddd57600060cd600083815260200190815260200160002060006101000a81548173ffffffffffffffffffffffffffffffffffffffff021916908373ffffffffffffffffffffffffffffffffffffffff1602179055505b50565b613df86001826000015461319690919063ffffffff16565b816000018190555050565b60008160001c9050919050565b613e1a82826140f0565b6000610104600083815260200190815260200160002080546001816001161561010002031660029004905014613e6b5761010460008281526020019081526020016000206000613e6a91906142db565b5b5050565b600073ffffffffffffffffffffffffffffffffffffffff168173ffffffffffffffffffffffffffffffffffffffff161415613ea957600080fd5b613eb3828261336b565b613ebc57600080fd5b60008260000160008373ffffffffffffffffffffffffffffffffffffffff1673ffffffffffffffffffffffffffffffffffffffff16815260200190815260200160002060006101000a81548160ff0219169083151502179055505050565b600073ffffffffffffffffffffffffffffffffffffffff168173ffffffffffffffffffffffffffffffffffffffff161415613f5457600080fd5b613f5e828261336b565b15613f6857600080fd5b60018260000160008373ffffffffffffffffffffffffffffffffffffffff1673ffffffffffffffffffffffffffffffffffffffff16815260200190815260200160002060006101000a81548160ff0219169083151502179055505050565b600080823b905060008111915050919050565b600060019054906101000a900460ff1680613ff85750613ff76133fd565b5b8061400f57506000809054906101000a900460ff16155b614064576040517f08c379a000000000000000000000000000000000000000000000000000000000815260040180806020018281038252602e8152602001806143af602e913960400191505060405180910390fd5b60008060019054906101000a900460ff1615905080156140b4576001600060016101000a81548160ff02191690831515021790555060016000806101000a81548160ff0219169083151502179055505b6140bd82611c43565b6140cb576140ca826137d7565b5b80156140ec5760008060016101000a81548160ff0219169083151502179055505b5050565b8173ffffffffffffffffffffffffffffffffffffffff1661411082611dfc565b73ffffffffffffffffffffffffffffffffffffffff161461413057600080fd5b61413981613d22565b61418060ce60008473ffffffffffffffffffffffffffffffffffffffff1673ffffffffffffffffffffffffffffffffffffffff168152602001908152602001600020613de0565b600060cc600083815260200190815260200160002060006101000a81548173ffffffffffffffffffffffffffffffffffffffff021916908373ffffffffffffffffffffffffffffffffffffffff16021790555080600073ffffffffffffffffffffffffffffffffffffffff168373ffffffffffffffffffffffffffffffffffffffff167fddf252ad1be2c89b69c2b068fc378daa952ba7f163c4a11628f55a4df523b3ef60405160405180910390a45050565b828054600181600116156101000203166002900490600052602060002090601f016020900481019282601f1061427457805160ff19168380011785556142a2565b828001600101855582156142a2579182015b828111156142a1578251825591602001919060010190614286565b5b5090506142af9190614323565b5090565b6040518060800160405280600081526020016000815260200160008152602001600081525090565b50805460018160011615610100020316600290046000825580601f106143015750614320565b601f01602090049060005260206000209081019061431f9190614323565b5b50565b61434591905b80821115614341576000816000905550600101614329565b5090565b9056fe507269636520446570746820706172616d65746572206d7573742062652077697468696e207468656e2072616e6765205b312d3235355d596f752063616e206f6e6c792067656e6572617465206e6577207374616d70732066726f6d2047656e30204e465473436f6e747261637420696e7374616e63652068617320616c7265616479206265656e20696e697469616c697a6564596f7520646f6e74206861766520616e79206f75747374616e64696e672062616c616e636520746f2077697468647261775072697a6520706f7420697320616c6d6f737420656d70747920736f206974206973206e6f206c6f6e67657220706f737369626c6520746f2073656c6c207374616d7073a165627a7a72305820079f324346924c78d5955ff6fdcb42de9d87cd80c488eaafded88ebb53d686fc0029",
  "source": "pragma solidity ^0.5.0;\n\nimport \"@openzeppelin/contracts-ethereum-package/contracts/token/ERC721/ERC721Metadata.sol\";\nimport \"@openzeppelin/contracts-ethereum-package/contracts/token/ERC721/ERC721MetadataMintable.sol\";\nimport \"@openzeppelin/contracts-ethereum-package/contracts/token/ERC721/ERC721Metadata.sol\";\nimport \"@openzeppelin/contracts-ethereum-package/contracts/token/ERC721/ERC721.sol\";\nimport \"@openzeppelin/contracts-ethereum-package/contracts/lifecycle/Pausable.sol\";\nimport \"@openzeppelin/upgrades/contracts/Initializable.sol\";\nimport \"@openzeppelin/contracts-ethereum-package/contracts/drafts/Counters.sol\";\nimport \"@openzeppelin/contracts-ethereum-package/contracts/math/SafeMath.sol\";\n\n/// @title A Nifties exchange game to incentivize tourism and onboard to crypto\n/// @author santteegt\n/// @notice NFTs Market price is artificially calculated based on randomness feed from previous block hashes and user demand\n/// @dev Contract can be upgraded through a proxy contract supplied by OpenZeppelin SDK\ncontract StampCollectible is Initializable, Pausable, ERC721MetadataMintable {\n    /// Library used to perform unit increment/decrements\n    using Counters for Counters.Counter;\n    /// Library to avoid overflow/underflow bugs\n    using SafeMath for uint256;\n\n    /// Data structure that represents a NFT Tourist stamp\n    struct Stamp {\n        uint256 price;\n        uint256 maxClones;\n        uint256 inWild;\n        uint256 clonedFrom;\n    }\n\n    struct ClonedStamp {\n        bool owned;\n        uint tokenId;\n    }\n\n    /// Tracks the total minted stamps\n    Counters.Counter public totalMinted;\n    /// Store all minted stamps\n    // Stamp[] public stamps;\n    mapping (uint256 => Stamp) public stamps;\n    ///\n    mapping (uint256 => bool) public ownedTokensIndex;\n    /// Game parameter to provide an scarce amount of stamps\n    uint256 public maxClones;\n    /// Game parameter thah establish the depth of blockhashes to scan during NFT price estimate\n    // uint8 constant private PRICEDEPTH = 255;\n    uint8 private priceDepth;\n    /// Cost multiplier to transform NFT price (in finney) to ETH\n    // uint256 constant private COSTMULTIPLIER = 1000000000000;\n    uint256 private costMultiplier;\n\n    /// Maintains a record of minted NFTS and ownership per account\n    // mapping (address => mapping (uint256 => bool)) public balances;\n    mapping (address => mapping (uint256 => ClonedStamp)) public balances;\n\n    /// Verify that the priceDepth parameters is within the max No. of historical blocks a contract can track\n    modifier checkMaxBlockDepth(uint _value) {\n        require(_value > 0 && _value <= 255, \"Price Depth parameter must be within then range [1-255]\");\n        _;\n    }\n\n    /// Triggered when a new Gen0 stamp is minted by the contract owner\n    event MintedStamp(address indexed owner, uint256 tokenId, uint256 price);\n    /// Triggered when a stamp is cloned and minted to a user\n    event NewStamp(address indexed owner, uint256 tokenId, uint256 price);\n    /// Triggered when a cloned stamp is returned to the contract and thus burned\n    event BurnedStamp(address indexed owner, uint256 tokenId, uint256 clonedTokenId);\n\n    /// @dev This constructor was deprecated in favour of the initialize function\n    /// @dev so the contract can be upgraded through a proxy contract\n    // constructor(uint256 _maxClones) ERC721Metadata(\"CryptoStamps\", \"STAMPS\") public {\n    //     maxClones = _maxClones;\n    //     if(stamps.length == 0) {\n    //         Stamp memory _dummy = Stamp({\n    //             price: 0, maxClones: 0, inWild: 0, clonedFrom: 0});\n    //         stamps.push(_dummy);\n    //     }\n    // }\n\n    /** @dev Initialize current and derived contracts\n      * @param _maxClones Maximum number of clones allowed per Gen0 NFT\n      * @param _priceDepth Game parameter thah establish the depth of blockhashes to scan during NFT price estimate\n      * @param _costMultiplier Cost multiplier to transform NFT price (in finney) to ETH\n      * @param _name NFT name\n      * @param _symbol NFT symbol\n      */\n    function initialize(uint256 _maxClones, uint8 _priceDepth,\n        uint256 _costMultiplier, string memory _name, string memory _symbol)\n        public\n        initializer // ensures that the contract only initilizes once\n        checkMaxBlockDepth(_maxClones) {\n\n            Pausable.initialize(msg.sender);\n            if(!ERC721._hasBeenInitialized()) {\n                ERC721.initialize();\n            }\n            if(!ERC721Metadata._hasBeenInitialized()) {\n                ERC721Metadata.initialize(_name, _symbol);\n            }\n            ERC721MetadataMintable.initialize(msg.sender);\n\n            maxClones = _maxClones;\n            priceDepth = _priceDepth;\n            costMultiplier = _costMultiplier;\n\n            Stamp memory _dummy = Stamp({\n                price: 0, maxClones: 0, inWild: 0, clonedFrom: 0});\n            stamps[0] = _dummy;\n    }\n\n    /** @dev Calculate the new NFT price based on demand and randomness based on past block hashes\n      * @notice Market value is artificially generated for the game using the entropy found in past block hashes\n      * @param _index NFT index in storage\n      * @return uint16 NFt new estimate market price\n      */\n    // function getNFTPrice(uint8 _index) public view returns (uint16) {\n    function getNFTPrice(uint256 _index) internal view returns (uint16) {\n        Stamp memory stamp = stamps[_index];\n        uint256 x = 0;\n        for(uint8 depth = priceDepth; depth > 0 ; depth--) {\n          bytes32 blockHash = blockhash(block.number-depth);\n          x += convert(blockHash[_index * 2]) << 8 | convert(blockHash[_index * 2 + 1]);\n        }\n        return uint16(x / priceDepth) + uint16(stamp.inWild);\n    }\n\n    /** @dev Helper function to convert a bytes32 to uint\n      * @param _b bytes32 data hash\n      * @return uint uint representation of _b\n      */\n    function convert(bytes32 _b) internal pure returns (uint) {\n        return uint(_b);\n    }\n\n    /** @dev Mint a Gen0 stamp\n      * @notice This function can only be called by the contract owner\n      * @param _priceFinney Initial NFT price in finney\n      * @param _tokenURI URI of the associated digital collectible art\n      * @return bool true if Gen0 NFT is minted\n      */\n    function mint(uint256 _priceFinney, string memory _tokenURI) public\n        onlyMinter\n        whenNotPaused\n        returns (bool) {\n        Stamp memory collectible = Stamp({\n            price: _priceFinney.mul(costMultiplier),\n            maxClones: maxClones,\n            inWild: 0,\n            clonedFrom: 0\n        });\n        totalMinted.increment();\n        uint256 tokenId = totalMinted.current();\n        stamps[tokenId] = collectible;\n        ownedTokensIndex[tokenId] = true;\n        emit MintedStamp(msg.sender, tokenId, _priceFinney);\n\n        return mintWithTokenURI(msg.sender, tokenId, _tokenURI);\n    }\n\n    /** @dev Allow to buy a cloned stamp from minted Gen0 NFTs\n      * @param _tokenId Gen0 NFT index in storage\n      * @return uint tokenId corresponding to the cloned NFT\n      */\n    function buyStamp(address sender, uint256 _tokenId) public payable\n        whenNotPaused\n        returns (uint) {\n            Stamp storage stamp = stamps[_tokenId];\n            require(stamp.clonedFrom == 0, \"You can only generate new stamps from Gen0 NFTs\");\n            require(!balances[sender][_tokenId].owned, \"You already own this stamp\");\n            require(stamp.inWild.add(1) <= stamp.maxClones, \"Max clones have been reached\");\n            require(msg.value >= stamp.price, \"Not enough funds\");\n            stamp.inWild = stamp.inWild.add(1);\n            stamp.price = uint256(getNFTPrice(_tokenId)).mul(costMultiplier);\n\n            /// mint and increase total minted\n            totalMinted.increment();\n            uint tokenId = totalMinted.current();\n            Stamp memory clonedStamp = Stamp({\n                price: stamp.price,\n                maxClones: 0,\n                inWild: 0,\n                clonedFrom: _tokenId\n            });\n            stamps[tokenId] = clonedStamp;\n            ownedTokensIndex[tokenId] = true;\n            _mint(sender, tokenId);\n            balances[sender][_tokenId].owned = true;\n            balances[sender][_tokenId].tokenId = tokenId;\n\n            // emit NewStamp(msg.sender, _tokenId, stamp.price);\n            emit NewStamp(sender, tokenId, msg.value);\n            return tokenId;\n    }\n\n    /** @dev Allow to sell an owned stamp and profit/loose based on current market price\n      * @param _tokenId Gen0 NFT index in storage\n      * @return bool true if processed\n      */\n    function sellStamp(uint256 _tokenId) public\n        whenNotPaused\n        returns (bool) {\n            require(balances[msg.sender][_tokenId].owned, \"User does not own this stamp\");\n            Stamp storage stamp = stamps[_tokenId];\n            uint256 payout = stamp.price;\n            require(address(this).balance >= payout, \"Prize pot is almost empty so it is no longer possible to sell stamps\");\n            stamp.inWild = stamp.inWild.sub(1);\n            stamp.price = uint256(getNFTPrice(_tokenId)).mul(costMultiplier);\n\n            ClonedStamp storage clonedStamp = balances[msg.sender][_tokenId];\n            clonedStamp.owned = false;\n\n            // burn token\n            _burn(clonedStamp.tokenId);\n            ownedTokensIndex[clonedStamp.tokenId] = false;\n\n            emit BurnedStamp(msg.sender, _tokenId, clonedStamp.tokenId);\n            delete stamps[clonedStamp.tokenId];\n            // TODO: disabled when upgrading the contract\n            // msg.sender.transfer(payout); // This approach can block the asset if owned by a bad actor (contract account)\n            // TODO: to be addded in an upgraded version of the contract\n            outstandingBalance[msg.sender] = outstandingBalance[msg.sender].add(payout);\n            return true;\n    }\n\n    /** @dev Fallback function to allow the contract accept deposits in ETH\n      * @notice deposits can be crodwsourced to fund the Prize pot\n      */\n    function () external payable whenNotPaused {\n\n    }\n\n    /// Maintains a record of outstanding balance owned to users before withdrawal\n    /// Required to implement the Pull vs Push design pattern for payments\n    /// TODO: to be included later in an upgradable contract\n    mapping (address => uint) public outstandingBalance;\n\n    /// Triggered when a user withdraw her outstanding balance from selling stamps in the market\n    /// TODO: this has to be added as an upgrade\n    event WithdrawnBalance(address indexed owner, uint256 amount);\n\n    /** @dev Allow users to withdraw funds from sold stamps. Required to enable a pull vs push design pattern\n      * @return bool true if processed\n      */\n    /// TODO: to be addded in an upgraded version of the contract\n    function withdraw() public whenNotPaused returns (bool) {\n    \trequire(outstandingBalance[msg.sender] > 0, \"You dont have any outstanding balance to withdraw\");\n    \tuint amount = outstandingBalance[msg.sender];\n    \toutstandingBalance[msg.sender] = 0;\n        emit WithdrawnBalance(msg.sender, amount);\n        msg.sender.transfer(amount);\n    \treturn true;\n    }\n}\n",
  "sourcePath": "/Users/santteegt/Consensys-Academy/Spring-2019/final-project/final-project-spring19/contracts/StampCollectible.sol",
  "compiler": {
    "name": "solc",
    "version": "0.5.8+commit.23d335f2.Emscripten.clang"
  },
  "schemaVersion": "3.0.11",
  "updatedAt": "2019-08-01T08:46:47.185Z",
  "devdoc": {
    "author": "santteegt",
    "details": "Contract can be upgraded through a proxy contract supplied by OpenZeppelin SDK",
    "methods": {
      "approve(address,uint256)": {
        "details": "Approves another address to transfer the given token ID The zero address indicates there is no approved address. There can only be one approved address per token at a given time. Can only be called by the token owner or an approved operator.",
        "params": {
          "to": "address to be approved for the given token ID",
          "tokenId": "uint256 ID of the token to be approved"
        }
      },
      "balanceOf(address)": {
        "details": "Gets the balance of the specified address",
        "params": {
          "owner": "address to query the balance of"
        },
        "return": "uint256 representing the amount owned by the passed address"
      },
      "buyStamp(address,uint256)": {
        "details": "Allow to buy a cloned stamp from minted Gen0 NFTs",
        "params": {
          "_tokenId": "Gen0 NFT index in storage"
        },
        "return": "uint tokenId corresponding to the cloned NFT"
      },
      "getApproved(uint256)": {
        "details": "Gets the approved address for a token ID, or zero if no address set Reverts if the token ID does not exist.",
        "params": {
          "tokenId": "uint256 ID of the token to query the approval of"
        },
        "return": "address currently approved for the given token ID"
      },
      "initialize(string,string)": {
        "details": "Constructor function"
      },
      "initialize(uint256,uint8,uint256,string,string)": {
        "details": "Initialize current and derived contracts",
        "params": {
          "_costMultiplier": "Cost multiplier to transform NFT price (in finney) to ETH",
          "_maxClones": "Maximum number of clones allowed per Gen0 NFT",
          "_name": "NFT name",
          "_priceDepth": "Game parameter thah establish the depth of blockhashes to scan during NFT price estimate",
          "_symbol": "NFT symbol"
        }
      },
      "isApprovedForAll(address,address)": {
        "details": "Tells whether an operator is approved by a given owner",
        "params": {
          "operator": "operator address which you want to query the approval of",
          "owner": "owner address which you want to query the approval of"
        },
        "return": "bool whether the given operator is approved by the given owner"
      },
      "mint(uint256,string)": {
        "details": "Mint a Gen0 stamp",
        "params": {
          "_priceFinney": "Initial NFT price in finney",
          "_tokenURI": "URI of the associated digital collectible art"
        },
        "return": "bool true if Gen0 NFT is minted"
      },
      "mintWithTokenURI(address,uint256,string)": {
        "details": "Function to mint tokens",
        "params": {
          "to": "The address that will receive the minted tokens.",
          "tokenId": "The token id to mint.",
          "tokenURI": "The token URI of the minted token."
        },
        "return": "A boolean that indicates if the operation was successful."
      },
      "name()": {
        "details": "Gets the token name",
        "return": "string representing the token name"
      },
      "ownerOf(uint256)": {
        "details": "Gets the owner of the specified token ID",
        "params": {
          "tokenId": "uint256 ID of the token to query the owner of"
        },
        "return": "address currently marked as the owner of the given token ID"
      },
      "pause()": {
        "details": "called by the owner to pause, triggers stopped state"
      },
      "paused()": {
        "return": "true if the contract is paused, false otherwise."
      },
      "safeTransferFrom(address,address,uint256)": {
        "details": "Safely transfers the ownership of a given token ID to another address If the target address is a contract, it must implement `onERC721Received`, which is called upon a safe transfer, and return the magic value `bytes4(keccak256(\"onERC721Received(address,address,uint256,bytes)\"))`; otherwise, the transfer is reverted. Requires the msg.sender to be the owner, approved, or operator",
        "params": {
          "from": "current owner of the token",
          "to": "address to receive the ownership of the given token ID",
          "tokenId": "uint256 ID of the token to be transferred"
        }
      },
      "safeTransferFrom(address,address,uint256,bytes)": {
        "details": "Safely transfers the ownership of a given token ID to another address If the target address is a contract, it must implement `onERC721Received`, which is called upon a safe transfer, and return the magic value `bytes4(keccak256(\"onERC721Received(address,address,uint256,bytes)\"))`; otherwise, the transfer is reverted. Requires the msg.sender to be the owner, approved, or operator",
        "params": {
          "_data": "bytes data to send along with a safe transfer check",
          "from": "current owner of the token",
          "to": "address to receive the ownership of the given token ID",
          "tokenId": "uint256 ID of the token to be transferred"
        }
      },
      "sellStamp(uint256)": {
        "details": "Allow to sell an owned stamp and profit/loose based on current market price",
        "params": {
          "_tokenId": "Gen0 NFT index in storage"
        },
        "return": "bool true if processed"
      },
      "setApprovalForAll(address,bool)": {
        "details": "Sets or unsets the approval of a given operator An operator is allowed to transfer all tokens of the sender on their behalf",
        "params": {
          "approved": "representing the status of the approval to be set",
          "to": "operator address to set the approval"
        }
      },
      "supportsInterface(bytes4)": {
        "details": "implement supportsInterface(bytes4) using a lookup table"
      },
      "symbol()": {
        "details": "Gets the token symbol",
        "return": "string representing the token symbol"
      },
      "tokenURI(uint256)": {
        "details": "Returns an URI for a given token ID Throws if the token ID does not exist. May return an empty string.",
        "params": {
          "tokenId": "uint256 ID of the token to query"
        }
      },
      "transferFrom(address,address,uint256)": {
        "details": "Transfers the ownership of a given token ID to another address Usage of this method is discouraged, use `safeTransferFrom` whenever possible Requires the msg.sender to be the owner, approved, or operator",
        "params": {
          "from": "current owner of the token",
          "to": "address to receive the ownership of the given token ID",
          "tokenId": "uint256 ID of the token to be transferred"
        }
      },
      "unpause()": {
        "details": "called by the owner to unpause, returns to normal state"
      }
    },
    "title": "A Nifties exchange game to incentivize tourism and onboard to crypto"
  },
  "userdoc": {
    "methods": {
      "mint(uint256,string)": {
        "notice": "This function can only be called by the contract owner"
      },
      "withdraw()": {
        "notice": "TODO: to be addded in an upgraded version of the contract"
      }
    },
    "notice": "NFTs Market price is artificially calculated based on randomness feed from previous block hashes and user demand"
  }
}