{
  "contractName": "StampCollectible",
  "abi": [
    {
      "constant": true,
      "inputs": [
        {
          "name": "interfaceId",
          "type": "bytes4"
        }
      ],
      "name": "supportsInterface",
      "outputs": [
        {
          "name": "",
          "type": "bool"
        }
      ],
      "payable": false,
      "stateMutability": "view",
      "type": "function"
    },
    {
      "constant": true,
      "inputs": [],
      "name": "name",
      "outputs": [
        {
          "name": "",
          "type": "string"
        }
      ],
      "payable": false,
      "stateMutability": "view",
      "type": "function"
    },
    {
      "constant": true,
      "inputs": [
        {
          "name": "tokenId",
          "type": "uint256"
        }
      ],
      "name": "getApproved",
      "outputs": [
        {
          "name": "",
          "type": "address"
        }
      ],
      "payable": false,
      "stateMutability": "view",
      "type": "function"
    },
    {
      "constant": false,
      "inputs": [
        {
          "name": "to",
          "type": "address"
        },
        {
          "name": "tokenId",
          "type": "uint256"
        }
      ],
      "name": "approve",
      "outputs": [],
      "payable": false,
      "stateMutability": "nonpayable",
      "type": "function"
    },
    {
      "constant": true,
      "inputs": [
        {
          "name": "origSender",
          "type": "address"
        },
        {
          "name": "msgData",
          "type": "bytes"
        }
      ],
      "name": "getSenderFromData",
      "outputs": [
        {
          "name": "",
          "type": "address"
        }
      ],
      "payable": false,
      "stateMutability": "view",
      "type": "function"
    },
    {
      "constant": false,
      "inputs": [
        {
          "name": "from",
          "type": "address"
        },
        {
          "name": "to",
          "type": "address"
        },
        {
          "name": "tokenId",
          "type": "uint256"
        }
      ],
      "name": "transferFrom",
      "outputs": [],
      "payable": false,
      "stateMutability": "nonpayable",
      "type": "function"
    },
    {
      "constant": false,
      "inputs": [],
      "name": "unpause",
      "outputs": [],
      "payable": false,
      "stateMutability": "nonpayable",
      "type": "function"
    },
    {
      "constant": false,
      "inputs": [
        {
          "name": "from",
          "type": "address"
        },
        {
          "name": "to",
          "type": "address"
        },
        {
          "name": "tokenId",
          "type": "uint256"
        }
      ],
      "name": "safeTransferFrom",
      "outputs": [],
      "payable": false,
      "stateMutability": "nonpayable",
      "type": "function"
    },
    {
      "constant": true,
      "inputs": [
        {
          "name": "account",
          "type": "address"
        }
      ],
      "name": "isPauser",
      "outputs": [
        {
          "name": "",
          "type": "bool"
        }
      ],
      "payable": false,
      "stateMutability": "view",
      "type": "function"
    },
    {
      "constant": false,
      "inputs": [
        {
          "name": "to",
          "type": "address"
        },
        {
          "name": "tokenId",
          "type": "uint256"
        },
        {
          "name": "tokenURI",
          "type": "string"
        }
      ],
      "name": "mintWithTokenURI",
      "outputs": [
        {
          "name": "",
          "type": "bool"
        }
      ],
      "payable": false,
      "stateMutability": "nonpayable",
      "type": "function"
    },
    {
      "constant": true,
      "inputs": [],
      "name": "paused",
      "outputs": [
        {
          "name": "",
          "type": "bool"
        }
      ],
      "payable": false,
      "stateMutability": "view",
      "type": "function"
    },
    {
      "constant": true,
      "inputs": [],
      "name": "getSender",
      "outputs": [
        {
          "name": "",
          "type": "address"
        }
      ],
      "payable": false,
      "stateMutability": "view",
      "type": "function"
    },
    {
      "constant": true,
      "inputs": [
        {
          "name": "",
          "type": "address"
        }
      ],
      "name": "hasWithdrawn",
      "outputs": [
        {
          "name": "",
          "type": "bool"
        }
      ],
      "payable": false,
      "stateMutability": "view",
      "type": "function"
    },
    {
      "constant": true,
      "inputs": [
        {
          "name": "tokenId",
          "type": "uint256"
        }
      ],
      "name": "ownerOf",
      "outputs": [
        {
          "name": "",
          "type": "address"
        }
      ],
      "payable": false,
      "stateMutability": "view",
      "type": "function"
    },
    {
      "constant": true,
      "inputs": [
        {
          "name": "",
          "type": "address"
        }
      ],
      "name": "outstandingBalance",
      "outputs": [
        {
          "name": "",
          "type": "uint256"
        }
      ],
      "payable": false,
      "stateMutability": "view",
      "type": "function"
    },
    {
      "constant": false,
      "inputs": [],
      "name": "renouncePauser",
      "outputs": [],
      "payable": false,
      "stateMutability": "nonpayable",
      "type": "function"
    },
    {
      "constant": true,
      "inputs": [
        {
          "name": "owner",
          "type": "address"
        }
      ],
      "name": "balanceOf",
      "outputs": [
        {
          "name": "",
          "type": "uint256"
        }
      ],
      "payable": false,
      "stateMutability": "view",
      "type": "function"
    },
    {
      "constant": true,
      "inputs": [
        {
          "name": "",
          "type": "uint256"
        }
      ],
      "name": "ownedTokensIndex",
      "outputs": [
        {
          "name": "",
          "type": "bool"
        }
      ],
      "payable": false,
      "stateMutability": "view",
      "type": "function"
    },
    {
      "constant": true,
      "inputs": [],
      "name": "getHubAddr",
      "outputs": [
        {
          "name": "",
          "type": "address"
        }
      ],
      "payable": false,
      "stateMutability": "view",
      "type": "function"
    },
    {
      "constant": false,
      "inputs": [
        {
          "name": "account",
          "type": "address"
        }
      ],
      "name": "addPauser",
      "outputs": [],
      "payable": false,
      "stateMutability": "nonpayable",
      "type": "function"
    },
    {
      "constant": false,
      "inputs": [],
      "name": "pause",
      "outputs": [],
      "payable": false,
      "stateMutability": "nonpayable",
      "type": "function"
    },
    {
      "constant": true,
      "inputs": [],
      "name": "maxClones",
      "outputs": [
        {
          "name": "",
          "type": "uint256"
        }
      ],
      "payable": false,
      "stateMutability": "view",
      "type": "function"
    },
    {
      "constant": true,
      "inputs": [],
      "name": "symbol",
      "outputs": [
        {
          "name": "",
          "type": "string"
        }
      ],
      "payable": false,
      "stateMutability": "view",
      "type": "function"
    },
    {
      "constant": false,
      "inputs": [
        {
          "name": "account",
          "type": "address"
        }
      ],
      "name": "addMinter",
      "outputs": [],
      "payable": false,
      "stateMutability": "nonpayable",
      "type": "function"
    },
    {
      "constant": false,
      "inputs": [],
      "name": "renounceMinter",
      "outputs": [],
      "payable": false,
      "stateMutability": "nonpayable",
      "type": "function"
    },
    {
      "constant": false,
      "inputs": [
        {
          "name": "to",
          "type": "address"
        },
        {
          "name": "approved",
          "type": "bool"
        }
      ],
      "name": "setApprovalForAll",
      "outputs": [],
      "payable": false,
      "stateMutability": "nonpayable",
      "type": "function"
    },
    {
      "constant": true,
      "inputs": [],
      "name": "totalMinted",
      "outputs": [
        {
          "name": "_value",
          "type": "uint256"
        }
      ],
      "payable": false,
      "stateMutability": "view",
      "type": "function"
    },
    {
      "constant": true,
      "inputs": [
        {
          "name": "account",
          "type": "address"
        }
      ],
      "name": "isMinter",
      "outputs": [
        {
          "name": "",
          "type": "bool"
        }
      ],
      "payable": false,
      "stateMutability": "view",
      "type": "function"
    },
    {
      "constant": true,
      "inputs": [],
      "name": "getRecipientBalance",
      "outputs": [
        {
          "name": "",
          "type": "uint256"
        }
      ],
      "payable": false,
      "stateMutability": "view",
      "type": "function"
    },
    {
      "constant": false,
      "inputs": [
        {
          "name": "from",
          "type": "address"
        },
        {
          "name": "to",
          "type": "address"
        },
        {
          "name": "tokenId",
          "type": "uint256"
        },
        {
          "name": "_data",
          "type": "bytes"
        }
      ],
      "name": "safeTransferFrom",
      "outputs": [],
      "payable": false,
      "stateMutability": "nonpayable",
      "type": "function"
    },
    {
      "constant": true,
      "inputs": [
        {
          "name": "tokenId",
          "type": "uint256"
        }
      ],
      "name": "tokenURI",
      "outputs": [
        {
          "name": "",
          "type": "string"
        }
      ],
      "payable": false,
      "stateMutability": "view",
      "type": "function"
    },
    {
      "constant": true,
      "inputs": [
        {
          "name": "",
          "type": "address"
        },
        {
          "name": "",
          "type": "uint256"
        }
      ],
      "name": "balances",
      "outputs": [
        {
          "name": "owned",
          "type": "bool"
        },
        {
          "name": "tokenId",
          "type": "uint256"
        }
      ],
      "payable": false,
      "stateMutability": "view",
      "type": "function"
    },
    {
      "constant": true,
      "inputs": [
        {
          "name": "",
          "type": "uint256"
        }
      ],
      "name": "stamps",
      "outputs": [
        {
          "name": "price",
          "type": "uint256"
        },
        {
          "name": "maxClones",
          "type": "uint256"
        },
        {
          "name": "inWild",
          "type": "uint256"
        },
        {
          "name": "clonedFrom",
          "type": "uint256"
        }
      ],
      "payable": false,
      "stateMutability": "view",
      "type": "function"
    },
    {
      "constant": true,
      "inputs": [],
      "name": "getMessageData",
      "outputs": [
        {
          "name": "",
          "type": "bytes"
        }
      ],
      "payable": false,
      "stateMutability": "view",
      "type": "function"
    },
    {
      "constant": true,
      "inputs": [
        {
          "name": "owner",
          "type": "address"
        },
        {
          "name": "operator",
          "type": "address"
        }
      ],
      "name": "isApprovedForAll",
      "outputs": [
        {
          "name": "",
          "type": "bool"
        }
      ],
      "payable": false,
      "stateMutability": "view",
      "type": "function"
    },
    {
      "payable": true,
      "stateMutability": "payable",
      "type": "fallback"
    },
    {
      "anonymous": false,
      "inputs": [
        {
          "indexed": true,
          "name": "owner",
          "type": "address"
        },
        {
          "indexed": false,
          "name": "tokenId",
          "type": "uint256"
        },
        {
          "indexed": false,
          "name": "price",
          "type": "uint256"
        }
      ],
      "name": "MintedStamp",
      "type": "event"
    },
    {
      "anonymous": false,
      "inputs": [
        {
          "indexed": true,
          "name": "owner",
          "type": "address"
        },
        {
          "indexed": false,
          "name": "tokenId",
          "type": "uint256"
        },
        {
          "indexed": false,
          "name": "price",
          "type": "uint256"
        }
      ],
      "name": "NewStamp",
      "type": "event"
    },
    {
      "anonymous": false,
      "inputs": [
        {
          "indexed": true,
          "name": "owner",
          "type": "address"
        },
        {
          "indexed": false,
          "name": "tokenId",
          "type": "uint256"
        },
        {
          "indexed": false,
          "name": "clonedTokenId",
          "type": "uint256"
        }
      ],
      "name": "BurnedStamp",
      "type": "event"
    },
    {
      "anonymous": false,
      "inputs": [
        {
          "indexed": true,
          "name": "owner",
          "type": "address"
        },
        {
          "indexed": false,
          "name": "amount",
          "type": "uint256"
        }
      ],
      "name": "WithdrawnBalance",
      "type": "event"
    },
    {
      "anonymous": false,
      "inputs": [
        {
          "indexed": true,
          "name": "sender",
          "type": "address"
        },
        {
          "indexed": false,
          "name": "tokenId",
          "type": "uint256"
        }
      ],
      "name": "AirdropedStamp",
      "type": "event"
    },
    {
      "anonymous": false,
      "inputs": [
        {
          "indexed": true,
          "name": "account",
          "type": "address"
        }
      ],
      "name": "MinterAdded",
      "type": "event"
    },
    {
      "anonymous": false,
      "inputs": [
        {
          "indexed": true,
          "name": "account",
          "type": "address"
        }
      ],
      "name": "MinterRemoved",
      "type": "event"
    },
    {
      "anonymous": false,
      "inputs": [
        {
          "indexed": true,
          "name": "from",
          "type": "address"
        },
        {
          "indexed": true,
          "name": "to",
          "type": "address"
        },
        {
          "indexed": true,
          "name": "tokenId",
          "type": "uint256"
        }
      ],
      "name": "Transfer",
      "type": "event"
    },
    {
      "anonymous": false,
      "inputs": [
        {
          "indexed": true,
          "name": "owner",
          "type": "address"
        },
        {
          "indexed": true,
          "name": "approved",
          "type": "address"
        },
        {
          "indexed": true,
          "name": "tokenId",
          "type": "uint256"
        }
      ],
      "name": "Approval",
      "type": "event"
    },
    {
      "anonymous": false,
      "inputs": [
        {
          "indexed": true,
          "name": "owner",
          "type": "address"
        },
        {
          "indexed": true,
          "name": "operator",
          "type": "address"
        },
        {
          "indexed": false,
          "name": "approved",
          "type": "bool"
        }
      ],
      "name": "ApprovalForAll",
      "type": "event"
    },
    {
      "anonymous": false,
      "inputs": [
        {
          "indexed": false,
          "name": "account",
          "type": "address"
        }
      ],
      "name": "Paused",
      "type": "event"
    },
    {
      "anonymous": false,
      "inputs": [
        {
          "indexed": false,
          "name": "account",
          "type": "address"
        }
      ],
      "name": "Unpaused",
      "type": "event"
    },
    {
      "anonymous": false,
      "inputs": [
        {
          "indexed": true,
          "name": "account",
          "type": "address"
        }
      ],
      "name": "PauserAdded",
      "type": "event"
    },
    {
      "anonymous": false,
      "inputs": [
        {
          "indexed": true,
          "name": "account",
          "type": "address"
        }
      ],
      "name": "PauserRemoved",
      "type": "event"
    },
    {
      "constant": false,
      "inputs": [
        {
          "name": "_maxClones",
          "type": "uint256"
        },
        {
          "name": "_priceDepth",
          "type": "uint8"
        },
        {
          "name": "_costMultiplier",
          "type": "uint256"
        },
        {
          "name": "_name",
          "type": "string"
        },
        {
          "name": "_symbol",
          "type": "string"
        }
      ],
      "name": "initialize",
      "outputs": [],
      "payable": false,
      "stateMutability": "nonpayable",
      "type": "function"
    },
    {
      "constant": false,
      "inputs": [],
      "name": "initialize",
      "outputs": [],
      "payable": false,
      "stateMutability": "nonpayable",
      "type": "function"
    },
    {
      "constant": false,
      "inputs": [
        {
          "name": "name",
          "type": "string"
        },
        {
          "name": "symbol",
          "type": "string"
        }
      ],
      "name": "initialize",
      "outputs": [],
      "payable": false,
      "stateMutability": "nonpayable",
      "type": "function"
    },
    {
      "constant": false,
      "inputs": [
        {
          "name": "sender",
          "type": "address"
        }
      ],
      "name": "initialize",
      "outputs": [],
      "payable": false,
      "stateMutability": "nonpayable",
      "type": "function"
    },
    {
      "constant": false,
      "inputs": [
        {
          "name": "_priceFinney",
          "type": "uint256"
        },
        {
          "name": "_tokenURI",
          "type": "string"
        }
      ],
      "name": "mint",
      "outputs": [
        {
          "name": "",
          "type": "bool"
        }
      ],
      "payable": false,
      "stateMutability": "nonpayable",
      "type": "function"
    },
    {
      "constant": false,
      "inputs": [
        {
          "name": "sender",
          "type": "address"
        },
        {
          "name": "_tokenId",
          "type": "uint256"
        }
      ],
      "name": "buyStamp",
      "outputs": [
        {
          "name": "",
          "type": "uint256"
        }
      ],
      "payable": true,
      "stateMutability": "payable",
      "type": "function"
    },
    {
      "constant": false,
      "inputs": [
        {
          "name": "_tokenId",
          "type": "uint256"
        }
      ],
      "name": "sellStamp",
      "outputs": [
        {
          "name": "",
          "type": "bool"
        }
      ],
      "payable": false,
      "stateMutability": "nonpayable",
      "type": "function"
    },
    {
      "constant": false,
      "inputs": [],
      "name": "withdraw",
      "outputs": [
        {
          "name": "",
          "type": "bool"
        }
      ],
      "payable": false,
      "stateMutability": "nonpayable",
      "type": "function"
    },
    {
      "constant": false,
      "inputs": [
        {
          "name": "_tokenId",
          "type": "uint256"
        }
      ],
      "name": "airdropStamp",
      "outputs": [
        {
          "name": "",
          "type": "uint256"
        }
      ],
      "payable": false,
      "stateMutability": "nonpayable",
      "type": "function"
    },
    {
      "constant": true,
      "inputs": [
        {
          "name": "_relay",
          "type": "address"
        },
        {
          "name": "_from",
          "type": "address"
        },
        {
          "name": "_encodedFunction",
          "type": "bytes"
        },
        {
          "name": "_transactionFee",
          "type": "uint256"
        },
        {
          "name": "_gasPrice",
          "type": "uint256"
        },
        {
          "name": "_gasLimit",
          "type": "uint256"
        },
        {
          "name": "_nonce",
          "type": "uint256"
        },
        {
          "name": "_approvalData",
          "type": "bytes"
        },
        {
          "name": "_maxPossibleCharge",
          "type": "uint256"
        }
      ],
      "name": "acceptRelayedCall",
      "outputs": [
        {
          "name": "",
          "type": "uint256"
        },
        {
          "name": "",
          "type": "bytes"
        }
      ],
      "payable": false,
      "stateMutability": "view",
      "type": "function"
    },
    {
      "constant": false,
      "inputs": [
        {
          "name": "_context",
          "type": "bytes"
        }
      ],
      "name": "preRelayedCall",
      "outputs": [
        {
          "name": "",
          "type": "bytes32"
        }
      ],
      "payable": false,
      "stateMutability": "nonpayable",
      "type": "function"
    },
    {
      "constant": false,
      "inputs": [
        {
          "name": "_context",
          "type": "bytes"
        },
        {
          "name": "_success",
          "type": "bool"
        },
        {
          "name": "_actualCharge",
          "type": "uint256"
        },
        {
          "name": "_preRetVal",
          "type": "bytes32"
        }
      ],
      "name": "postRelayedCall",
      "outputs": [],
      "payable": false,
      "stateMutability": "nonpayable",
      "type": "function"
    },
    {
      "constant": false,
      "inputs": [
        {
          "name": "_rhub",
          "type": "address"
        }
      ],
      "name": "updateRelayHub",
      "outputs": [],
      "payable": false,
      "stateMutability": "nonpayable",
      "type": "function"
    },
    {
      "constant": false,
      "inputs": [],
      "name": "depositToRelay",
      "outputs": [],
      "payable": true,
      "stateMutability": "payable",
      "type": "function"
    },
    {
      "constant": false,
      "inputs": [],
      "name": "withdrawFromRelay",
      "outputs": [],
      "payable": false,
      "stateMutability": "nonpayable",
      "type": "function"
    },
    {
      "constant": true,
      "inputs": [],
      "name": "getBalanceOnRelay",
      "outputs": [
        {
          "name": "",
          "type": "uint256"
        }
      ],
      "payable": false,
      "stateMutability": "view",
      "type": "function"
    }
  ],
  "bytecode": "0x608060405234801561001057600080fd5b50613a7f806100206000396000f3fe6080604052600436106102e45760003560e01c80637f59cbcc11610190578063aa271e1a116100dc578063cbdfa15311610095578063da710b921161006f578063da710b9214611127578063e06e0e2214611151578063e20c6d3d146111da578063e985e9c5146111ef576102e4565b8063cbdfa15314610f37578063cbf1304d14611083578063ccd68f3b146110d7576102e4565b8063aa271e1a14610db9578063ac57041114610dec578063b88d4fde14610e01578063c4d66de814610ed2578063c607d50f14610f05578063c87b56dd14610f0d576102e4565b80638a337d8a1161014957806398650275116101235780639865027514610d285780639925856e14610d3d578063a22cb46514610d69578063a2309ff814610da4576102e4565b80638a337d8a14610ccb57806395d89b4114610ce0578063983b2d5614610cf5576102e4565b80637f59cbcc14610a6457806380274db714610a795780638129fc1c14610af457806382dc1ec414610b0957806383947ea014610b3c5780638456cb5914610cb6576102e4565b806349322e841161024f5780636352211e1161020857806370a08231116101e257806370a082311461093a57806374e243671461096d57806374e861d61461099757806377097fc8146109ac576102e4565b80636352211e146108c85780636a6da61e146108f25780636ef8d66d14610925576102e4565b806349322e84146106485780634cd88b761461066f57806350bb4e7f146107a55780635c975abb1461086b5780635e01eb5a146108805780635e2c19db14610895576102e4565b806323b872dd116102a157806323b872dd1461053b5780632620aced1461057e5780633ccfd60b146105a85780633f4ba83a146105bd57806342842e0e146105d257806346fbf68e14610615576102e4565b806301ffc9a7146102f657806306fdde031461033e578063081812fc146103c8578063095ea7b31461040e5780631da97ea3146104475780631e5f362714610508575b60675460ff16156102f457600080fd5b005b34801561030257600080fd5b5061032a6004803603602081101561031957600080fd5b50356001600160e01b03191661122a565b604080519115158252519081900360200190f35b34801561034a57600080fd5b50610353611249565b6040805160208082528351818301528351919283929083019185019080838360005b8381101561038d578181015183820152602001610375565b50505050905090810190601f1680156103ba5780820380516001836020036101000a031916815260200191505b509250505060405180910390f35b3480156103d457600080fd5b506103f2600480360360208110156103eb57600080fd5b50356112e1565b604080516001600160a01b039092168252519081900360200190f35b34801561041a57600080fd5b506102f46004803603604081101561043157600080fd5b506001600160a01b038135169060200135611313565b34801561045357600080fd5b506103f26004803603604081101561046a57600080fd5b6001600160a01b038235169190810190604081016020820135600160201b81111561049457600080fd5b8201836020820111156104a657600080fd5b803590602001918460018302840111600160201b831117156104c757600080fd5b91908080601f0160208091040260200160405190810160405280939291908181526020018383808284376000920191909152509295506113bc945050505050565b34801561051457600080fd5b506102f46004803603602081101561052b57600080fd5b50356001600160a01b03166113fa565b34801561054757600080fd5b506102f46004803603606081101561055e57600080fd5b506001600160a01b0381358116916020810135909116906040013561141a565b34801561058a57600080fd5b5061032a600480360360208110156105a157600080fd5b503561143f565b3480156105b457600080fd5b5061032a611688565b3480156105c957600080fd5b506102f46117a4565b3480156105de57600080fd5b506102f4600480360360608110156105f557600080fd5b506001600160a01b03813581169160208101359091169060400135611808565b34801561062157600080fd5b5061032a6004803603602081101561063857600080fd5b50356001600160a01b0316611823565b34801561065457600080fd5b5061065d611836565b60408051918252519081900360200190f35b34801561067b57600080fd5b506102f46004803603604081101561069257600080fd5b810190602081018135600160201b8111156106ac57600080fd5b8201836020820111156106be57600080fd5b803590602001918460018302840111600160201b831117156106df57600080fd5b91908080601f0160208091040260200160405190810160405280939291908181526020018383808284376000920191909152509295949360208101935035915050600160201b81111561073157600080fd5b82018360208201111561074357600080fd5b803590602001918460018302840111600160201b8311171561076457600080fd5b91908080601f0160208091040260200160405190810160405280939291908181526020018383808284376000920191909152509295506118da945050505050565b3480156107b157600080fd5b5061032a600480360360608110156107c857600080fd5b6001600160a01b0382351691602081013591810190606081016040820135600160201b8111156107f757600080fd5b82018360208201111561080957600080fd5b803590602001918460018302840111600160201b8311171561082a57600080fd5b91908080601f0160208091040260200160405190810160405280939291908181526020018383808284376000920191909152509295506119d2945050505050565b34801561087757600080fd5b5061032a611a06565b34801561088c57600080fd5b506103f2611a0f565b3480156108a157600080fd5b5061032a600480360360208110156108b857600080fd5b50356001600160a01b0316611a57565b3480156108d457600080fd5b506103f2600480360360208110156108eb57600080fd5b5035611a6d565b3480156108fe57600080fd5b5061065d6004803603602081101561091557600080fd5b50356001600160a01b0316611a91565b34801561093157600080fd5b506102f4611aa4565b34801561094657600080fd5b5061065d6004803603602081101561095d57600080fd5b50356001600160a01b0316611aaf565b34801561097957600080fd5b5061032a6004803603602081101561099057600080fd5b5035611ae7565b3480156109a357600080fd5b506103f2611afd565b3480156109b857600080fd5b5061032a600480360360408110156109cf57600080fd5b81359190810190604081016020820135600160201b8111156109f057600080fd5b820183602082011115610a0257600080fd5b803590602001918460018302840111600160201b83111715610a2357600080fd5b91908080601f016020809104026020016040519081016040528093929190818152602001838380828437600092019190915250929550611b0c945050505050565b348015610a7057600080fd5b506102f4611c2f565b348015610a8557600080fd5b5061065d60048036036020811015610a9c57600080fd5b810190602081018135600160201b811115610ab657600080fd5b820183602082011115610ac857600080fd5b803590602001918460018302840111600160201b83111715610ae957600080fd5b509092509050611d66565b348015610b0057600080fd5b506102f4611d70565b348015610b1557600080fd5b506102f460048036036020811015610b2c57600080fd5b50356001600160a01b0316611e31565b348015610b4857600080fd5b50610c376004803603610120811015610b6057600080fd5b6001600160a01b038235811692602081013590911691810190606081016040820135600160201b811115610b9357600080fd5b820183602082011115610ba557600080fd5b803590602001918460018302840111600160201b83111715610bc657600080fd5b9193909282359260208101359260408201359260608301359260a081019060800135600160201b811115610bf957600080fd5b820183602082011115610c0b57600080fd5b803590602001918460018302840111600160201b83111715610c2c57600080fd5b919350915035611e4e565b6040518083815260200180602001828103825283818151815260200191508051906020019080838360005b83811015610c7a578181015183820152602001610c62565b50505050905090810190601f168015610ca75780820380516001836020036101000a031916815260200191505b50935050505060405180910390f35b348015610cc257600080fd5b506102f4611ebe565b348015610cd757600080fd5b5061065d611f24565b348015610cec57600080fd5b50610353611f2b565b348015610d0157600080fd5b506102f460048036036020811015610d1857600080fd5b50356001600160a01b0316611f8d565b348015610d3457600080fd5b506102f4611faa565b61065d60048036036040811015610d5357600080fd5b506001600160a01b038135169060200135611fb3565b348015610d7557600080fd5b506102f460048036036040811015610d8c57600080fd5b506001600160a01b038135169060200135151561229b565b348015610db057600080fd5b5061065d61231f565b348015610dc557600080fd5b5061032a60048036036020811015610ddc57600080fd5b50356001600160a01b0316612326565b348015610df857600080fd5b5061065d61233a565b348015610e0d57600080fd5b506102f460048036036080811015610e2457600080fd5b6001600160a01b03823581169260208101359091169160408201359190810190608081016060820135600160201b811115610e5e57600080fd5b820183602082011115610e7057600080fd5b803590602001918460018302840111600160201b83111715610e9157600080fd5b91908080601f016020809104026020016040519081016040528093929190818152602001838380828437600092019190915250929550612344945050505050565b348015610ede57600080fd5b506102f460048036036020811015610ef557600080fd5b50356001600160a01b031661236c565b6102f4612442565b348015610f1957600080fd5b5061035360048036036020811015610f3057600080fd5b50356124d0565b348015610f4357600080fd5b506102f4600480360360a0811015610f5a57600080fd5b81359160ff6020820135169160408201359190810190608081016060820135600160201b811115610f8a57600080fd5b820183602082011115610f9c57600080fd5b803590602001918460018302840111600160201b83111715610fbd57600080fd5b91908080601f0160208091040260200160405190810160405280939291908181526020018383808284376000920191909152509295949360208101935035915050600160201b81111561100f57600080fd5b82018360208201111561102157600080fd5b803590602001918460018302840111600160201b8311171561104257600080fd5b91908080601f016020809104026020016040519081016040528093929190818152602001838380828437600092019190915250929550612586945050505050565b34801561108f57600080fd5b506110bc600480360360408110156110a657600080fd5b506001600160a01b0381351690602001356127a5565b60408051921515835260208301919091528051918290030190f35b3480156110e357600080fd5b50611101600480360360208110156110fa57600080fd5b50356127d0565b604080519485526020850193909352838301919091526060830152519081900360800190f35b34801561113357600080fd5b5061065d6004803603602081101561114a57600080fd5b50356127f8565b34801561115d57600080fd5b506102f46004803603608081101561117457600080fd5b810190602081018135600160201b81111561118e57600080fd5b8201836020820111156111a057600080fd5b803590602001918460018302840111600160201b831117156111c157600080fd5b91935091508035151590602081013590604001356124c9565b3480156111e657600080fd5b50610353612afb565b3480156111fb57600080fd5b5061032a6004803603604081101561121257600080fd5b506001600160a01b0381358116916020013516612be7565b6001600160e01b0319166000908152609a602052604090205460ff1690565b6101038054604080516020601f60026000196101006001881615020190951694909404938401819004810282018101909252828152606093909290918301828280156112d65780601f106112ab576101008083540402835291602001916112d6565b820191906000526020600020905b8154815290600101906020018083116112b957829003601f168201915b505050505090505b90565b60006112ec82612c15565b15156112f757600080fd5b50600090815260ce60205260409020546001600160a01b031690565b600061131e82611a6d565b90506001600160a01b03838116908216141561133957600080fd5b336001600160a01b038216148061135557506113558133612be7565b151561136057600080fd5b600082815260ce602052604080822080546001600160a01b0319166001600160a01b0387811691821790925591518593918516917f8c5be1e5ebec7d5bd14f71427d1e84f3dd0314c0f7b2291e5b200ac8c7c3b92591a4505050565b6000826113c7611afd565b6001600160a01b0316846001600160a01b031614156113f1576113ee836014855103612c32565b90505b90505b92915050565b61140333612326565b151561140e57600080fd5b61141781612c8e565b50565b6114243382612cb1565b151561142f57600080fd5b61143a838383612d10565b505050565b60675460009060ff161561145257600080fd5b600061145c611a0f565b6001600160a01b03811660009081526101a36020908152604080832087845290915290205490915060ff1615156114dd5760408051600160e51b62461bcd02815260206004820152601c60248201527f5573657220646f6573206e6f74206f776e2074686973207374616d7000000000604482015290519081900360640190fd5b600083815261019e602052604090208054303181111561153157604051600160e51b62461bcd0281526004018080602001828103825260448152602001806139ea6044913960600191505060405180910390fd5b600282015461154790600163ffffffff612df216565b60028301556101a25461156d9061155d87612e07565b61ffff169063ffffffff612edb16565b82556001600160a01b03831660009081526101a3602090815260408083208884529091529020805460ff1916815560018101546115a990612f06565b600181018054600090815261019f6020908152604091829020805460ff19169055915481518981529283015280516001600160a01b038716927f106852634153ba32c7db4c08ec749c468343ebd82b312b849a331f58a164867a92908290030190a2600180820154600090815261019e602090815260408083208381559384018390556002840183905560039093018290556001600160a01b03871682526101a49052205461165e908363ffffffff612f1816565b6001600160a01b0390941660009081526101a4602052604090209390935550600192505050919050565b60675460009060ff161561169b57600080fd5b60006116a5611a0f565b6001600160a01b03811660009081526101a46020526040902054909150151561170257604051600160e51b62461bcd0281526004018080602001828103825260318152602001806139b96031913960400191505060405180910390fd5b6001600160a01b03811660008181526101a4602090815260408083208054908490556101a5835292819020805460ff19166001179055805183815290519293927f76a3496ed122399b6d8c356545cf5095195fd823dc634be8fcd7b275976679a7929181900390910190a2604051339082156108fc029083906000818181858888f1935050505015801561179a573d6000803e3d6000fd5b5060019250505090565b6117ad33611823565b15156117b857600080fd5b60675460ff1615156117c957600080fd5b6067805460ff191690556040805133815290517f5db9ee0a495bf2e6ff9c91a7834c1ba4fdd244a5e8aa4e537bd38aeae4b073aa9181900360200190a1565b61143a83838360405180602001604052806000815250612344565b60006113f460348363ffffffff612f2a16565b600061184133612326565b151561184c57600080fd5b611854611afd565b6001600160a01b03166370a08231306040518263ffffffff1660e01b815260040180826001600160a01b03166001600160a01b0316815260200191505060206040518083038186803b1580156118a957600080fd5b505afa1580156118bd573d6000803e3d6000fd5b505050506040513d60208110156118d357600080fd5b5051905090565b600054610100900460ff16806118f357506118f3612f61565b80611901575060005460ff16155b151561194157604051600160e51b62461bcd02815260040180806020018281038252602e81526020018061398b602e913960400191505060405180910390fd5b600054610100900460ff1615801561196c576000805460ff1961ff0019909116610100171660011790555b611974612f67565b151561197f57600080fd5b8251611993906101039060208601906137a2565b5081516119a8906101049060208501906137a2565b506119bc600160e01b635b5e139f02612f7c565b801561143a576000805461ff0019169055505050565b60006119dd33612326565b15156119e857600080fd5b6119f28484612fb8565b6119fc838361305b565b5060019392505050565b60675460ff1690565b6000611a52336000368080601f0160208091040260200160405190810160405280939291908181526020018383808284376000920191909152506113bc92505050565b905090565b6101a56020526000908152604090205460ff1681565b600081815260cd60205260408120546001600160a01b03168015156113f457600080fd5b6101a46020526000908152604090205481565b611aad3361308f565b565b60006001600160a01b0382161515611ac657600080fd5b6001600160a01b038216600090815260cf602052604090206113f4906130d7565b61019f6020526000908152604090205460ff1681565b6033546001600160a01b031690565b6000611b1733612326565b1515611b2257600080fd5b60675460ff1615611b3257600080fd5b611b3a613820565b6040518060800160405280611b5b6101a25487612edb90919063ffffffff16565b81526020016101a05481526020016000815260200160008152509050611b8261019d6130db565b6000611b8f61019d6130d7565b600081815261019e602090815260408083208651815582870151600180830191909155828801516002830155606088015160039092019190915561019f835292819020805460ff19169093179092558151838152908101889052815192935033927f51a8f6a84a50f4da36896f422d3ec8416e819501f8ee32dfed22316b472f0797929181900390910190a2611c263382866119d2565b95945050505050565b611c3833612326565b1515611c4357600080fd5b6000611c4d611afd565b6001600160a01b03166370a08231306040518263ffffffff1660e01b815260040180826001600160a01b03166001600160a01b0316815260200191505060206040518083038186803b158015611ca257600080fd5b505afa158015611cb6573d6000803e3d6000fd5b505050506040513d6020811015611ccc57600080fd5b50519050611cd8611afd565b6001600160a01b0316632e1a7d4d826040518263ffffffff1660e01b815260040180828152602001915050600060405180830381600087803b158015611d1d57600080fd5b505af1158015611d31573d6000803e3d6000fd5b505060405133925083156108fc02915083906000818181858888f19350505050158015611d62573d6000803e3d6000fd5b5050565b6201e24092915050565b600054610100900460ff1680611d895750611d89612f61565b80611d97575060005460ff16155b1515611dd757604051600160e51b62461bcd02815260040180806020018281038252602e81526020018061398b602e913960400191505060405180910390fd5b600054610100900460ff16158015611e02576000805460ff1961ff0019909116610100171660011790555b611e0a6130e4565b611e1d600160e01b6380ac58cd02612f7c565b8015611417576000805461ff001916905550565b611e3a33611823565b1515611e4557600080fd5b61141781613189565b6001600160a01b038a1660009081526101a5602052604081205460609060ff1615611e9a57600a8090506040518060600160405280602781526020016139096027913991509150611eae565b505060408051602081019091526000808252905b9b509b9950505050505050505050565b611ec733611823565b1515611ed257600080fd5b60675460ff1615611ee257600080fd5b6067805460ff191660011790556040805133815290517f62e78cea01bee320cd4e420270b5ea74000d11b0c9f74754ebdbfc544b05a2589181900360200190a1565b6101a05481565b6101048054604080516020601f60026000196101006001881615020190951694909404938401819004810282018101909252828152606093909290918301828280156112d65780601f106112ab576101008083540402835291602001916112d6565b611f9633612326565b1515611fa157600080fd5b611417816131d1565b611aad3361321a565b60675460009060ff1615611fc657600080fd5b600082815261019e6020526040902060038101541561201957604051600160e51b62461bcd02815260040180806020018281038252602f8152602001806138da602f913960400191505060405180910390fd5b6001600160a01b03841660009081526101a36020908152604080832086845290915290205460ff16156120965760408051600160e51b62461bcd02815260206004820152601a60248201527f596f7520616c7265616479206f776e2074686973207374616d70000000000000604482015290519081900360640190fd5b80600101546120b360018360020154612f1890919063ffffffff16565b11156121095760408051600160e51b62461bcd02815260206004820152601c60248201527f4d617820636c6f6e65732068617665206265656e207265616368656400000000604482015290519081900360640190fd5b80543410156121625760408051600160e51b62461bcd02815260206004820152601060248201527f4e6f7420656e6f7567682066756e647300000000000000000000000000000000604482015290519081900360640190fd5b600281015461217890600163ffffffff612f1816565b60028201556101a25461218e9061155d85612e07565b815561219b61019d6130db565b60006121a861019d6130d7565b90506121b2613820565b50604080516080810182528354815260006020808301828152838501838152606085018a815287855261019e8452868520865181559251600180850191909155915160028401555160039092019190915561019f909152929020805460ff19169092179091556122228683612fb8565b6001600160a01b03861660008181526101a360209081526040808320898452825291829020805460ff191660019081178255018590558151858152349181019190915281517f550b743fe7aa34355e646fd0ad2178394d4cdcad0692a40382c8663e61fce7be929181900390910190a250949350505050565b6001600160a01b0382163314156122b157600080fd5b33600081815260d0602090815260408083206001600160a01b03871680855290835292819020805460ff1916861515908117909155815190815290519293927f17307eab39ab6107e8899845ad3d59bd9653f200f220920489ca2b5937696c31929181900390910190a35050565b61019d5481565b60006113f46101388363ffffffff612f2a16565b6000611854611afd565b61234f84848461141a565b61235b84848484613263565b151561236657600080fd5b50505050565b600054610100900460ff16806123855750612385612f61565b80612393575060005460ff16155b15156123d357604051600160e51b62461bcd02815260040180806020018281038252602e81526020018061398b602e913960400191505060405180910390fd5b600054610100900460ff161580156123fe576000805460ff1961ff0019909116610100171660011790555b612406612f67565b151561241157600080fd5b61241961339e565b151561242457600080fd5b61242d826133b3565b8015611d62576000805461ff00191690555050565b61244b33612326565b151561245657600080fd5b61245e611afd565b6001600160a01b031663aa67c91934306040518363ffffffff1660e01b815260040180826001600160a01b03166001600160a01b031681526020019150506000604051808303818588803b1580156124b557600080fd5b505af11580156124c9573d6000803e3d6000fd5b5050505050565b60606124db82612c15565b15156124e657600080fd5b6000828152610105602090815260409182902080548351601f60026000196101006001861615020190931692909204918201849004840281018401909452808452909183018282801561257a5780601f1061254f5761010080835404028352916020019161257a565b820191906000526020600020905b81548152906001019060200180831161255d57829003601f168201915b50505050509050919050565b600054610100900460ff168061259f575061259f612f61565b806125ad575060005460ff16155b15156125ed57604051600160e51b62461bcd02815260040180806020018281038252602e81526020018061398b602e913960400191505060405180910390fd5b600054610100900460ff16158015612618576000805460ff1961ff0019909116610100171660011790555b8560008111801561262a575060ff8111155b151561266a57604051600160e51b62461bcd0281526004018080602001828103825260378152602001806138a36037913960400191505060405180910390fd5b6126733361345d565b61267b612f67565b151561268957612689611d70565b61269161339e565b15156126a1576126a184846118da565b6126aa3361236c565b6101a08790556101a1805460ff191660ff88161790556101a28590556126ce613820565b505060408051608081018252600080825260208083018281529383018281526060840183815292805261019e90915291517f5b1e587894c781c322714baac11bfa7b0da2aeb4590a6dcb5f31ea08c486311b5591517f5b1e587894c781c322714baac11bfa7b0da2aeb4590a6dcb5f31ea08c486311c55517f5b1e587894c781c322714baac11bfa7b0da2aeb4590a6dcb5f31ea08c486311d55517f5b1e587894c781c322714baac11bfa7b0da2aeb4590a6dcb5f31ea08c486311e55801561279d576000805461ff00191690555b505050505050565b6101a36020908152600092835260408084209091529082529020805460019091015460ff9091169082565b61019e6020526000908152604090208054600182015460028301546003909301549192909184565b60675460009060ff161561280b57600080fd5b612813611afd565b6001600160a01b0316331461285c57604051600160e51b62461bcd02815260040180806020018281038252602f815260200180613930602f913960400191505060405180910390fd5b6000612866611a0f565b600084815261019e60205260409020600381015491925090156128bd57604051600160e51b62461bcd02815260040180806020018281038252602f8152602001806138da602f913960400191505060405180910390fd5b6001600160a01b03821660009081526101a36020908152604080832087845290915290205460ff161561293a5760408051600160e51b62461bcd02815260206004820152601a60248201527f596f7520616c7265616479206f776e2074686973207374616d70000000000000604482015290519081900360640190fd5b806001015461295760018360020154612f1890919063ffffffff16565b111561299757604051600160e51b62461bcd02815260040180806020018281038252602c81526020018061395f602c913960400191505060405180910390fd5b60028101546129ad90600163ffffffff612f1816565b60028201556129bd61019d6130db565b60006129ca61019d6130d7565b90506129d4613820565b50604080516080810182528354815260006020808301828152838501838152606085018b815287855261019e8452868520865181559251600180850191909155915160028401555160039092019190915561019f909152929020805460ff1916909217909155612a448483612fb8565b6001600160a01b03841660008181526101a3602090815260408083208a8452825291829020805460ff19166001908117825501859055815185815291517f463271931ea69b9522a3fffad595ff95986953dbd0f71e563deacab706f0e0b59281900390910190a2825460408051848152602081019290925280516001600160a01b038716927f550b743fe7aa34355e646fd0ad2178394d4cdcad0692a40382c8663e61fce7be92908290030190a250949350505050565b6060806000368080601f016020809104026020016040519081016040528093929190818152602001838380828437600092019190915250929350612b429250611afd915050565b6001600160a01b0316336001600160a01b03161415611a525760146000369050036040519080825280601f01601f191660200182016040528015612b8d576020820181803883390190505b50905060005b8151811015612be15760003682818110612ba957fe5b9050013560f81c60f81b8282815181101515612bc157fe5b9060200101906001600160f81b031916908160001a905350600101612b93565b50905090565b6001600160a01b03918216600090815260d06020908152604080832093909416825291909152205460ff1690565b600090815260cd60205260409020546001600160a01b0316151590565b600081601401835110151515612c7c57604051600160e51b62461bcd028152600401808060200182810382526026815260200180613a2e6026913960400191505060405180910390fd5b5001601401516001600160a01b031690565b603380546001600160a01b0319166001600160a01b038316179055611d6261233a565b600080612cbd83611a6d565b9050806001600160a01b0316846001600160a01b03161480612cf85750836001600160a01b0316612ced846112e1565b6001600160a01b0316145b80612d085750612d088185612be7565b949350505050565b826001600160a01b0316612d2382611a6d565b6001600160a01b031614612d3657600080fd5b6001600160a01b0382161515612d4b57600080fd5b612d5481613517565b6001600160a01b038316600090815260cf60205260409020612d7590613552565b6001600160a01b038216600090815260cf60205260409020612d96906130db565b600081815260cd602052604080822080546001600160a01b0319166001600160a01b0386811691821790925591518493918716917fddf252ad1be2c89b69c2b068fc378daa952ba7f163c4a11628f55a4df523b3ef91a4505050565b600082821115612e0157600080fd5b50900390565b6000612e11613820565b50600082815261019e602090815260408083208151608081018352815481526001820154938101939093526002810154918301919091526003015460608201526101a15490919060ff165b60ff811615612eba5760ff8116430340612e94816001600289020160208110612e8157fe5b1a60f81b6001600160f81b0319166112de565b6008612ea88360028a0260208110612e8157fe5b901b1792909201915060001901612e5c565b5060408201516101a15460ff1682811515612ed157fe5b0401949350505050565b6000821515612eec575060006113f4565b828202828482811515612efb57fe5b04146113f157600080fd5b611417612f1282611a6d565b82613569565b6000828201838110156113f157600080fd5b60006001600160a01b0382161515612f4157600080fd5b506001600160a01b03166000908152602091909152604090205460ff1690565b303b1590565b6000611a52600160e01b6380ac58cd0261122a565b6001600160e01b03198082161415612f9357600080fd5b6001600160e01b0319166000908152609a60205260409020805460ff19166001179055565b6001600160a01b0382161515612fcd57600080fd5b612fd681612c15565b15612fe057600080fd5b600081815260cd6020908152604080832080546001600160a01b0319166001600160a01b038716908117909155835260cf909152902061301f906130db565b60405181906001600160a01b038416906000907fddf252ad1be2c89b69c2b068fc378daa952ba7f163c4a11628f55a4df523b3ef908290a45050565b61306482612c15565b151561306f57600080fd5b600082815261010560209081526040909120825161143a928401906137a2565b6130a060348263ffffffff6135b316565b6040516001600160a01b038216907fcd265ebaf09df2871cc7bd4133404a235ba12eff2041bb89d9c714a2621c7c7e90600090a250565b5490565b80546001019055565b600054610100900460ff16806130fd57506130fd612f61565b8061310b575060005460ff16155b151561314b57604051600160e51b62461bcd02815260040180806020018281038252602e81526020018061398b602e913960400191505060405180910390fd5b600054610100900460ff16158015613176576000805460ff1961ff0019909116610100171660011790555b611e1d600160e01b6301ffc9a702612f7c565b61319a60348263ffffffff6135ff16565b6040516001600160a01b038216907f6719d08c1888103bea251a4ed56406bd0c3e69723c8a1686e017e7bbe159b6f890600090a250565b6131e36101388263ffffffff6135ff16565b6040516001600160a01b038216907f6ae172837ea30b801fbfcdd4108aa1d5bf8ff775444fd70256b44e6bf3dfc3f690600090a250565b61322c6101388263ffffffff6135b316565b6040516001600160a01b038216907fe94479a9f7e1952cc78f2d6baab678adc1b772d936c6583def489e524cb6669290600090a250565b6000613277846001600160a01b031661364d565b151561328557506001612d08565b604051600160e11b630a85bd0102815233600482018181526001600160a01b03888116602485015260448401879052608060648501908152865160848601528651600095928a169463150b7a029490938c938b938b939260a4019060208501908083838e5b838110156133025781810151838201526020016132ea565b50505050905090810190601f16801561332f5780820380516001836020036101000a031916815260200191505b5095505050505050602060405180830381600087803b15801561335157600080fd5b505af1158015613365573d6000803e3d6000fd5b505050506040513d602081101561337b57600080fd5b50516001600160e01b031916600160e11b630a85bd010214915050949350505050565b6000611a52600160e01b635b5e139f0261122a565b600054610100900460ff16806133cc57506133cc612f61565b806133da575060005460ff16155b151561341a57604051600160e51b62461bcd02815260040180806020018281038252602e81526020018061398b602e913960400191505060405180910390fd5b600054610100900460ff16158015613445576000805460ff1961ff0019909116610100171660011790555b61344e82612326565b151561242d5761242d826131d1565b600054610100900460ff16806134765750613476612f61565b80613484575060005460ff16155b15156134c457604051600160e51b62461bcd02815260040180806020018281038252602e81526020018061398b602e913960400191505060405180910390fd5b600054610100900460ff161580156134ef576000805460ff1961ff0019909116610100171660011790555b6134f882613653565b6067805460ff191690558015611d62576000805461ff00191690555050565b600081815260ce60205260409020546001600160a01b03161561141757600090815260ce6020526040902080546001600160a01b0319169055565b805461356590600163ffffffff612df216565b9055565b61357382826136fd565b600081815261010560205260409020546002600019610100600184161502019091160415611d6257600081815261010560205260408120611d6291613848565b6001600160a01b03811615156135c857600080fd5b6135d28282612f2a565b15156135dd57600080fd5b6001600160a01b0316600090815260209190915260409020805460ff19169055565b6001600160a01b038116151561361457600080fd5b61361e8282612f2a565b1561362857600080fd5b6001600160a01b0316600090815260209190915260409020805460ff19166001179055565b3b151590565b600054610100900460ff168061366c575061366c612f61565b8061367a575060005460ff16155b15156136ba57604051600160e51b62461bcd02815260040180806020018281038252602e81526020018061398b602e913960400191505060405180910390fd5b600054610100900460ff161580156136e5576000805460ff1961ff0019909116610100171660011790555b6136ee82611823565b151561242d5761242d82613189565b816001600160a01b031661371082611a6d565b6001600160a01b03161461372357600080fd5b61372c81613517565b6001600160a01b038216600090815260cf6020526040902061374d90613552565b600081815260cd602052604080822080546001600160a01b0319169055518291906001600160a01b038516907fddf252ad1be2c89b69c2b068fc378daa952ba7f163c4a11628f55a4df523b3ef908390a45050565b828054600181600116156101000203166002900490600052602060002090601f016020900481019282601f106137e357805160ff1916838001178555613810565b82800160010185558215613810579182015b828111156138105782518255916020019190600101906137f5565b5061381c929150613888565b5090565b6040518060800160405280600081526020016000815260200160008152602001600081525090565b50805460018160011615610100020316600290046000825580601f1061386e5750611417565b601f01602090049060005260206000209081019061141791905b6112de91905b8082111561381c576000815560010161388e56fe507269636520446570746820706172616d65746572206d7573742062652077697468696e207468656e2072616e6765205b312d3235355d596f752063616e206f6e6c792067656e6572617465206e6577207374616d70732066726f6d2047656e30204e465473557365722068617320616c72656164792077697468647261776e20736f6d652062616c616e63655472616e73616374696f6e2063616e206f6e6c7920626520706572666f6d6564206279207468652072656c61796572536f727279212054686973205374616d70206973206e6f742063757272656e746c7920617661696c61626c65436f6e747261637420696e7374616e63652068617320616c7265616479206265656e20696e697469616c697a6564596f7520646f6e74206861766520616e79206f75747374616e64696e672062616c616e636520746f2077697468647261775072697a6520706f7420697320616c6d6f737420656d70747920736f206974206973206e6f206c6f6e67657220706f737369626c6520746f2073656c6c207374616d7073475245415445525f4f525f455155414c5f544f5f32305f4c454e4754485f5245515549524544a165627a7a723058208b72156e7ec550b34a7c0ab6ccbf1563af198382d5bcd0818eed3cc361d9dc330029",
  "source": "pragma solidity ^0.5.0;\n\nimport \"@openzeppelin/contracts-ethereum-package/contracts/token/ERC721/ERC721Metadata.sol\";\nimport \"@openzeppelin/contracts-ethereum-package/contracts/token/ERC721/ERC721MetadataMintable.sol\";\nimport \"@openzeppelin/contracts-ethereum-package/contracts/token/ERC721/ERC721Metadata.sol\";\nimport \"@openzeppelin/contracts-ethereum-package/contracts/token/ERC721/ERC721.sol\";\nimport \"@openzeppelin/contracts-ethereum-package/contracts/lifecycle/Pausable.sol\";\nimport \"@openzeppelin/upgrades/contracts/Initializable.sol\";\nimport \"@openzeppelin/contracts-ethereum-package/contracts/drafts/Counters.sol\";\nimport \"@openzeppelin/contracts-ethereum-package/contracts/math/SafeMath.sol\";\nimport \"tabookey-gasless/contracts/GsnUtils.sol\";\nimport \"tabookey-gasless/contracts/IRelayHub.sol\";\nimport \"tabookey-gasless/contracts/RelayRecipient.sol\";\n\n\n/// @title A Nifties exchange game to incentivize tourism and onboard to crypto\n/// @author santteegt\n/// @notice NFTs Market price is artificially calculated based on randomness feed from previous block hashes and user demand\n/// @dev Contract can be upgraded through a proxy contract supplied by OpenZeppelin SDK\n/// @dev Contract can be used with the GSN\ncontract StampCollectible is Initializable, RelayRecipient, Pausable, ERC721MetadataMintable {\n    /// Library used to perform unit increment/decrements\n    using Counters for Counters.Counter;\n    /// Library to avoid overflow/underflow bugs\n    using SafeMath for uint256;\n\n    /// Data structure that represents a NFT Tourist stamp\n    struct Stamp {\n        uint256 price;\n        uint256 maxClones;\n        uint256 inWild;\n        uint256 clonedFrom;\n    }\n\n    struct ClonedStamp {\n        bool owned;\n        uint tokenId;\n    }\n\n    /// Tracks the total minted stamps\n    Counters.Counter public totalMinted;\n    /// Store all minted stamps\n    // Stamp[] public stamps;\n    mapping (uint256 => Stamp) public stamps;\n    ///\n    mapping (uint256 => bool) public ownedTokensIndex;\n    /// Game parameter to provide an scarce amount of stamps\n    uint256 public maxClones;\n    /// Game parameter thah establish the depth of blockhashes to scan during NFT price estimate\n    // uint8 constant private PRICEDEPTH = 255;\n    uint8 private priceDepth;\n    /// Cost multiplier to transform NFT price (in finney) to ETH\n    // uint256 constant private COSTMULTIPLIER = 1000000000000;\n    uint256 private costMultiplier;\n\n    /// Maintains a record of minted NFTS and ownership per account\n    // mapping (address => mapping (uint256 => bool)) public balances;\n    mapping (address => mapping (uint256 => ClonedStamp)) public balances;\n\n    /// Verify that the priceDepth parameters is within the max No. of historical blocks a contract can track\n    modifier checkMaxBlockDepth(uint _value) {\n        require(_value > 0 && _value <= 255, \"Price Depth parameter must be within then range [1-255]\");\n        _;\n    }\n\n    /// Triggered when a new Gen0 stamp is minted by the contract owner\n    event MintedStamp(address indexed owner, uint256 tokenId, uint256 price);\n    /// Triggered when a stamp is cloned and minted to a user\n    event NewStamp(address indexed owner, uint256 tokenId, uint256 price);\n    /// Triggered when a cloned stamp is returned to the contract and thus burned\n    event BurnedStamp(address indexed owner, uint256 tokenId, uint256 clonedTokenId);\n\n    /// @dev This constructor was deprecated in favour of the initialize function\n    /// @dev so the contract can be upgraded through a proxy contract\n    // constructor(uint256 _maxClones) ERC721Metadata(\"CryptoStamps\", \"STAMPS\") public {\n    //     maxClones = _maxClones;\n    //     if(stamps.length == 0) {\n    //         Stamp memory _dummy = Stamp({\n    //             price: 0, maxClones: 0, inWild: 0, clonedFrom: 0});\n    //         stamps.push(_dummy);\n    //     }\n    // }\n\n    /** @dev Initialize current and derived contracts\n      * @param _maxClones Maximum number of clones allowed per Gen0 NFT\n      * @param _priceDepth Game parameter thah establish the depth of blockhashes to scan during NFT price estimate\n      * @param _costMultiplier Cost multiplier to transform NFT price (in finney) to ETH\n      * @param _name NFT name\n      * @param _symbol NFT symbol\n      */\n    function initialize(uint256 _maxClones, uint8 _priceDepth,\n        uint256 _costMultiplier, string memory _name, string memory _symbol)\n        public\n        initializer // ensures that the contract only initilizes once\n        checkMaxBlockDepth(_maxClones) {\n\n            Pausable.initialize(msg.sender);\n            if(!ERC721._hasBeenInitialized()) {\n                ERC721.initialize();\n            }\n            if(!ERC721Metadata._hasBeenInitialized()) {\n                ERC721Metadata.initialize(_name, _symbol);\n            }\n            ERC721MetadataMintable.initialize(msg.sender);\n\n            maxClones = _maxClones;\n            priceDepth = _priceDepth;\n            costMultiplier = _costMultiplier;\n\n            Stamp memory _dummy = Stamp({\n                price: 0, maxClones: 0, inWild: 0, clonedFrom: 0});\n            stamps[0] = _dummy;\n    }\n\n    /** @dev Calculate the new NFT price based on demand and randomness based on past block hashes\n      * @notice Market value is artificially generated for the game using the entropy found in past block hashes\n      * @param _index NFT index in storage\n      * @return uint16 NFt new estimate market price\n      */\n    function getNFTPrice(uint256 _index) internal view returns (uint16) {\n        Stamp memory stamp = stamps[_index];\n        uint256 x = 0;\n        for(uint8 depth = priceDepth; depth > 0 ; depth--) {\n          bytes32 blockHash = blockhash(block.number-depth);\n          x += convert(blockHash[_index * 2]) << 8 | convert(blockHash[_index * 2 + 1]);\n        }\n        return uint16(x / priceDepth) + uint16(stamp.inWild);\n    }\n\n    /** @dev Helper function to convert a bytes32 to uint\n      * @param _b bytes32 data hash\n      * @return uint uint representation of _b\n      */\n    function convert(bytes32 _b) internal pure returns (uint) {\n        return uint(_b);\n    }\n\n    /** @dev Mint a Gen0 stamp\n      * @notice This function can only be called by the contract owner\n      * @param _priceFinney Initial NFT price in finney\n      * @param _tokenURI URI of the associated digital collectible art\n      * @return bool true if Gen0 NFT is minted\n      */\n    function mint(uint256 _priceFinney, string memory _tokenURI) public\n        onlyMinter\n        whenNotPaused\n        returns (bool) {\n        Stamp memory collectible = Stamp({\n            price: _priceFinney.mul(costMultiplier),\n            maxClones: maxClones,\n            inWild: 0,\n            clonedFrom: 0\n        });\n        totalMinted.increment();\n        uint256 tokenId = totalMinted.current();\n        stamps[tokenId] = collectible;\n        ownedTokensIndex[tokenId] = true;\n        emit MintedStamp(msg.sender, tokenId, _priceFinney);\n\n        return mintWithTokenURI(msg.sender, tokenId, _tokenURI);\n    }\n\n    /** @dev Allow to buy a cloned stamp from minted Gen0 NFTs\n      * @param _tokenId Gen0 NFT index in storage\n      * @return uint tokenId corresponding to the cloned NFT\n      */\n    function buyStamp(address sender, uint256 _tokenId) public payable\n        whenNotPaused\n        returns (uint) {\n            Stamp storage stamp = stamps[_tokenId];\n            require(stamp.clonedFrom == 0, \"You can only generate new stamps from Gen0 NFTs\");\n            require(!balances[sender][_tokenId].owned, \"You already own this stamp\");\n            require(stamp.inWild.add(1) <= stamp.maxClones, \"Max clones have been reached\");\n            require(msg.value >= stamp.price, \"Not enough funds\");\n            stamp.inWild = stamp.inWild.add(1);\n            stamp.price = uint256(getNFTPrice(_tokenId)).mul(costMultiplier);\n\n            /// mint and increase total minted\n            totalMinted.increment();\n            uint tokenId = totalMinted.current();\n            Stamp memory clonedStamp = Stamp({\n                price: stamp.price,\n                maxClones: 0,\n                inWild: 0,\n                clonedFrom: _tokenId\n            });\n            stamps[tokenId] = clonedStamp;\n            ownedTokensIndex[tokenId] = true;\n            _mint(sender, tokenId);\n            balances[sender][_tokenId].owned = true;\n            balances[sender][_tokenId].tokenId = tokenId;\n\n            // emit NewStamp(msg.sender, _tokenId, stamp.price);\n            emit NewStamp(sender, tokenId, msg.value);\n            return tokenId;\n    }\n\n    /** @dev Allow to sell an owned stamp and profit/loose based on current market price\n      * @param _tokenId Gen0 NFT index in storage\n      * @return bool true if processed\n      */\n    function sellStamp(uint256 _tokenId) public\n        whenNotPaused\n        returns (bool) {\n            address sender = getSender();\n            require(balances[sender][_tokenId].owned, \"User does not own this stamp\");\n            Stamp storage stamp = stamps[_tokenId];\n            uint256 payout = stamp.price;\n            require(address(this).balance >= payout, \"Prize pot is almost empty so it is no longer possible to sell stamps\");\n            stamp.inWild = stamp.inWild.sub(1);\n            stamp.price = uint256(getNFTPrice(_tokenId)).mul(costMultiplier);\n\n            ClonedStamp storage clonedStamp = balances[sender][_tokenId];\n            clonedStamp.owned = false;\n\n            // burn token\n            _burn(clonedStamp.tokenId);\n            ownedTokensIndex[clonedStamp.tokenId] = false;\n\n            emit BurnedStamp(sender, _tokenId, clonedStamp.tokenId);\n            delete stamps[clonedStamp.tokenId];\n            // TODO: disabled when upgrading the contract\n            // msg.sender.transfer(payout); // This approach can block the asset if owned by a bad actor (contract account)\n            // TODO: to be addded in an upgraded version of the contract\n            outstandingBalance[sender] = outstandingBalance[sender].add(payout);\n            return true;\n    }\n\n    /** @dev Fallback function to allow the contract accept deposits in ETH\n      * @notice deposits can be crodwsourced to fund the Prize pot\n      */\n    function () external payable whenNotPaused {\n\n    }\n\n    /// Maintains a record of outstanding balance owned to users before withdrawal\n    /// Required to implement the Pull vs Push design pattern for payments\n    /// TODO: to be included later in an upgradable contract\n    mapping (address => uint) public outstandingBalance;\n\n    /// Triggered when a user withdraw her outstanding balance from selling stamps in the market\n    /// TODO: this has to be added as an upgrade\n    event WithdrawnBalance(address indexed owner, uint256 amount);\n\n    /** @dev Allow users to withdraw funds from sold stamps. Required to enable a pull vs push design pattern\n      * @return bool true if processed\n      */\n    /// TODO: to be addded in an upgraded version of the contract\n    function withdraw() public whenNotPaused returns (bool) {\n        address sender = getSender();\n    \trequire(outstandingBalance[sender] > 0, \"You dont have any outstanding balance to withdraw\");\n    \tuint amount = outstandingBalance[sender];\n    \toutstandingBalance[sender] = 0;\n        hasWithdrawn[sender] = true;\n        emit WithdrawnBalance(sender, amount);\n        msg.sender.transfer(amount);\n    \treturn true;\n    }\n\n    /// Logs if a user already withdraw some balance from the pot\n    mapping (address => bool) public hasWithdrawn;\n\n    /// Verifies that a call is done by the relayer\n    modifier onlyByRelayer() {\n        require(msg.sender == getHubAddr(), \"Transaction can only be perfomed by the relayer\");\n        _;\n    }\n\n    /// Triggered when a stamp is airdroped through the relayer\n    event AirdropedStamp(address indexed sender, uint tokenId);\n\n    /**\n     * @dev Airdrop a stamp throguh a relayer in the GSN\n     * param _tokenId Gen0 NFT index in storage\n     * @return uint tokenId corresponding to the cloned NFT\n     */\n    function airdropStamp(uint256 _tokenId) public\n        whenNotPaused\n        onlyByRelayer\n        returns (uint) {\n            address sender = getSender();\n            Stamp storage stamp = stamps[_tokenId];\n            require(stamp.clonedFrom == 0, \"You can only generate new stamps from Gen0 NFTs\");\n            require(!balances[sender][_tokenId].owned, \"You already own this stamp\");\n            require(stamp.inWild.add(1) <= stamp.maxClones, \"Sorry! This Stamp is not currently available\");\n            stamp.inWild = stamp.inWild.add(1);\n\n            /// mint and increase total minted\n            totalMinted.increment();\n            uint tokenId = totalMinted.current();\n            Stamp memory clonedStamp = Stamp({\n                price: stamp.price,\n                maxClones: 0,\n                inWild: 0,\n                clonedFrom: _tokenId\n            });\n            stamps[tokenId] = clonedStamp;\n            ownedTokensIndex[tokenId] = true;\n            _mint(sender, tokenId);\n            balances[sender][_tokenId].owned = true;\n            balances[sender][_tokenId].tokenId = tokenId;\n\n            emit AirdropedStamp(sender, tokenId);\n            emit NewStamp(sender, tokenId, stamp.price);\n            return tokenId;\n    }\n\n    /** @dev It's an error code designed to help the DApp identify the reason. Low negatives are reserved for known issues but you can add your own errors in your contract\n      * @param _relay RelayHub address\n      * @param _from Tx sender\n      * @param  _encodedFunction encoded Function being called\n      * @param _transactionFee tx fee\n      * @param _gasPrice tx gas price\n      * @param _gasLimit tx gas limit\n      * @param _nonce tx nonce\n      * @param _approvalData tx data\n      * @param _maxPossibleCharge max possible charge per tx\n      * @return uint256 0 means you accept sponsoring the relayed transaction. Anything else indicates rejection.\n      * @return bytes Error message\n      */\n    function acceptRelayedCall(address _relay, address _from, bytes calldata _encodedFunction,\n            uint256 _transactionFee, uint256 _gasPrice, uint256 _gasLimit, uint256 _nonce,\n            bytes calldata _approvalData, uint256 _maxPossibleCharge)\n            external view returns (uint256, bytes memory) {\n\n                if(hasWithdrawn[_from]) {\n                    return (10, \"User has already withdrawn some balance\");\n                }\n                return (0, \"\");\n    }\n    // function accept_relayed_call(address _relay, address _from, bytes memory _encodedFunction,\n    //     uint _gasPrice, uint _transactionFee) public view returns(uint32) {\n    //         if(hasWithdrawn[_from]) {\n    //             return 10;\n    //         }\n    //         return 0;\n    // }\n\n    /** @dev Inform of the maximum cost the call may have, and can be used to charge the user in advance.\n      * @notice This is useful if the user may spend their allowance as part of the call, so you can lock some funds here.\n      * @param _context tx data\n      * @return bytes32 the maximum cost the call may have\n      */\n    function preRelayedCall(bytes calldata _context) /*relayHubOnly*/ external returns (bytes32) {\n        return bytes32(uint(123456));\n    }\n\n    /** @dev The success flag indicates whether it was relayed successfully or not. This is where you would usually subtract from the user's remaining credit\n      * @param _context tx data\n      * @param _success True if tx was relayed\n      * @param _actualCharge charged value\n      * @param _preRetVal preRetVal\n      */\n    function postRelayedCall(bytes calldata _context, bool _success, uint _actualCharge, bytes32 _preRetVal) /*relayHubOnly*/ external {\n    }\n\n    /**\n     * @dev set RelayHub address\n     * @param _rhub RelayHub address\n     */\n    function updateRelayHub(IRelayHub _rhub) public onlyMinter {\n        setRelayHub(_rhub);\n    }\n\n    /**\n     * Deposit balance to the RelayHub\n     */\n    function depositToRelay() public onlyMinter payable {\n        getRelayHub().depositFor.value(msg.value)(address(this));\n    }\n\n    /**\n     * Withdraw balance deposited on the RelayHub\n     */\n    function withdrawFromRelay() public onlyMinter {\n        uint256 balance = getRelayHub().balanceOf(address(this));\n        getRelayHub().withdraw(balance);\n        msg.sender.transfer(balance);\n    }\n\n    /**\n     * Get balance deposited on the RelayHub\n     * @return uint current balance\n     */\n    function getBalanceOnRelay() public view onlyMinter returns (uint) {\n        return getRelayHub().balanceOf(address(this));\n    }\n}\n",
  "sourcePath": "/Users/santteegt/Consensys-Academy/Spring-2019/final-project/final-project-hackathon/contracts/StampCollectible.sol",
  "compiler": {
    "name": "solc",
    "version": "0.5.5+commit.47a71e8f.Emscripten.clang"
  },
  "schemaVersion": "3.0.11",
  "updatedAt": "2019-08-15T17:15:59.129Z",
  "devdoc": {
    "author": "santteegt",
    "details": "Contract can be upgraded through a proxy contract supplied by OpenZeppelin SDKContract can be used with the GSN",
    "methods": {
      "acceptRelayedCall(address,address,bytes,uint256,uint256,uint256,uint256,bytes,uint256)": {
        "details": "It's an error code designed to help the DApp identify the reason. Low negatives are reserved for known issues but you can add your own errors in your contract",
        "params": {
          "_approvalData": "tx data",
          "_encodedFunction": "encoded Function being called",
          "_from": "Tx sender",
          "_gasLimit": "tx gas limit",
          "_gasPrice": "tx gas price",
          "_maxPossibleCharge": "max possible charge per tx",
          "_nonce": "tx nonce",
          "_relay": "RelayHub address",
          "_transactionFee": "tx fee"
        },
        "return": "uint256 0 means you accept sponsoring the relayed transaction. Anything else indicates rejection.bytes Error message"
      },
      "airdropStamp(uint256)": {
        "details": "Airdrop a stamp throguh a relayer in the GSN param _tokenId Gen0 NFT index in storage",
        "return": "uint tokenId corresponding to the cloned NFT"
      },
      "approve(address,uint256)": {
        "details": "Approves another address to transfer the given token ID The zero address indicates there is no approved address. There can only be one approved address per token at a given time. Can only be called by the token owner or an approved operator.",
        "params": {
          "to": "address to be approved for the given token ID",
          "tokenId": "uint256 ID of the token to be approved"
        }
      },
      "balanceOf(address)": {
        "details": "Gets the balance of the specified address",
        "params": {
          "owner": "address to query the balance of"
        },
        "return": "uint256 representing the amount owned by the passed address"
      },
      "buyStamp(address,uint256)": {
        "details": "Allow to buy a cloned stamp from minted Gen0 NFTs",
        "params": {
          "_tokenId": "Gen0 NFT index in storage"
        },
        "return": "uint tokenId corresponding to the cloned NFT"
      },
      "getApproved(uint256)": {
        "details": "Gets the approved address for a token ID, or zero if no address set Reverts if the token ID does not exist.",
        "params": {
          "tokenId": "uint256 ID of the token to query the approval of"
        },
        "return": "address currently approved for the given token ID"
      },
      "getBalanceOnRelay()": {
        "return": "uint current balance"
      },
      "initialize(string,string)": {
        "details": "Constructor function"
      },
      "initialize(uint256,uint8,uint256,string,string)": {
        "details": "Initialize current and derived contracts",
        "params": {
          "_costMultiplier": "Cost multiplier to transform NFT price (in finney) to ETH",
          "_maxClones": "Maximum number of clones allowed per Gen0 NFT",
          "_name": "NFT name",
          "_priceDepth": "Game parameter thah establish the depth of blockhashes to scan during NFT price estimate",
          "_symbol": "NFT symbol"
        }
      },
      "isApprovedForAll(address,address)": {
        "details": "Tells whether an operator is approved by a given owner",
        "params": {
          "operator": "operator address which you want to query the approval of",
          "owner": "owner address which you want to query the approval of"
        },
        "return": "bool whether the given operator is approved by the given owner"
      },
      "mint(uint256,string)": {
        "details": "Mint a Gen0 stamp",
        "params": {
          "_priceFinney": "Initial NFT price in finney",
          "_tokenURI": "URI of the associated digital collectible art"
        },
        "return": "bool true if Gen0 NFT is minted"
      },
      "mintWithTokenURI(address,uint256,string)": {
        "details": "Function to mint tokens",
        "params": {
          "to": "The address that will receive the minted tokens.",
          "tokenId": "The token id to mint.",
          "tokenURI": "The token URI of the minted token."
        },
        "return": "A boolean that indicates if the operation was successful."
      },
      "name()": {
        "details": "Gets the token name",
        "return": "string representing the token name"
      },
      "ownerOf(uint256)": {
        "details": "Gets the owner of the specified token ID",
        "params": {
          "tokenId": "uint256 ID of the token to query the owner of"
        },
        "return": "address currently marked as the owner of the given token ID"
      },
      "pause()": {
        "details": "called by the owner to pause, triggers stopped state"
      },
      "paused()": {
        "return": "true if the contract is paused, false otherwise."
      },
      "postRelayedCall(bytes,bool,uint256,bytes32)": {
        "details": "The success flag indicates whether it was relayed successfully or not. This is where you would usually subtract from the user's remaining credit",
        "params": {
          "_actualCharge": "charged value",
          "_context": "tx data",
          "_preRetVal": "preRetVal",
          "_success": "True if tx was relayed"
        }
      },
      "preRelayedCall(bytes)": {
        "details": "Inform of the maximum cost the call may have, and can be used to charge the user in advance.",
        "params": {
          "_context": "tx data"
        },
        "return": "bytes32 the maximum cost the call may have"
      },
      "safeTransferFrom(address,address,uint256)": {
        "details": "Safely transfers the ownership of a given token ID to another address If the target address is a contract, it must implement `onERC721Received`, which is called upon a safe transfer, and return the magic value `bytes4(keccak256(\"onERC721Received(address,address,uint256,bytes)\"))`; otherwise, the transfer is reverted. Requires the msg.sender to be the owner, approved, or operator",
        "params": {
          "from": "current owner of the token",
          "to": "address to receive the ownership of the given token ID",
          "tokenId": "uint256 ID of the token to be transferred"
        }
      },
      "safeTransferFrom(address,address,uint256,bytes)": {
        "details": "Safely transfers the ownership of a given token ID to another address If the target address is a contract, it must implement `onERC721Received`, which is called upon a safe transfer, and return the magic value `bytes4(keccak256(\"onERC721Received(address,address,uint256,bytes)\"))`; otherwise, the transfer is reverted. Requires the msg.sender to be the owner, approved, or operator",
        "params": {
          "_data": "bytes data to send along with a safe transfer check",
          "from": "current owner of the token",
          "to": "address to receive the ownership of the given token ID",
          "tokenId": "uint256 ID of the token to be transferred"
        }
      },
      "sellStamp(uint256)": {
        "details": "Allow to sell an owned stamp and profit/loose based on current market price",
        "params": {
          "_tokenId": "Gen0 NFT index in storage"
        },
        "return": "bool true if processed"
      },
      "setApprovalForAll(address,bool)": {
        "details": "Sets or unsets the approval of a given operator An operator is allowed to transfer all tokens of the sender on their behalf",
        "params": {
          "approved": "representing the status of the approval to be set",
          "to": "operator address to set the approval"
        }
      },
      "supportsInterface(bytes4)": {
        "details": "implement supportsInterface(bytes4) using a lookup table"
      },
      "symbol()": {
        "details": "Gets the token symbol",
        "return": "string representing the token symbol"
      },
      "tokenURI(uint256)": {
        "details": "Returns an URI for a given token ID Throws if the token ID does not exist. May return an empty string.",
        "params": {
          "tokenId": "uint256 ID of the token to query"
        }
      },
      "transferFrom(address,address,uint256)": {
        "details": "Transfers the ownership of a given token ID to another address Usage of this method is discouraged, use `safeTransferFrom` whenever possible Requires the msg.sender to be the owner, approved, or operator",
        "params": {
          "from": "current owner of the token",
          "to": "address to receive the ownership of the given token ID",
          "tokenId": "uint256 ID of the token to be transferred"
        }
      },
      "unpause()": {
        "details": "called by the owner to unpause, returns to normal state"
      },
      "updateRelayHub(address)": {
        "details": "set RelayHub address",
        "params": {
          "_rhub": "RelayHub address"
        }
      }
    },
    "title": "A Nifties exchange game to incentivize tourism and onboard to crypto"
  },
  "userdoc": {
    "methods": {
      "depositToRelay()": {
        "notice": "Deposit balance to the RelayHub"
      },
      "getBalanceOnRelay()": {
        "notice": "Get balance deposited on the RelayHub"
      },
      "getRecipientBalance()": {
        "notice": "return the balance of this contract. Note that this method will revert on configuration error (invalid relay address)"
      },
      "getSender()": {
        "notice": "return the sender of this call. if the call came through the valid RelayHub, return the original sender. otherwise, return `msg.sender` should be used in the contract anywhere instead of msg.sender"
      },
      "mint(uint256,string)": {
        "notice": "This function can only be called by the contract owner"
      },
      "preRelayedCall(bytes)": {
        "notice": "This is useful if the user may spend their allowance as part of the call, so you can lock some funds here."
      },
      "withdraw()": {
        "notice": "TODO: to be addded in an upgraded version of the contract"
      },
      "withdrawFromRelay()": {
        "notice": "Withdraw balance deposited on the RelayHub"
      }
    },
    "notice": "NFTs Market price is artificially calculated based on randomness feed from previous block hashes and user demand"
  }
}